{
  "_format": "hh-sol-artifact-1",
  "contractName": "AaveLiquidationBot",
  "sourceName": "contracts/protocol/Liquidator.sol",
  "abi": [
    {
      "inputs": [
        {
          "internalType": "address",
          "name": "_admin",
          "type": "address"
        }
      ],
      "stateMutability": "nonpayable",
      "type": "constructor"
    },
    {
      "inputs": [],
      "name": "AccessControlBadConfirmation",
      "type": "error"
    },
    {
      "inputs": [
        {
          "internalType": "address",
          "name": "account",
          "type": "address"
        },
        {
          "internalType": "bytes32",
          "name": "neededRole",
          "type": "bytes32"
        }
      ],
      "name": "AccessControlUnauthorizedAccount",
      "type": "error"
    },
    {
      "inputs": [],
      "name": "ReentrancyGuardReentrantCall",
      "type": "error"
    },
    {
      "inputs": [
        {
          "internalType": "address",
          "name": "token",
          "type": "address"
        }
      ],
      "name": "SafeERC20FailedOperation",
      "type": "error"
    },
    {
      "anonymous": false,
      "inputs": [
        {
          "indexed": true,
          "internalType": "address",
          "name": "user",
          "type": "address"
        },
        {
          "indexed": false,
          "internalType": "address",
          "name": "collateralAsset",
          "type": "address"
        },
        {
          "indexed": false,
          "internalType": "address",
          "name": "debtAsset",
          "type": "address"
        },
        {
          "indexed": false,
          "internalType": "uint256",
          "name": "profit",
          "type": "uint256"
        }
      ],
      "name": "LiquidationExecuted",
      "type": "event"
    },
    {
      "anonymous": false,
      "inputs": [
        {
          "indexed": true,
          "internalType": "bytes32",
          "name": "role",
          "type": "bytes32"
        },
        {
          "indexed": true,
          "internalType": "bytes32",
          "name": "previousAdminRole",
          "type": "bytes32"
        },
        {
          "indexed": true,
          "internalType": "bytes32",
          "name": "newAdminRole",
          "type": "bytes32"
        }
      ],
      "name": "RoleAdminChanged",
      "type": "event"
    },
    {
      "anonymous": false,
      "inputs": [
        {
          "indexed": true,
          "internalType": "bytes32",
          "name": "role",
          "type": "bytes32"
        },
        {
          "indexed": true,
          "internalType": "address",
          "name": "account",
          "type": "address"
        },
        {
          "indexed": true,
          "internalType": "address",
          "name": "sender",
          "type": "address"
        }
      ],
      "name": "RoleGranted",
      "type": "event"
    },
    {
      "anonymous": false,
      "inputs": [
        {
          "indexed": true,
          "internalType": "bytes32",
          "name": "role",
          "type": "bytes32"
        },
        {
          "indexed": true,
          "internalType": "address",
          "name": "account",
          "type": "address"
        },
        {
          "indexed": true,
          "internalType": "address",
          "name": "sender",
          "type": "address"
        }
      ],
      "name": "RoleRevoked",
      "type": "event"
    },
    {
      "inputs": [],
      "name": "DEFAULT_ADMIN_ROLE",
      "outputs": [
        {
          "internalType": "bytes32",
          "name": "",
          "type": "bytes32"
        }
      ],
      "stateMutability": "view",
      "type": "function"
    },
    {
      "inputs": [],
      "name": "LIQUIDATOR_ROLE",
      "outputs": [
        {
          "internalType": "bytes32",
          "name": "",
          "type": "bytes32"
        }
      ],
      "stateMutability": "view",
      "type": "function"
    },
    {
      "inputs": [
        {
          "internalType": "bytes32",
          "name": "role",
          "type": "bytes32"
        },
        {
          "internalType": "address",
          "name": "account",
          "type": "address"
        }
      ],
      "name": "addRole",
      "outputs": [],
      "stateMutability": "nonpayable",
      "type": "function"
    },
    {
      "inputs": [
        {
          "internalType": "bytes32",
          "name": "role",
          "type": "bytes32"
        }
      ],
      "name": "getRoleAdmin",
      "outputs": [
        {
          "internalType": "bytes32",
          "name": "",
          "type": "bytes32"
        }
      ],
      "stateMutability": "view",
      "type": "function"
    },
    {
      "inputs": [
        {
          "internalType": "bytes32",
          "name": "role",
          "type": "bytes32"
        },
        {
          "internalType": "address",
          "name": "account",
          "type": "address"
        }
      ],
      "name": "grantRole",
      "outputs": [],
      "stateMutability": "nonpayable",
      "type": "function"
    },
    {
      "inputs": [
        {
          "internalType": "bytes32",
          "name": "role",
          "type": "bytes32"
        },
        {
          "internalType": "address",
          "name": "account",
          "type": "address"
        }
      ],
      "name": "hasRole",
      "outputs": [
        {
          "internalType": "bool",
          "name": "",
          "type": "bool"
        }
      ],
      "stateMutability": "view",
      "type": "function"
    },
    {
      "inputs": [
        {
          "components": [
            {
              "internalType": "address",
              "name": "lendingPool",
              "type": "address"
            },
            {
              "internalType": "address",
              "name": "uniswapRouter",
              "type": "address"
            },
            {
              "internalType": "address",
              "name": "uniswapQuoter",
              "type": "address"
            },
            {
              "internalType": "address",
              "name": "assetProvider",
              "type": "address"
            },
            {
              "internalType": "address",
              "name": "collateralAsset",
              "type": "address"
            },
            {
              "internalType": "address",
              "name": "borrowAsset",
              "type": "address"
            },
            {
              "internalType": "address",
              "name": "debtAsset",
              "type": "address"
            },
            {
              "internalType": "address",
              "name": "userToLiquidate",
              "type": "address"
            },
            {
              "internalType": "uint256",
              "name": "debtToCover",
              "type": "uint256"
            },
            {
              "internalType": "uint256",
              "name": "slippage",
              "type": "uint256"
            },
            {
              "internalType": "bytes",
              "name": "swapPathBorrowToDebt",
              "type": "bytes"
            },
            {
              "internalType": "bytes",
              "name": "swapPathCollateralToBorrow",
              "type": "bytes"
            }
          ],
          "internalType": "struct AaveLiquidationBot.LiquidationParams",
          "name": "params",
          "type": "tuple"
        }
      ],
      "name": "liquidationBorrow",
      "outputs": [],
      "stateMutability": "nonpayable",
      "type": "function"
    },
    {
      "inputs": [
        {
          "internalType": "bytes32",
          "name": "role",
          "type": "bytes32"
        },
        {
          "internalType": "address",
          "name": "account",
          "type": "address"
        }
      ],
      "name": "removeRole",
      "outputs": [],
      "stateMutability": "nonpayable",
      "type": "function"
    },
    {
      "inputs": [
        {
          "internalType": "bytes32",
          "name": "role",
          "type": "bytes32"
        },
        {
          "internalType": "address",
          "name": "callerConfirmation",
          "type": "address"
        }
      ],
      "name": "renounceRole",
      "outputs": [],
      "stateMutability": "nonpayable",
      "type": "function"
    },
    {
      "inputs": [
        {
          "internalType": "address",
          "name": "token",
          "type": "address"
        }
      ],
      "name": "rescueTokens",
      "outputs": [],
      "stateMutability": "nonpayable",
      "type": "function"
    },
    {
      "inputs": [
        {
          "internalType": "bytes32",
          "name": "role",
          "type": "bytes32"
        },
        {
          "internalType": "address",
          "name": "account",
          "type": "address"
        }
      ],
      "name": "revokeRole",
      "outputs": [],
      "stateMutability": "nonpayable",
      "type": "function"
    },
    {
      "inputs": [
        {
          "internalType": "bytes4",
          "name": "interfaceId",
          "type": "bytes4"
        }
      ],
      "name": "supportsInterface",
      "outputs": [
        {
          "internalType": "bool",
          "name": "",
          "type": "bool"
        }
      ],
      "stateMutability": "view",
      "type": "function"
    }
  ],
  "bytecode": "0x60806040523480156200001157600080fd5b5060405162002a7938038062002a798339818101604052810190620000379190620002df565b60018081905550600073ffffffffffffffffffffffffffffffffffffffff168173ffffffffffffffffffffffffffffffffffffffff1603620000b0576040517f08c379a0000000000000000000000000000000000000000000000000000000008152600401620000a79062000372565b60405180910390fd5b620000c56000801b826200010060201b60201c565b50620000f87f5e17fc5225d4a099df75359ce1f405503ca79498a8dc46a7d583235a0ee45c16826200010060201b60201c565b505062000394565b60006200011483836200020360201b60201c565b620001f857600160008085815260200190815260200160002060000160008473ffffffffffffffffffffffffffffffffffffffff1673ffffffffffffffffffffffffffffffffffffffff16815260200190815260200160002060006101000a81548160ff021916908315150217905550620001946200026d60201b60201c565b73ffffffffffffffffffffffffffffffffffffffff168273ffffffffffffffffffffffffffffffffffffffff16847f2f8788117e7eff1d82e926ec794901d17c78024a50270940304540a733656f0d60405160405180910390a460019050620001fd565b600090505b92915050565b600080600084815260200190815260200160002060000160008373ffffffffffffffffffffffffffffffffffffffff1673ffffffffffffffffffffffffffffffffffffffff16815260200190815260200160002060009054906101000a900460ff16905092915050565b600033905090565b600080fd5b600073ffffffffffffffffffffffffffffffffffffffff82169050919050565b6000620002a7826200027a565b9050919050565b620002b9816200029a565b8114620002c557600080fd5b50565b600081519050620002d981620002ae565b92915050565b600060208284031215620002f857620002f762000275565b5b60006200030884828501620002c8565b91505092915050565b600082825260208201905092915050565b7f496e76616c69642061646d696e20616464726573730000000000000000000000600082015250565b60006200035a60158362000311565b9150620003678262000322565b602082019050919050565b600060208201905081810360008301526200038d816200034b565b9050919050565b6126d580620003a46000396000f3fe608060405234801561001057600080fd5b50600436106100b35760003560e01c806374db798d1161007157806374db798d1461018a57806391d14854146101a6578063a217fddf146101d6578063d547741f146101f4578063e959b38a14610210578063f6ba00071461022c576100b3565b8062ae3bf8146100b857806301ffc9a7146100d457806316d8887a14610104578063248a9ca3146101225780632f2ff15d1461015257806336568abe1461016e575b600080fd5b6100d260048036038101906100cd91906119ce565b610248565b005b6100ee60048036038101906100e99190611a53565b6102fd565b6040516100fb9190611a9b565b60405180910390f35b61010c610377565b6040516101199190611acf565b60405180910390f35b61013c60048036038101906101379190611b16565b61039b565b6040516101499190611acf565b60405180910390f35b61016c60048036038101906101679190611b43565b6103ba565b005b61018860048036038101906101839190611b43565b6103dc565b005b6101a4600480360381019061019f9190611ba8565b610457565b005b6101c060048036038101906101bb9190611b43565b610e2a565b6040516101cd9190611a9b565b60405180910390f35b6101de610e94565b6040516101eb9190611acf565b60405180910390f35b61020e60048036038101906102099190611b43565b610e9b565b005b61022a60048036038101906102259190611b43565b610ebd565b005b61024660048036038101906102419190611b43565b610eda565b005b6000801b61025581610ef7565b6102f9338373ffffffffffffffffffffffffffffffffffffffff166370a08231306040518263ffffffff1660e01b81526004016102929190611c00565b602060405180830381865afa1580156102af573d6000803e3d6000fd5b505050506040513d601f19601f820116820180604052508101906102d39190611c51565b8473ffffffffffffffffffffffffffffffffffffffff16610f0b9092919063ffffffff16565b5050565b60007f7965db0b000000000000000000000000000000000000000000000000000000007bffffffffffffffffffffffffffffffffffffffffffffffffffffffff1916827bffffffffffffffffffffffffffffffffffffffffffffffffffffffff19161480610370575061036f82610f8a565b5b9050919050565b7f5e17fc5225d4a099df75359ce1f405503ca79498a8dc46a7d583235a0ee45c1681565b6000806000838152602001908152602001600020600101549050919050565b6103c38261039b565b6103cc81610ef7565b6103d68383610ff4565b50505050565b6103e46110e5565b73ffffffffffffffffffffffffffffffffffffffff168173ffffffffffffffffffffffffffffffffffffffff1614610448576040517f6697b23200000000000000000000000000000000000000000000000000000000815260040160405180910390fd5b61045282826110ed565b505050565b6104817f5e17fc5225d4a099df75359ce1f405503ca79498a8dc46a7d583235a0ee45c1633610e2a565b6104c0576040517f08c379a00000000000000000000000000000000000000000000000000000000081526004016104b790611cdb565b60405180910390fd5b6104c86111df565b600073ffffffffffffffffffffffffffffffffffffffff168160000160208101906104f391906119ce565b73ffffffffffffffffffffffffffffffffffffffff1603610549576040517f08c379a000000000000000000000000000000000000000000000000000000000815260040161054090611d47565b60405180910390fd5b600073ffffffffffffffffffffffffffffffffffffffff1681602001602081019061057491906119ce565b73ffffffffffffffffffffffffffffffffffffffff16036105ca576040517f08c379a00000000000000000000000000000000000000000000000000000000081526004016105c190611db3565b60405180910390fd5b600073ffffffffffffffffffffffffffffffffffffffff168160400160208101906105f591906119ce565b73ffffffffffffffffffffffffffffffffffffffff160361064b576040517f08c379a000000000000000000000000000000000000000000000000000000000815260040161064290611e1f565b60405180910390fd5b600073ffffffffffffffffffffffffffffffffffffffff1681608001602081019061067691906119ce565b73ffffffffffffffffffffffffffffffffffffffff16036106cc576040517f08c379a00000000000000000000000000000000000000000000000000000000081526004016106c390611e8b565b60405180910390fd5b600073ffffffffffffffffffffffffffffffffffffffff168160c00160208101906106f791906119ce565b73ffffffffffffffffffffffffffffffffffffffff160361074d576040517f08c379a000000000000000000000000000000000000000000000000000000000815260040161074490611ef7565b60405180910390fd5b600073ffffffffffffffffffffffffffffffffffffffff168160e001602081019061077891906119ce565b73ffffffffffffffffffffffffffffffffffffffff16036107ce576040517f08c379a00000000000000000000000000000000000000000000000000000000081526004016107c590611f63565b60405180910390fd5b6101f48161012001351115610818576040517f08c379a000000000000000000000000000000000000000000000000000000000815260040161080f90611fcf565b60405180910390fd5b80600001602081019061082b91906119ce565b73ffffffffffffffffffffffffffffffffffffffff1663a415bcad8260a001602081019061085991906119ce565b8361010001356002600086606001602081019061087691906119ce565b6040518663ffffffff1660e01b815260040161089695949392919061208c565b600060405180830381600087803b1580156108b057600080fd5b505af11580156108c4573d6000803e3d6000fd5b505050508060c00160208101906108db91906119ce565b73ffffffffffffffffffffffffffffffffffffffff168160a001602081019061090491906119ce565b73ffffffffffffffffffffffffffffffffffffffff16146109c1576109c081604001602081019061093591906119ce565b82602001602081019061094891906119ce565b8360a001602081019061095b91906119ce565b8480610140019061096c91906120ee565b8080601f016020809104026020016040519081016040528093929190818152602001838380828437600081840152601f19601f82011690508083019250505050505050856101000135866101200135611225565b5b610a158160000160208101906109d791906119ce565b8260800160208101906109ea91906119ce565b8360c00160208101906109fd91906119ce565b8460e0016020810190610a1091906119ce565b61124c565b6000816080016020810190610a2a91906119ce565b73ffffffffffffffffffffffffffffffffffffffff166370a08231306040518263ffffffff1660e01b8152600401610a629190611c00565b602060405180830381865afa158015610a7f573d6000803e3d6000fd5b505050506040513d601f19601f82011682018060405250810190610aa39190611c51565b90508160a0016020810190610ab891906119ce565b73ffffffffffffffffffffffffffffffffffffffff16826080016020810190610ae191906119ce565b73ffffffffffffffffffffffffffffffffffffffff1614610b9957610b98826040016020810190610b1291906119ce565b836020016020810190610b2591906119ce565b846080016020810190610b3891906119ce565b85806101600190610b4991906120ee565b8080601f016020809104026020016040519081016040528093929190818152602001838380828437600081840152601f19601f8201169050808301925050505050505085876101200135611225565b5b60008260a0016020810190610bae91906119ce565b73ffffffffffffffffffffffffffffffffffffffff166370a08231306040518263ffffffff1660e01b8152600401610be69190611c00565b602060405180830381865afa158015610c03573d6000803e3d6000fd5b505050506040513d601f19601f82011682018060405250810190610c279190611c51565b9050826101000135811015610c71576040517f08c379a0000000000000000000000000000000000000000000000000000000008152600401610c689061219d565b60405180910390fd5b610cb8836000016020810190610c8791906119ce565b8460a0016020810190610c9a91906119ce565b856101000135866060016020810190610cb391906119ce565b61136f565b60008360a0016020810190610ccd91906119ce565b73ffffffffffffffffffffffffffffffffffffffff166370a08231306040518263ffffffff1660e01b8152600401610d059190611c00565b602060405180830381865afa158015610d22573d6000803e3d6000fd5b505050506040513d601f19601f82011682018060405250810190610d469190611c51565b90506000811115610d9457610d93846000016020810190610d6791906119ce565b8560a0016020810190610d7a91906119ce565b83876060016020810190610d8e91906119ce565b611412565b5b8360e0016020810190610da791906119ce565b73ffffffffffffffffffffffffffffffffffffffff167fd169e4bc6bde8738cab2ae132ccc2ac82d66f5d7c531912427a3308168717ea5856080016020810190610df191906119ce565b8660c0016020810190610e0491906119ce565b84604051610e14939291906121bd565b60405180910390a2505050610e276114b5565b50565b600080600084815260200190815260200160002060000160008373ffffffffffffffffffffffffffffffffffffffff1673ffffffffffffffffffffffffffffffffffffffff16815260200190815260200160002060009054906101000a900460ff16905092915050565b6000801b81565b610ea48261039b565b610ead81610ef7565b610eb783836110ed565b50505050565b6000801b610eca81610ef7565b610ed48383610ff4565b50505050565b6000801b610ee781610ef7565b610ef183836110ed565b50505050565b610f0881610f036110e5565b6114be565b50565b610f85838473ffffffffffffffffffffffffffffffffffffffff1663a9059cbb8585604051602401610f3e9291906121f4565b604051602081830303815290604052915060e01b6020820180517bffffffffffffffffffffffffffffffffffffffffffffffffffffffff838183161783525050505061150f565b505050565b60007f01ffc9a7000000000000000000000000000000000000000000000000000000007bffffffffffffffffffffffffffffffffffffffffffffffffffffffff1916827bffffffffffffffffffffffffffffffffffffffffffffffffffffffff1916149050919050565b60006110008383610e2a565b6110da57600160008085815260200190815260200160002060000160008473ffffffffffffffffffffffffffffffffffffffff1673ffffffffffffffffffffffffffffffffffffffff16815260200190815260200160002060006101000a81548160ff0219169083151502179055506110776110e5565b73ffffffffffffffffffffffffffffffffffffffff168273ffffffffffffffffffffffffffffffffffffffff16847f2f8788117e7eff1d82e926ec794901d17c78024a50270940304540a733656f0d60405160405180910390a4600190506110df565b600090505b92915050565b600033905090565b60006110f98383610e2a565b156111d457600080600085815260200190815260200160002060000160008473ffffffffffffffffffffffffffffffffffffffff1673ffffffffffffffffffffffffffffffffffffffff16815260200190815260200160002060006101000a81548160ff0219169083151502179055506111716110e5565b73ffffffffffffffffffffffffffffffffffffffff168273ffffffffffffffffffffffffffffffffffffffff16847ff6391f5c32d9c69d2a47ea670b442974b53935d1edc7fd64eb21e047a839171b60405160405180910390a4600190506111d9565b600090505b92915050565b60026001540361121b576040517f3ee5aeb500000000000000000000000000000000000000000000000000000000815260040160405180910390fd5b6002600181905550565b6000611233878585856115b1565b90506112428686868685611665565b5050505050505050565b60008273ffffffffffffffffffffffffffffffffffffffff166370a08231306040518263ffffffff1660e01b81526004016112879190611c00565b602060405180830381865afa1580156112a4573d6000803e3d6000fd5b505050506040513d601f19601f820116820180604052508101906112c89190611c51565b90506112f585828573ffffffffffffffffffffffffffffffffffffffff1661175b9092919063ffffffff16565b8473ffffffffffffffffffffffffffffffffffffffff1662a718a98585858560006040518663ffffffff1660e01b815260040161133695949392919061221d565b600060405180830381600087803b15801561135057600080fd5b505af1158015611364573d6000803e3d6000fd5b505050505050505050565b61139a84838573ffffffffffffffffffffffffffffffffffffffff1661175b9092919063ffffffff16565b8373ffffffffffffffffffffffffffffffffffffffff1663573ade8184846002856040518563ffffffff1660e01b81526004016113da9493929190612270565b600060405180830381600087803b1580156113f457600080fd5b505af1158015611408573d6000803e3d6000fd5b5050505050505050565b61143d84838573ffffffffffffffffffffffffffffffffffffffff1661175b9092919063ffffffff16565b8373ffffffffffffffffffffffffffffffffffffffff1663e8eda9df84848460006040518563ffffffff1660e01b815260040161147d94939291906122b5565b600060405180830381600087803b15801561149757600080fd5b505af11580156114ab573d6000803e3d6000fd5b5050505050505050565b60018081905550565b6114c88282610e2a565b61150b5780826040517fe2517d3f0000000000000000000000000000000000000000000000000000000081526004016115029291906122fa565b60405180910390fd5b5050565b600080602060008451602086016000885af180611532576040513d6000823e3d81fd5b3d92506000519150506000821461154d576001811415611569565b60008473ffffffffffffffffffffffffffffffffffffffff163b145b156115ab57836040517f5274afe70000000000000000000000000000000000000000000000000000000081526004016115a29190611c00565b60405180910390fd5b50505050565b6000808573ffffffffffffffffffffffffffffffffffffffff1663cdca175386866040518363ffffffff1660e01b81526004016115ef9291906123b3565b6020604051808303816000875af115801561160e573d6000803e3d6000fd5b505050506040513d601f19601f820116820180604052508101906116329190611c51565b9050612710836127106116459190612412565b826116509190612446565b61165a91906124b7565b915050949350505050565b600061169286848773ffffffffffffffffffffffffffffffffffffffff1661175b9092919063ffffffff16565b60006040518060a001604052808681526020013073ffffffffffffffffffffffffffffffffffffffff1681526020014281526020018581526020018481525090508673ffffffffffffffffffffffffffffffffffffffff1663c04b8d59826040518263ffffffff1660e01b815260040161170c91906125c6565b6020604051808303816000875af115801561172b573d6000803e3d6000fd5b505050506040513d601f19601f8201168201806040525081019061174f9190611c51565b91505095945050505050565b60008373ffffffffffffffffffffffffffffffffffffffff1663dd62ed3e30856040518363ffffffff1660e01b81526004016117989291906125e8565b602060405180830381865afa1580156117b5573d6000803e3d6000fd5b505050506040513d601f19601f820116820180604052508101906117d99190611c51565b90506117f1848484846117ec9190612611565b6117f7565b50505050565b60008373ffffffffffffffffffffffffffffffffffffffff1663095ea7b384846040516024016118289291906121f4565b604051602081830303815290604052915060e01b6020820180517bffffffffffffffffffffffffffffffffffffffffffffffffffffffff838183161783525050505090506118768482611906565b611900576118f5848573ffffffffffffffffffffffffffffffffffffffff1663095ea7b38660006040516024016118ae929190612676565b604051602081830303815290604052915060e01b6020820180517bffffffffffffffffffffffffffffffffffffffffffffffffffffffff838183161783525050505061150f565b6118ff848261150f565b5b50505050565b6000806000806020600086516020880160008a5af192503d9150600051905082801561195b57506000821461193e576001811461195a565b60008673ffffffffffffffffffffffffffffffffffffffff163b115b5b935050505092915050565b600080fd5b600080fd5b600073ffffffffffffffffffffffffffffffffffffffff82169050919050565b600061199b82611970565b9050919050565b6119ab81611990565b81146119b657600080fd5b50565b6000813590506119c8816119a2565b92915050565b6000602082840312156119e4576119e3611966565b5b60006119f2848285016119b9565b91505092915050565b60007fffffffff0000000000000000000000000000000000000000000000000000000082169050919050565b611a30816119fb565b8114611a3b57600080fd5b50565b600081359050611a4d81611a27565b92915050565b600060208284031215611a6957611a68611966565b5b6000611a7784828501611a3e565b91505092915050565b60008115159050919050565b611a9581611a80565b82525050565b6000602082019050611ab06000830184611a8c565b92915050565b6000819050919050565b611ac981611ab6565b82525050565b6000602082019050611ae46000830184611ac0565b92915050565b611af381611ab6565b8114611afe57600080fd5b50565b600081359050611b1081611aea565b92915050565b600060208284031215611b2c57611b2b611966565b5b6000611b3a84828501611b01565b91505092915050565b60008060408385031215611b5a57611b59611966565b5b6000611b6885828601611b01565b9250506020611b79858286016119b9565b9150509250929050565b600080fd5b60006101808284031215611b9f57611b9e611b83565b5b81905092915050565b600060208284031215611bbe57611bbd611966565b5b600082013567ffffffffffffffff811115611bdc57611bdb61196b565b5b611be884828501611b88565b91505092915050565b611bfa81611990565b82525050565b6000602082019050611c156000830184611bf1565b92915050565b6000819050919050565b611c2e81611c1b565b8114611c3957600080fd5b50565b600081519050611c4b81611c25565b92915050565b600060208284031215611c6757611c66611966565b5b6000611c7584828501611c3c565b91505092915050565b600082825260208201905092915050565b7f4e6f7420612077686974656c6973746564206c697175696461746f7200000000600082015250565b6000611cc5601c83611c7e565b9150611cd082611c8f565b602082019050919050565b60006020820190508181036000830152611cf481611cb8565b9050919050565b7f496e76616c6964204c656e64696e67506f6f6c20616464726573730000000000600082015250565b6000611d31601b83611c7e565b9150611d3c82611cfb565b602082019050919050565b60006020820190508181036000830152611d6081611d24565b9050919050565b7f496e76616c696420726f75746572206164647265737300000000000000000000600082015250565b6000611d9d601683611c7e565b9150611da882611d67565b602082019050919050565b60006020820190508181036000830152611dcc81611d90565b9050919050565b7f496e76616c69642071756f746572206164647265737300000000000000000000600082015250565b6000611e09601683611c7e565b9150611e1482611dd3565b602082019050919050565b60006020820190508181036000830152611e3881611dfc565b9050919050565b7f496e76616c696420636f6c6c61746572616c0000000000000000000000000000600082015250565b6000611e75601283611c7e565b9150611e8082611e3f565b602082019050919050565b60006020820190508181036000830152611ea481611e68565b9050919050565b7f496e76616c696420646562742061737365740000000000000000000000000000600082015250565b6000611ee1601283611c7e565b9150611eec82611eab565b602082019050919050565b60006020820190508181036000830152611f1081611ed4565b9050919050565b7f496e76616c696420746172676574000000000000000000000000000000000000600082015250565b6000611f4d600e83611c7e565b9150611f5882611f17565b602082019050919050565b60006020820190508181036000830152611f7c81611f40565b9050919050565b7f536c69707061676520746f6f2068696768000000000000000000000000000000600082015250565b6000611fb9601183611c7e565b9150611fc482611f83565b602082019050919050565b60006020820190508181036000830152611fe881611fac565b9050919050565b611ff881611c1b565b82525050565b6000819050919050565b6000819050919050565b600061202d61202861202384611ffe565b612008565b611c1b565b9050919050565b61203d81612012565b82525050565b6000819050919050565b600061ffff82169050919050565b600061207661207161206c84612043565b612008565b61204d565b9050919050565b6120868161205b565b82525050565b600060a0820190506120a16000830188611bf1565b6120ae6020830187611fef565b6120bb6040830186612034565b6120c8606083018561207d565b6120d56080830184611bf1565b9695505050505050565b600080fd5b600080fd5b600080fd5b6000808335600160200384360303811261210b5761210a6120df565b5b80840192508235915067ffffffffffffffff82111561212d5761212c6120e4565b5b602083019250600182023603831315612149576121486120e9565b5b509250929050565b7f496e73756666696369656e742072657061796d656e7420616d6f756e74000000600082015250565b6000612187601d83611c7e565b915061219282612151565b602082019050919050565b600060208201905081810360008301526121b68161217a565b9050919050565b60006060820190506121d26000830186611bf1565b6121df6020830185611bf1565b6121ec6040830184611fef565b949350505050565b60006040820190506122096000830185611bf1565b6122166020830184611fef565b9392505050565b600060a0820190506122326000830188611bf1565b61223f6020830187611bf1565b61224c6040830186611bf1565b6122596060830185611fef565b6122666080830184611a8c565b9695505050505050565b60006080820190506122856000830187611bf1565b6122926020830186611fef565b61229f6040830185612034565b6122ac6060830184611bf1565b95945050505050565b60006080820190506122ca6000830187611bf1565b6122d76020830186611fef565b6122e46040830185611bf1565b6122f1606083018461207d565b95945050505050565b600060408201905061230f6000830185611bf1565b61231c6020830184611ac0565b9392505050565b600081519050919050565b600082825260208201905092915050565b60005b8381101561235d578082015181840152602081019050612342565b60008484015250505050565b6000601f19601f8301169050919050565b600061238582612323565b61238f818561232e565b935061239f81856020860161233f565b6123a881612369565b840191505092915050565b600060408201905081810360008301526123cd818561237a565b90506123dc6020830184611fef565b9392505050565b7f4e487b7100000000000000000000000000000000000000000000000000000000600052601160045260246000fd5b600061241d82611c1b565b915061242883611c1b565b92508282039050818111156124405761243f6123e3565b5b92915050565b600061245182611c1b565b915061245c83611c1b565b925082820261246a81611c1b565b91508282048414831517612481576124806123e3565b5b5092915050565b7f4e487b7100000000000000000000000000000000000000000000000000000000600052601260045260246000fd5b60006124c282611c1b565b91506124cd83611c1b565b9250826124dd576124dc612488565b5b828204905092915050565b600082825260208201905092915050565b600061250482612323565b61250e81856124e8565b935061251e81856020860161233f565b61252781612369565b840191505092915050565b61253b81611990565b82525050565b61254a81611c1b565b82525050565b600060a083016000830151848203600086015261256d82826124f9565b91505060208301516125826020860182612532565b5060408301516125956040860182612541565b5060608301516125a86060860182612541565b5060808301516125bb6080860182612541565b508091505092915050565b600060208201905081810360008301526125e08184612550565b905092915050565b60006040820190506125fd6000830185611bf1565b61260a6020830184611bf1565b9392505050565b600061261c82611c1b565b915061262783611c1b565b925082820190508082111561263f5761263e6123e3565b5b92915050565b600061266061265b61265684612043565b612008565b611c1b565b9050919050565b61267081612645565b82525050565b600060408201905061268b6000830185611bf1565b6126986020830184612667565b939250505056fea2646970667358221220e666bffdaa91b40a00c11e9a0c73d1c81b8d9aef8cb8a6bb6ad3f31bf7ad1f9f64736f6c63430008180033",
  "linkReferences": {},
  "deployedLinkReferences": {}
}