{
  "_format": "hh-sol-artifact-1",
  "contractName": "ChefIncentivesController",
  "sourceName": "contracts/staking/ChefIncentivesController.sol",
  "abi": [
    {
      "inputs": [
        {
          "internalType": "address",
          "name": "_poolConfigurator",
          "type": "address"
        },
        {
          "internalType": "contract IMultiFeeDistribution",
          "name": "_rewardMinter",
          "type": "address"
        },
        {
          "internalType": "address",
          "name": "_oftToken",
          "type": "address"
        },
        {
          "internalType": "uint256",
          "name": "_initialAPR",
          "type": "uint256"
        }
      ],
      "stateMutability": "nonpayable",
      "type": "constructor"
    },
    {
      "anonymous": false,
      "inputs": [
        {
          "indexed": false,
          "internalType": "uint256",
          "name": "newAPR",
          "type": "uint256"
        }
      ],
      "name": "APRUpdated",
      "type": "event"
    },
    {
      "anonymous": false,
      "inputs": [
        {
          "indexed": true,
          "internalType": "address",
          "name": "token",
          "type": "address"
        },
        {
          "indexed": true,
          "internalType": "address",
          "name": "user",
          "type": "address"
        },
        {
          "indexed": false,
          "internalType": "uint256",
          "name": "balance",
          "type": "uint256"
        },
        {
          "indexed": false,
          "internalType": "uint256",
          "name": "totalSupply",
          "type": "uint256"
        }
      ],
      "name": "BalanceUpdated",
      "type": "event"
    },
    {
      "anonymous": false,
      "inputs": [
        {
          "indexed": true,
          "internalType": "address",
          "name": "previousOwner",
          "type": "address"
        },
        {
          "indexed": true,
          "internalType": "address",
          "name": "newOwner",
          "type": "address"
        }
      ],
      "name": "OwnershipTransferred",
      "type": "event"
    },
    {
      "anonymous": false,
      "inputs": [
        {
          "indexed": false,
          "internalType": "uint256",
          "name": "newRewardsPerSecond",
          "type": "uint256"
        }
      ],
      "name": "RewardsPerSecondUpdated",
      "type": "event"
    },
    {
      "inputs": [
        {
          "internalType": "address",
          "name": "_token",
          "type": "address"
        },
        {
          "internalType": "uint256",
          "name": "_allocPoint",
          "type": "uint256"
        }
      ],
      "name": "addPool",
      "outputs": [],
      "stateMutability": "nonpayable",
      "type": "function"
    },
    {
      "inputs": [],
      "name": "apr",
      "outputs": [
        {
          "internalType": "uint256",
          "name": "",
          "type": "uint256"
        }
      ],
      "stateMutability": "view",
      "type": "function"
    },
    {
      "inputs": [
        {
          "internalType": "address[]",
          "name": "_tokens",
          "type": "address[]"
        },
        {
          "internalType": "uint256[]",
          "name": "_allocPoints",
          "type": "uint256[]"
        }
      ],
      "name": "batchUpdateAllocPoint",
      "outputs": [],
      "stateMutability": "nonpayable",
      "type": "function"
    },
    {
      "inputs": [
        {
          "internalType": "address",
          "name": "_user",
          "type": "address"
        },
        {
          "internalType": "address[]",
          "name": "_tokens",
          "type": "address[]"
        }
      ],
      "name": "claim",
      "outputs": [],
      "stateMutability": "nonpayable",
      "type": "function"
    },
    {
      "inputs": [
        {
          "internalType": "address",
          "name": "",
          "type": "address"
        }
      ],
      "name": "claimReceiver",
      "outputs": [
        {
          "internalType": "address",
          "name": "",
          "type": "address"
        }
      ],
      "stateMutability": "view",
      "type": "function"
    },
    {
      "inputs": [
        {
          "internalType": "address",
          "name": "_user",
          "type": "address"
        },
        {
          "internalType": "address[]",
          "name": "_tokens",
          "type": "address[]"
        }
      ],
      "name": "claimableReward",
      "outputs": [
        {
          "internalType": "uint256[]",
          "name": "",
          "type": "uint256[]"
        }
      ],
      "stateMutability": "view",
      "type": "function"
    },
    {
      "inputs": [
        {
          "internalType": "address",
          "name": "_user",
          "type": "address"
        },
        {
          "internalType": "uint256",
          "name": "_balance",
          "type": "uint256"
        },
        {
          "internalType": "uint256",
          "name": "_totalSupply",
          "type": "uint256"
        }
      ],
      "name": "handleAction",
      "outputs": [],
      "stateMutability": "nonpayable",
      "type": "function"
    },
    {
      "inputs": [],
      "name": "mintedTokens",
      "outputs": [
        {
          "internalType": "uint256",
          "name": "",
          "type": "uint256"
        }
      ],
      "stateMutability": "view",
      "type": "function"
    },
    {
      "inputs": [],
      "name": "oftToken",
      "outputs": [
        {
          "internalType": "contract IJoltOFT",
          "name": "",
          "type": "address"
        }
      ],
      "stateMutability": "view",
      "type": "function"
    },
    {
      "inputs": [],
      "name": "owner",
      "outputs": [
        {
          "internalType": "address",
          "name": "",
          "type": "address"
        }
      ],
      "stateMutability": "view",
      "type": "function"
    },
    {
      "inputs": [],
      "name": "poolConfigurator",
      "outputs": [
        {
          "internalType": "address",
          "name": "",
          "type": "address"
        }
      ],
      "stateMutability": "view",
      "type": "function"
    },
    {
      "inputs": [
        {
          "internalType": "address",
          "name": "",
          "type": "address"
        }
      ],
      "name": "poolInfo",
      "outputs": [
        {
          "internalType": "uint256",
          "name": "totalSupply",
          "type": "uint256"
        },
        {
          "internalType": "uint256",
          "name": "allocPoint",
          "type": "uint256"
        },
        {
          "internalType": "uint256",
          "name": "lastRewardTime",
          "type": "uint256"
        },
        {
          "internalType": "uint256",
          "name": "accRewardPerShare",
          "type": "uint256"
        },
        {
          "internalType": "contract IOnwardIncentivesController",
          "name": "onwardIncentives",
          "type": "address"
        }
      ],
      "stateMutability": "view",
      "type": "function"
    },
    {
      "inputs": [],
      "name": "poolLength",
      "outputs": [
        {
          "internalType": "uint256",
          "name": "",
          "type": "uint256"
        }
      ],
      "stateMutability": "view",
      "type": "function"
    },
    {
      "inputs": [
        {
          "internalType": "uint256",
          "name": "",
          "type": "uint256"
        }
      ],
      "name": "registeredTokens",
      "outputs": [
        {
          "internalType": "address",
          "name": "",
          "type": "address"
        }
      ],
      "stateMutability": "view",
      "type": "function"
    },
    {
      "inputs": [],
      "name": "renounceOwnership",
      "outputs": [],
      "stateMutability": "nonpayable",
      "type": "function"
    },
    {
      "inputs": [],
      "name": "rewardMinter",
      "outputs": [
        {
          "internalType": "contract IMultiFeeDistribution",
          "name": "",
          "type": "address"
        }
      ],
      "stateMutability": "view",
      "type": "function"
    },
    {
      "inputs": [],
      "name": "rewardsPerSecond",
      "outputs": [
        {
          "internalType": "uint256",
          "name": "",
          "type": "uint256"
        }
      ],
      "stateMutability": "view",
      "type": "function"
    },
    {
      "inputs": [
        {
          "internalType": "uint256",
          "name": "_newAPR",
          "type": "uint256"
        }
      ],
      "name": "setAPR",
      "outputs": [],
      "stateMutability": "nonpayable",
      "type": "function"
    },
    {
      "inputs": [
        {
          "internalType": "address",
          "name": "_user",
          "type": "address"
        },
        {
          "internalType": "address",
          "name": "_receiver",
          "type": "address"
        }
      ],
      "name": "setClaimReceiver",
      "outputs": [],
      "stateMutability": "nonpayable",
      "type": "function"
    },
    {
      "inputs": [
        {
          "internalType": "address",
          "name": "_token",
          "type": "address"
        },
        {
          "internalType": "contract IOnwardIncentivesController",
          "name": "_incentives",
          "type": "address"
        }
      ],
      "name": "setOnwardIncentives",
      "outputs": [],
      "stateMutability": "nonpayable",
      "type": "function"
    },
    {
      "inputs": [
        {
          "internalType": "uint256",
          "name": "_rewardsPerSecond",
          "type": "uint256"
        }
      ],
      "name": "setRewardsPerSecond",
      "outputs": [],
      "stateMutability": "nonpayable",
      "type": "function"
    },
    {
      "inputs": [],
      "name": "start",
      "outputs": [],
      "stateMutability": "nonpayable",
      "type": "function"
    },
    {
      "inputs": [],
      "name": "startTime",
      "outputs": [
        {
          "internalType": "uint256",
          "name": "",
          "type": "uint256"
        }
      ],
      "stateMutability": "view",
      "type": "function"
    },
    {
      "inputs": [],
      "name": "totalAllocPoint",
      "outputs": [
        {
          "internalType": "uint256",
          "name": "",
          "type": "uint256"
        }
      ],
      "stateMutability": "view",
      "type": "function"
    },
    {
      "inputs": [
        {
          "internalType": "address",
          "name": "newOwner",
          "type": "address"
        }
      ],
      "name": "transferOwnership",
      "outputs": [],
      "stateMutability": "nonpayable",
      "type": "function"
    },
    {
      "inputs": [],
      "name": "updateRewardsPerSecond",
      "outputs": [],
      "stateMutability": "nonpayable",
      "type": "function"
    },
    {
      "inputs": [
        {
          "internalType": "address",
          "name": "",
          "type": "address"
        }
      ],
      "name": "userBaseClaimable",
      "outputs": [
        {
          "internalType": "uint256",
          "name": "",
          "type": "uint256"
        }
      ],
      "stateMutability": "view",
      "type": "function"
    },
    {
      "inputs": [
        {
          "internalType": "address",
          "name": "",
          "type": "address"
        },
        {
          "internalType": "address",
          "name": "",
          "type": "address"
        }
      ],
      "name": "userInfo",
      "outputs": [
        {
          "internalType": "uint256",
          "name": "amount",
          "type": "uint256"
        },
        {
          "internalType": "uint256",
          "name": "rewardDebt",
          "type": "uint256"
        }
      ],
      "stateMutability": "view",
      "type": "function"
    }
  ],
  "bytecode": "0x60806040526000600b553480156200001657600080fd5b5060405162001db538038062001db5833981810160405260808110156200003c57600080fd5b508051602082015160408301516060909301519192909160006200005f6200015b565b600080546001600160a01b0319166001600160a01b0383169081178255604051929350917f8be0079c531659141344cd1fd0a4f28419497f9722a3daafe3b4186f6b6457e0908290a3506001600160a01b03821662000105576040805162461bcd60e51b815260206004820152601960248201527f496e76616c6964204f465420746f6b656e206164647265737300000000000000604482015290519081900360640190fd5b600380546001600160a01b038085166001600160a01b0319928316179092556001839055600480548784169083161790556005805492861692909116919091179055620001516200015f565b50505050620004b4565b3390565b600354604080516318160ddd60e01b815290516000926001600160a01b0316916318160ddd916004808301926020929190829003018186803b158015620001a557600080fd5b505afa158015620001ba573d6000803e3d6000fd5b505050506040513d6020811015620001d157600080fd5b5051600c54909150620001f5906301e1338062000301602090811b620012e417901c565b4211156200027d57600360009054906101000a90046001600160a01b03166001600160a01b0316639358928b6040518163ffffffff1660e01b815260040160206040518083038186803b1580156200024c57600080fd5b505afa15801562000261573d6000803e3d6000fd5b505050506040513d60208110156200027857600080fd5b505190505b620002c76301e1338063ffffffff16620002b361271061ffff16620002b3600154866200036560201b620013471790919060201c565b620003c360201b620013a01790919060201c565b600281905560408051918252517ffd301ea009c64d5832f2d8f8d8f632dda101449dd7bab7e219a7d4fe924f190a9181900360200190a150565b6000828201838110156200035c576040805162461bcd60e51b815260206004820152601b60248201527f536166654d6174683a206164646974696f6e206f766572666c6f770000000000604482015290519081900360640190fd5b90505b92915050565b60008262000376575060006200035f565b828202828482816200038457fe5b04146200035c5760405162461bcd60e51b815260040180806020018281038252602181526020018062001d946021913960400191505060405180910390fd5b60006200035c83836040518060400160405280601a81526020017f536166654d6174683a206469766973696f6e206279207a65726f0000000000008152506200040d60201b60201c565b600081836200049d5760405162461bcd60e51b81526004018080602001828103825283818151815260200191508051906020019080838360005b838110156200046157818101518382015260200162000447565b50505050905090810190601f1680156200048f5780820380516001836020036101000a031916815260200191505b509250505060405180910390fd5b506000838581620004aa57fe5b0495945050505050565b6118d080620004c46000396000f3fe608060405234801561001057600080fd5b50600436106101c35760003560e01c80638e2eba09116100f9578063cbeb09aa11610097578063e20c5a8a11610071578063e20c5a8a1461056c578063e5b5349814610592578063eacdaabc14610660578063f2fde38b14610668576101c3565b8063cbeb09aa14610519578063cd1a4d8614610536578063de7e410c14610564576101c3565b80639b8e5563116100d35780639b8e5563146104db578063b2abb70f146104e3578063be9a6555146104eb578063bfccff45146104f3576101c3565b80638e2eba09146103e65780639a0ba2ea146104645780639a7b5f1114610481576101c3565b806334c542301161016657806378e979251161014057806378e9792514610395578063854303cf1461039d5780638d75fe05146103ba5780638da5cb5b146103c2576101c3565b806334c54230146102c757806357ded9c914610385578063715018a61461038d576101c3565b806317caf6f1116101a257806317caf6f11461023357806331873e2e1461023b57806332a9caba1461026d5780633328756414610299576101c3565b8062cc3a99146101c8578063081e3eda146101d25780630f208beb146101ec575b600080fd5b6101d061068e565b005b6101da6106f0565b60408051918252519081900360200190f35b61021a6004803603604081101561020257600080fd5b506001600160a01b03813581169160200135166106f6565b6040805192835260208301919091528051918290030190f35b6101da61071a565b6101d06004803603606081101561025157600080fd5b506001600160a01b038135169060208101359060400135610720565b6101d06004803603604081101561028357600080fd5b506001600160a01b0381351690602001356108eb565b6101d0600480360360408110156102af57600080fd5b506001600160a01b03813581169160200135166109f2565b6101d0600480360360408110156102dd57600080fd5b810190602081018135600160201b8111156102f757600080fd5b82018360208201111561030957600080fd5b803590602001918460208302840111600160201b8311171561032a57600080fd5b919390929091602081019035600160201b81111561034757600080fd5b82018360208201111561035957600080fd5b803590602001918460208302840111600160201b8311171561037a57600080fd5b509092509050610a58565b6101da610b87565b6101d0610b8d565b6101da610c2f565b6101d0600480360360208110156103b357600080fd5b5035610c35565b6101da610cd8565b6103ca610cde565b604080516001600160a01b039092168252519081900360200190f35b6101d0600480360360408110156103fc57600080fd5b6001600160a01b038235169190810190604081016020820135600160201b81111561042657600080fd5b82018360208201111561043857600080fd5b803590602001918460208302840111600160201b8311171561045957600080fd5b509092509050610ced565b6103ca6004803603602081101561047a57600080fd5b5035610e2d565b6104a76004803603602081101561049757600080fd5b50356001600160a01b0316610e57565b6040805195865260208601949094528484019290925260608401526001600160a01b03166080830152519081900360a00190f35b6103ca610e8f565b6103ca610e9e565b6101d0610ead565b6101da6004803603602081101561050957600080fd5b50356001600160a01b0316610f18565b6101d06004803603602081101561052f57600080fd5b5035610f2a565b6101d06004803603604081101561054c57600080fd5b506001600160a01b0381358116916020013516610f8f565b6103ca61103d565b6103ca6004803603602081101561058257600080fd5b50356001600160a01b031661104c565b610610600480360360408110156105a857600080fd5b6001600160a01b038235169190810190604081016020820135600160201b8111156105d257600080fd5b8201836020820111156105e457600080fd5b803590602001918460208302840111600160201b8311171561060557600080fd5b509092509050611067565b60408051602080825283518183015283519192839290830191858101910280838360005b8381101561064c578181015183820152602001610634565b505050509050019250505060405180910390f35b6101da6111e6565b6101d06004803603602081101561067e57600080fd5b50356001600160a01b03166111ec565b6106966113e2565b6000546001600160a01b039081169116146106e6576040805162461bcd60e51b8152602060048201819052602482015260008051602061187b833981519152604482015290519081900360640190fd5b6106ee6113e6565b565b60075490565b60096020908152600092835260408084209091529082529020805460019091015482565b600b5481565b336000908152600860205260409020600281015461073d57600080fd5b61074981600b54611547565b3360009081526009602090815260408083206001600160a01b038816845290915290208054600383015481156107eb5760018301546000906107a49061079e64e8d4a510006107988787611347565b906113a0565b906115de565b905080156107e9576001600160a01b0388166000908152600a60205260409020546107cf90826112e4565b6001600160a01b0389166000908152600a60205260409020555b505b85835561080164e8d4a510006107988884611347565b600184015584845560048401546001600160a01b03161561089a576004808501546040805163ae0b537160e01b815233938101939093526001600160a01b038a81166024850152604484018a905260648401899052905191169163ae0b537191608480830192600092919082900301818387803b15801561088157600080fd5b505af1158015610895573d6000803e3d6000fd5b505050505b604080518781526020810187905281516001600160a01b038a169233927f526824944047da5b81071fb6349412005c5da81380b336103fbe5dd34556c776929081900390910190a350505050505050565b6004546001600160a01b0316331461090257600080fd5b6001600160a01b0382166000908152600860205260409020600201541561092857600080fd5b610930611620565b600b5461093d90826112e4565b600b556007805460018181019092557fa66cc928b5edb82af9bd49922954155ab7b0942694bea4ce44661d9a8736c6880180546001600160a01b039485166001600160a01b031991821681179092556040805160a081018252600080825260208281019788524283850190815260608401838152608085018481529784526008909252939091209151825595519481019490945551600284015592516003830155516004919091018054919093169116179055565b336001600160a01b0383161480610a215750610a0c610cde565b6001600160a01b0316336001600160a01b0316145b610a2a57600080fd5b6001600160a01b039182166000908152600d6020526040902080546001600160a01b03191691909216179055565b610a606113e2565b6000546001600160a01b03908116911614610ab0576040805162461bcd60e51b8152602060048201819052602482015260008051602061187b833981519152604482015290519081900360640190fd5b828114610abc57600080fd5b610ac4611620565b600b5460005b84811015610b7d57600060086000888885818110610ae457fe5b905060200201356001600160a01b03166001600160a01b03166001600160a01b0316815260200190815260200160002090506000816002015411610b2757600080fd5b610b5a858584818110610b3657fe5b90506020020135610b548360010154866115de90919063ffffffff16565b906112e4565b9250848483818110610b6857fe5b60200291909101356001928301555001610aca565b50600b5550505050565b60015481565b610b956113e2565b6000546001600160a01b03908116911614610be5576040805162461bcd60e51b8152602060048201819052602482015260008051602061187b833981519152604482015290519081900360640190fd5b600080546040516001600160a01b03909116907f8be0079c531659141344cd1fd0a4f28419497f9722a3daafe3b4186f6b6457e0908390a3600080546001600160a01b0319169055565b600c5481565b610c3d6113e2565b6000546001600160a01b03908116911614610c8d576040805162461bcd60e51b8152602060048201819052602482015260008051602061187b833981519152604482015290519081900360640190fd5b60018190556040805182815290517f2ec8ccb96042321f3bbdd56e8e4e4339bc07c9c2021e14e18ef12f5db282b37a9181900360200190a1610ccd611620565b610cd56113e6565b50565b60065481565b6000546001600160a01b031690565b610cf5611620565b6001600160a01b0383166000908152600a60205260408120805490829055600b5490915b83811015610e1b57600060086000878785818110610d3357fe5b905060200201356001600160a01b03166001600160a01b03166001600160a01b0316815260200190815260200160002090506000816002015411610d7657600080fd5b610d808184611547565b600060096000888886818110610d9257fe5b6001600160a01b036020918202939093013583168452838101949094525060409182016000908120918c1681529252812060038401548154919350610de29164e8d4a51000916107989190611347565b9050610e05610dfe8360010154836115de90919063ffffffff16565b87906112e4565b6001928301919091559450919091019050610d19565b50610e26858361167c565b5050505050565b60078181548110610e3d57600080fd5b6000918252602090912001546001600160a01b0316905081565b60086020526000908152604090208054600182015460028301546003840154600490940154929391929091906001600160a01b031685565b6005546001600160a01b031681565b6003546001600160a01b031681565b610eb56113e2565b6000546001600160a01b03908116911614610f05576040805162461bcd60e51b8152602060048201819052602482015260008051602061187b833981519152604482015290519081900360640190fd5b600c5415610f1257600080fd5b42600c55565b600a6020526000908152604090205481565b610f326113e2565b6000546001600160a01b03908116911614610f82576040805162461bcd60e51b8152602060048201819052602482015260008051602061187b833981519152604482015290519081900360640190fd5b610f8a611620565b600255565b610f976113e2565b6000546001600160a01b03908116911614610fe7576040805162461bcd60e51b8152602060048201819052602482015260008051602061187b833981519152604482015290519081900360640190fd5b6001600160a01b03821660009081526008602052604090206002015461100c57600080fd5b6001600160a01b03918216600090815260086020526040902060040180546001600160a01b03191691909216179055565b6004546001600160a01b031681565b600d602052600090815260409020546001600160a01b031681565b606060008267ffffffffffffffff8111801561108257600080fd5b506040519080825280602002602001820160405280156110ac578160200160208202803683370190505b50905060005b838110156111dd5760008585838181106110c857fe5b6001600160a01b03602091820293909301358316600081815260088352604080822060098552818320968e1683529590935291909120600384015484546002860154939650919350914211801561111e57508015155b1561118d57600061113c8560020154426115de90919063ffffffff16565b90506000611169600b5461079888600101546111636002548761134790919063ffffffff16565b90611347565b9050611188611181846107988464e8d4a51000611347565b85906112e4565b935050505b6111b5836001015461079e64e8d4a5100061079886886000015461134790919063ffffffff16565b8787815181106111c157fe5b60209081029190910101525050600190930192506110b2915050565b50949350505050565b60025481565b6111f46113e2565b6000546001600160a01b03908116911614611244576040805162461bcd60e51b8152602060048201819052602482015260008051602061187b833981519152604482015290519081900360640190fd5b6001600160a01b0381166112895760405162461bcd60e51b81526004018080602001828103825260268152602001806118346026913960400191505060405180910390fd5b600080546040516001600160a01b03808516939216917f8be0079c531659141344cd1fd0a4f28419497f9722a3daafe3b4186f6b6457e091a3600080546001600160a01b0319166001600160a01b0392909216919091179055565b60008282018381101561133e576040805162461bcd60e51b815260206004820152601b60248201527f536166654d6174683a206164646974696f6e206f766572666c6f770000000000604482015290519081900360640190fd5b90505b92915050565b60008261135657506000611341565b8282028284828161136357fe5b041461133e5760405162461bcd60e51b815260040180806020018281038252602181526020018061185a6021913960400191505060405180910390fd5b600061133e83836040518060400160405280601a81526020017f536166654d6174683a206469766973696f6e206279207a65726f000000000000815250611737565b3390565b600354604080516318160ddd60e01b815290516000926001600160a01b0316916318160ddd916004808301926020929190829003018186803b15801561142b57600080fd5b505afa15801561143f573d6000803e3d6000fd5b505050506040513d602081101561145557600080fd5b5051600c5490915061146b906301e133806112e4565b4211156114ef57600360009054906101000a90046001600160a01b03166001600160a01b0316639358928b6040518163ffffffff1660e01b815260040160206040518083038186803b1580156114c057600080fd5b505afa1580156114d4573d6000803e3d6000fd5b505050506040513d60208110156114ea57600080fd5b505190505b60015461150d906301e1338090610798906127109082908690611347565b600281905560408051918252517ffd301ea009c64d5832f2d8f8d8f632dda101449dd7bab7e219a7d4fe924f190a9181900360200190a150565b81600201544211611557576115da565b81548061156a57504260028301556115da565b60006115838460020154426115de90919063ffffffff16565b905060006115a88461079887600101546111636002548761134790919063ffffffff16565b90506115cb6115c0846107988464e8d4a51000611347565b6003870154906112e4565b60038601555050426002840155505b5050565b600061133e83836040518060400160405280601e81526020017f536166654d6174683a207375627472616374696f6e206f766572666c6f7700008152506117d9565b600b5460075460005b818110156116775761166f600860006007848154811061164557fe5b60009182526020808320909101546001600160a01b03168352820192909252604001902084611547565b600101611629565b505050565b60065481156116775761168f81836112e4565b6006556001600160a01b038084166000908152600d602052604090205416806116b55750825b600554604080516334686fad60e21b81526001600160a01b03848116600483015260248201879052600160448301529151919092169163d1a1beb491606480830192600092919082900301818387803b15801561171157600080fd5b505af1158015611725573d6000803e3d6000fd5b505050506117316113e6565b50505050565b600081836117c35760405162461bcd60e51b81526004018080602001828103825283818151815260200191508051906020019080838360005b83811015611788578181015183820152602001611770565b50505050905090810190601f1680156117b55780820380516001836020036101000a031916815260200191505b509250505060405180910390fd5b5060008385816117cf57fe5b0495945050505050565b6000818484111561182b5760405162461bcd60e51b8152602060048201818152835160248401528351909283926044909101919085019080838360008315611788578181015183820152602001611770565b50505090039056fe4f776e61626c653a206e6577206f776e657220697320746865207a65726f2061646472657373536166654d6174683a206d756c7469706c69636174696f6e206f766572666c6f774f776e61626c653a2063616c6c6572206973206e6f7420746865206f776e6572a26469706673582212205cd0e182d80fb80efd737644de2b77ebca4d1293ac7e1c48abe963c957fe33b164736f6c63430007060033536166654d6174683a206d756c7469706c69636174696f6e206f766572666c6f77",
  "linkReferences": {},
  "deployedLinkReferences": {}
}