{
  "_format": "hh-sol-artifact-1",
  "contractName": "ChefIncentivesController",
  "sourceName": "contracts/staking/ChefIncentivesController.sol",
  "abi": [
    {
      "inputs": [
        {
          "internalType": "address",
          "name": "_poolConfigurator",
          "type": "address"
        },
        {
          "internalType": "contract IMultiFeeDistribution",
          "name": "_rewardMinter",
          "type": "address"
        },
        {
          "internalType": "address",
          "name": "_oftToken",
          "type": "address"
        },
        {
          "internalType": "uint16",
          "name": "_initialAPR",
          "type": "uint16"
        }
      ],
      "stateMutability": "nonpayable",
      "type": "constructor"
    },
    {
      "anonymous": false,
      "inputs": [
        {
          "indexed": false,
          "internalType": "uint16",
          "name": "newAPR",
          "type": "uint16"
        }
      ],
      "name": "APRUpdated",
      "type": "event"
    },
    {
      "anonymous": false,
      "inputs": [
        {
          "indexed": true,
          "internalType": "address",
          "name": "token",
          "type": "address"
        },
        {
          "indexed": true,
          "internalType": "address",
          "name": "user",
          "type": "address"
        },
        {
          "indexed": false,
          "internalType": "uint256",
          "name": "balance",
          "type": "uint256"
        },
        {
          "indexed": false,
          "internalType": "uint256",
          "name": "totalSupply",
          "type": "uint256"
        }
      ],
      "name": "BalanceUpdated",
      "type": "event"
    },
    {
      "anonymous": false,
      "inputs": [
        {
          "indexed": true,
          "internalType": "address",
          "name": "previousOwner",
          "type": "address"
        },
        {
          "indexed": true,
          "internalType": "address",
          "name": "newOwner",
          "type": "address"
        }
      ],
      "name": "OwnershipTransferred",
      "type": "event"
    },
    {
      "anonymous": false,
      "inputs": [
        {
          "indexed": false,
          "internalType": "uint256",
          "name": "newRewardsPerSecond",
          "type": "uint256"
        }
      ],
      "name": "RewardsPerSecondUpdated",
      "type": "event"
    },
    {
      "inputs": [
        {
          "internalType": "address",
          "name": "_token",
          "type": "address"
        },
        {
          "internalType": "uint256",
          "name": "_allocPoint",
          "type": "uint256"
        }
      ],
      "name": "addPool",
      "outputs": [],
      "stateMutability": "nonpayable",
      "type": "function"
    },
    {
      "inputs": [],
      "name": "apr",
      "outputs": [
        {
          "internalType": "uint16",
          "name": "",
          "type": "uint16"
        }
      ],
      "stateMutability": "view",
      "type": "function"
    },
    {
      "inputs": [
        {
          "internalType": "address[]",
          "name": "_tokens",
          "type": "address[]"
        },
        {
          "internalType": "uint256[]",
          "name": "_allocPoints",
          "type": "uint256[]"
        }
      ],
      "name": "batchUpdateAllocPoint",
      "outputs": [],
      "stateMutability": "nonpayable",
      "type": "function"
    },
    {
      "inputs": [
        {
          "internalType": "address",
          "name": "_user",
          "type": "address"
        },
        {
          "internalType": "address[]",
          "name": "_tokens",
          "type": "address[]"
        }
      ],
      "name": "claim",
      "outputs": [],
      "stateMutability": "nonpayable",
      "type": "function"
    },
    {
      "inputs": [
        {
          "internalType": "address",
          "name": "",
          "type": "address"
        }
      ],
      "name": "claimReceiver",
      "outputs": [
        {
          "internalType": "address",
          "name": "",
          "type": "address"
        }
      ],
      "stateMutability": "view",
      "type": "function"
    },
    {
      "inputs": [
        {
          "internalType": "address",
          "name": "_user",
          "type": "address"
        },
        {
          "internalType": "address[]",
          "name": "_tokens",
          "type": "address[]"
        }
      ],
      "name": "claimableReward",
      "outputs": [
        {
          "internalType": "uint256[]",
          "name": "",
          "type": "uint256[]"
        }
      ],
      "stateMutability": "view",
      "type": "function"
    },
    {
      "inputs": [
        {
          "internalType": "address",
          "name": "_user",
          "type": "address"
        },
        {
          "internalType": "uint256",
          "name": "_balance",
          "type": "uint256"
        },
        {
          "internalType": "uint256",
          "name": "_totalSupply",
          "type": "uint256"
        }
      ],
      "name": "handleAction",
      "outputs": [],
      "stateMutability": "nonpayable",
      "type": "function"
    },
    {
      "inputs": [],
      "name": "mintedTokens",
      "outputs": [
        {
          "internalType": "uint256",
          "name": "",
          "type": "uint256"
        }
      ],
      "stateMutability": "view",
      "type": "function"
    },
    {
      "inputs": [],
      "name": "oftToken",
      "outputs": [
        {
          "internalType": "contract IJoltOFT",
          "name": "",
          "type": "address"
        }
      ],
      "stateMutability": "view",
      "type": "function"
    },
    {
      "inputs": [],
      "name": "owner",
      "outputs": [
        {
          "internalType": "address",
          "name": "",
          "type": "address"
        }
      ],
      "stateMutability": "view",
      "type": "function"
    },
    {
      "inputs": [],
      "name": "poolConfigurator",
      "outputs": [
        {
          "internalType": "address",
          "name": "",
          "type": "address"
        }
      ],
      "stateMutability": "view",
      "type": "function"
    },
    {
      "inputs": [
        {
          "internalType": "address",
          "name": "",
          "type": "address"
        }
      ],
      "name": "poolInfo",
      "outputs": [
        {
          "internalType": "uint256",
          "name": "totalSupply",
          "type": "uint256"
        },
        {
          "internalType": "uint256",
          "name": "allocPoint",
          "type": "uint256"
        },
        {
          "internalType": "uint256",
          "name": "lastRewardTime",
          "type": "uint256"
        },
        {
          "internalType": "uint256",
          "name": "accRewardPerShare",
          "type": "uint256"
        },
        {
          "internalType": "contract IOnwardIncentivesController",
          "name": "onwardIncentives",
          "type": "address"
        }
      ],
      "stateMutability": "view",
      "type": "function"
    },
    {
      "inputs": [],
      "name": "poolLength",
      "outputs": [
        {
          "internalType": "uint256",
          "name": "",
          "type": "uint256"
        }
      ],
      "stateMutability": "view",
      "type": "function"
    },
    {
      "inputs": [
        {
          "internalType": "uint256",
          "name": "",
          "type": "uint256"
        }
      ],
      "name": "registeredTokens",
      "outputs": [
        {
          "internalType": "address",
          "name": "",
          "type": "address"
        }
      ],
      "stateMutability": "view",
      "type": "function"
    },
    {
      "inputs": [],
      "name": "renounceOwnership",
      "outputs": [],
      "stateMutability": "nonpayable",
      "type": "function"
    },
    {
      "inputs": [],
      "name": "rewardMinter",
      "outputs": [
        {
          "internalType": "contract IMultiFeeDistribution",
          "name": "",
          "type": "address"
        }
      ],
      "stateMutability": "view",
      "type": "function"
    },
    {
      "inputs": [],
      "name": "rewardsPerSecond",
      "outputs": [
        {
          "internalType": "uint256",
          "name": "",
          "type": "uint256"
        }
      ],
      "stateMutability": "view",
      "type": "function"
    },
    {
      "inputs": [
        {
          "internalType": "uint16",
          "name": "_newAPR",
          "type": "uint16"
        }
      ],
      "name": "setAPR",
      "outputs": [],
      "stateMutability": "nonpayable",
      "type": "function"
    },
    {
      "inputs": [
        {
          "internalType": "address",
          "name": "_user",
          "type": "address"
        },
        {
          "internalType": "address",
          "name": "_receiver",
          "type": "address"
        }
      ],
      "name": "setClaimReceiver",
      "outputs": [],
      "stateMutability": "nonpayable",
      "type": "function"
    },
    {
      "inputs": [
        {
          "internalType": "address",
          "name": "_token",
          "type": "address"
        },
        {
          "internalType": "contract IOnwardIncentivesController",
          "name": "_incentives",
          "type": "address"
        }
      ],
      "name": "setOnwardIncentives",
      "outputs": [],
      "stateMutability": "nonpayable",
      "type": "function"
    },
    {
      "inputs": [
        {
          "internalType": "uint256",
          "name": "_rewardsPerSecond",
          "type": "uint256"
        }
      ],
      "name": "setRewardsPerSecond",
      "outputs": [],
      "stateMutability": "nonpayable",
      "type": "function"
    },
    {
      "inputs": [],
      "name": "start",
      "outputs": [],
      "stateMutability": "nonpayable",
      "type": "function"
    },
    {
      "inputs": [],
      "name": "startTime",
      "outputs": [
        {
          "internalType": "uint256",
          "name": "",
          "type": "uint256"
        }
      ],
      "stateMutability": "view",
      "type": "function"
    },
    {
      "inputs": [],
      "name": "totalAllocPoint",
      "outputs": [
        {
          "internalType": "uint256",
          "name": "",
          "type": "uint256"
        }
      ],
      "stateMutability": "view",
      "type": "function"
    },
    {
      "inputs": [
        {
          "internalType": "address",
          "name": "newOwner",
          "type": "address"
        }
      ],
      "name": "transferOwnership",
      "outputs": [],
      "stateMutability": "nonpayable",
      "type": "function"
    },
    {
      "inputs": [],
      "name": "updateRewardsPerSecond",
      "outputs": [],
      "stateMutability": "nonpayable",
      "type": "function"
    },
    {
      "inputs": [
        {
          "internalType": "address",
          "name": "",
          "type": "address"
        }
      ],
      "name": "userBaseClaimable",
      "outputs": [
        {
          "internalType": "uint256",
          "name": "",
          "type": "uint256"
        }
      ],
      "stateMutability": "view",
      "type": "function"
    },
    {
      "inputs": [
        {
          "internalType": "address",
          "name": "",
          "type": "address"
        },
        {
          "internalType": "address",
          "name": "",
          "type": "address"
        }
      ],
      "name": "userInfo",
      "outputs": [
        {
          "internalType": "uint256",
          "name": "amount",
          "type": "uint256"
        },
        {
          "internalType": "uint256",
          "name": "rewardDebt",
          "type": "uint256"
        }
      ],
      "stateMutability": "view",
      "type": "function"
    }
  ],
  "bytecode": "0x60806040526000600a553480156200001657600080fd5b5060405162001ec338038062001ec3833981810160405260808110156200003c57600080fd5b508051602082015160408301516060909301519192909160006200005f620001c0565b600080546001600160a01b0319166001600160a01b0383169081178255604051929350917f8be0079c531659141344cd1fd0a4f28419497f9722a3daafe3b4186f6b6457e0908290a3506001600160a01b03821662000105576040805162461bcd60e51b815260206004820152601960248201527f496e76616c6964204f465420746f6b656e206164647265737300000000000000604482015290519081900360640190fd5b61271061ffff8216111562000154576040805162461bcd60e51b815260206004820152601060248201526f4150522065786365656473203130302560801b604482015290519081900360640190fd5b600280546001600160a01b03199081166001600160a01b03858116919091179092556000805461ffff60a01b1916600160a01b61ffff86160217905560038054821687841617905560048054909116918516919091179055620001b6620001c4565b505050506200051c565b3390565b600254604080516318160ddd60e01b815290516000926001600160a01b0316916318160ddd916004808301926020929190829003018186803b1580156200020a57600080fd5b505afa1580156200021f573d6000803e3d6000fd5b505050506040513d60208110156200023657600080fd5b5051600b549091506200025a906301e1338062000369602090811b6200137b17901c565b421115620002e257600260009054906101000a90046001600160a01b03166001600160a01b0316639358928b6040518163ffffffff1660e01b815260040160206040518083038186803b158015620002b157600080fd5b505afa158015620002c6573d6000803e3d6000fd5b505050506040513d6020811015620002dd57600080fd5b505190505b6000546200032f906301e13380906200031b90612710908290869061ffff600160a01b90910416620003cd602090811b620013de17901c565b6200042b60201b620014371790919060201c565b600181905560408051918252517ffd301ea009c64d5832f2d8f8d8f632dda101449dd7bab7e219a7d4fe924f190a9181900360200190a150565b600082820183811015620003c4576040805162461bcd60e51b815260206004820152601b60248201527f536166654d6174683a206164646974696f6e206f766572666c6f770000000000604482015290519081900360640190fd5b90505b92915050565b600082620003de57506000620003c7565b82820282848281620003ec57fe5b0414620003c45760405162461bcd60e51b815260040180806020018281038252602181526020018062001ea26021913960400191505060405180910390fd5b6000620003c483836040518060400160405280601a81526020017f536166654d6174683a206469766973696f6e206279207a65726f0000000000008152506200047560201b60201c565b60008183620005055760405162461bcd60e51b81526004018080602001828103825283818151815260200191508051906020019080838360005b83811015620004c9578181015183820152602001620004af565b50505050905090810190601f168015620004f75780820380516001836020036101000a031916815260200191505b509250505060405180910390fd5b5060008385816200051257fe5b0495945050505050565b611976806200052c6000396000f3fe608060405234801561001057600080fd5b50600436106101c35760003560e01c80638e2eba09116100f9578063cbeb09aa11610097578063e20c5a8a11610071578063e20c5a8a14610587578063e5b53498146105ad578063eacdaabc1461067b578063f2fde38b14610683576101c3565b8063cbeb09aa14610534578063cd1a4d8614610551578063de7e410c1461057f576101c3565b80639b8e5563116100d35780639b8e5563146104f6578063b2abb70f146104fe578063be9a655514610506578063bfccff451461050e576101c3565b80638e2eba09146104015780639a0ba2ea1461047f5780639a7b5f111461049c576101c3565b806334c5423011610166578063715018a611610140578063715018a6146103c557806378e97925146103cd5780638d75fe05146103d55780638da5cb5b146103dd576101c3565b806334c54230146102c757806357ded9c9146103855780636d3a4ac8146103a4576101c3565b806317caf6f1116101a257806317caf6f11461023357806331873e2e1461023b57806332a9caba1461026d5780633328756414610299576101c3565b8062cc3a99146101c8578063081e3eda146101d25780630f208beb146101ec575b600080fd5b6101d06106a9565b005b6101da61070b565b60408051918252519081900360200190f35b61021a6004803603604081101561020257600080fd5b506001600160a01b0381358116916020013516610711565b6040805192835260208301919091528051918290030190f35b6101da610735565b6101d06004803603606081101561025157600080fd5b506001600160a01b03813516906020810135906040013561073b565b6101d06004803603604081101561028357600080fd5b506001600160a01b038135169060200135610906565b6101d0600480360360408110156102af57600080fd5b506001600160a01b0381358116916020013516610a0d565b6101d0600480360360408110156102dd57600080fd5b810190602081018135600160201b8111156102f757600080fd5b82018360208201111561030957600080fd5b803590602001918460208302840111600160201b8311171561032a57600080fd5b919390929091602081019035600160201b81111561034757600080fd5b82018360208201111561035957600080fd5b803590602001918460208302840111600160201b8311171561037a57600080fd5b509092509050610a73565b61038d610ba2565b6040805161ffff9092168252519081900360200190f35b6101d0600480360360208110156103ba57600080fd5b503561ffff16610bb3565b6101d0610cc7565b6101da610d69565b6101da610d6f565b6103e5610d75565b604080516001600160a01b039092168252519081900360200190f35b6101d06004803603604081101561041757600080fd5b6001600160a01b038235169190810190604081016020820135600160201b81111561044157600080fd5b82018360208201111561045357600080fd5b803590602001918460208302840111600160201b8311171561047457600080fd5b509092509050610d84565b6103e56004803603602081101561049557600080fd5b5035610ec4565b6104c2600480360360208110156104b257600080fd5b50356001600160a01b0316610eee565b6040805195865260208601949094528484019290925260608401526001600160a01b03166080830152519081900360a00190f35b6103e5610f26565b6103e5610f35565b6101d0610f44565b6101da6004803603602081101561052457600080fd5b50356001600160a01b0316610faf565b6101d06004803603602081101561054a57600080fd5b5035610fc1565b6101d06004803603604081101561056757600080fd5b506001600160a01b0381358116916020013516611026565b6103e56110d4565b6103e56004803603602081101561059d57600080fd5b50356001600160a01b03166110e3565b61062b600480360360408110156105c357600080fd5b6001600160a01b038235169190810190604081016020820135600160201b8111156105ed57600080fd5b8201836020820111156105ff57600080fd5b803590602001918460208302840111600160201b8311171561062057600080fd5b5090925090506110fe565b60408051602080825283518183015283519192839290830191858101910280838360005b8381101561066757818101518382015260200161064f565b505050509050019250505060405180910390f35b6101da61127d565b6101d06004803603602081101561069957600080fd5b50356001600160a01b0316611283565b6106b1611479565b6000546001600160a01b03908116911614610701576040805162461bcd60e51b81526020600482018190526024820152600080516020611921833981519152604482015290519081900360640190fd5b61070961147d565b565b60065490565b60086020908152600092835260408084209091529082529020805460019091015482565b600a5481565b336000908152600760205260409020600281015461075857600080fd5b61076481600a546115e9565b3360009081526008602090815260408083206001600160a01b038816845290915290208054600383015481156108065760018301546000906107bf906107b964e8d4a510006107b387876113de565b90611437565b90611680565b90508015610804576001600160a01b0388166000908152600960205260409020546107ea908261137b565b6001600160a01b0389166000908152600960205260409020555b505b85835561081c64e8d4a510006107b388846113de565b600184015584845560048401546001600160a01b0316156108b5576004808501546040805163ae0b537160e01b815233938101939093526001600160a01b038a81166024850152604484018a905260648401899052905191169163ae0b537191608480830192600092919082900301818387803b15801561089c57600080fd5b505af11580156108b0573d6000803e3d6000fd5b505050505b604080518781526020810187905281516001600160a01b038a169233927f526824944047da5b81071fb6349412005c5da81380b336103fbe5dd34556c776929081900390910190a350505050505050565b6003546001600160a01b0316331461091d57600080fd5b6001600160a01b0382166000908152600760205260409020600201541561094357600080fd5b61094b6116c2565b600a54610958908261137b565b600a556006805460018181019092557ff652222313e28459528d920b65115c16c04f3efc82aaedc97be59f3f377c0d3f0180546001600160a01b039485166001600160a01b031991821681179092556040805160a081018252600080825260208281019788524283850190815260608401838152608085018481529784526007909252939091209151825595519481019490945551600284015592516003830155516004919091018054919093169116179055565b336001600160a01b0383161480610a3c5750610a27610d75565b6001600160a01b0316336001600160a01b0316145b610a4557600080fd5b6001600160a01b039182166000908152600c6020526040902080546001600160a01b03191691909216179055565b610a7b611479565b6000546001600160a01b03908116911614610acb576040805162461bcd60e51b81526020600482018190526024820152600080516020611921833981519152604482015290519081900360640190fd5b828114610ad757600080fd5b610adf6116c2565b600a5460005b84811015610b9857600060076000888885818110610aff57fe5b905060200201356001600160a01b03166001600160a01b03166001600160a01b0316815260200190815260200160002090506000816002015411610b4257600080fd5b610b75858584818110610b5157fe5b90506020020135610b6f83600101548661168090919063ffffffff16565b9061137b565b9250848483818110610b8357fe5b60200291909101356001928301555001610ae5565b50600a5550505050565b600054600160a01b900461ffff1681565b610bbb611479565b6000546001600160a01b03908116911614610c0b576040805162461bcd60e51b81526020600482018190526024820152600080516020611921833981519152604482015290519081900360640190fd5b61271061ffff82161115610c59576040805162461bcd60e51b815260206004820152601060248201526f4150522065786365656473203130302560801b604482015290519081900360640190fd5b6000805461ffff808416600160a01b90810261ffff60a01b199093169290921792839055604080519290930416815290517f392332aaae112e7f2fbb3fe0eda6f104bec388373a635919a56e93ac4e62a1489181900360200190a1610cbc6116c2565b610cc461147d565b50565b610ccf611479565b6000546001600160a01b03908116911614610d1f576040805162461bcd60e51b81526020600482018190526024820152600080516020611921833981519152604482015290519081900360640190fd5b600080546040516001600160a01b03909116907f8be0079c531659141344cd1fd0a4f28419497f9722a3daafe3b4186f6b6457e0908390a3600080546001600160a01b0319169055565b600b5481565b60055481565b6000546001600160a01b031690565b610d8c6116c2565b6001600160a01b0383166000908152600960205260408120805490829055600a5490915b83811015610eb257600060076000878785818110610dca57fe5b905060200201356001600160a01b03166001600160a01b03166001600160a01b0316815260200190815260200160002090506000816002015411610e0d57600080fd5b610e1781846115e9565b600060086000888886818110610e2957fe5b6001600160a01b036020918202939093013583168452838101949094525060409182016000908120918c1681529252812060038401548154919350610e799164e8d4a51000916107b391906113de565b9050610e9c610e9583600101548361168090919063ffffffff16565b879061137b565b6001928301919091559450919091019050610db0565b50610ebd858361171e565b5050505050565b60068181548110610ed457600080fd5b6000918252602090912001546001600160a01b0316905081565b60076020526000908152604090208054600182015460028301546003840154600490940154929391929091906001600160a01b031685565b6004546001600160a01b031681565b6002546001600160a01b031681565b610f4c611479565b6000546001600160a01b03908116911614610f9c576040805162461bcd60e51b81526020600482018190526024820152600080516020611921833981519152604482015290519081900360640190fd5b600b5415610fa957600080fd5b42600b55565b60096020526000908152604090205481565b610fc9611479565b6000546001600160a01b03908116911614611019576040805162461bcd60e51b81526020600482018190526024820152600080516020611921833981519152604482015290519081900360640190fd5b6110216116c2565b600155565b61102e611479565b6000546001600160a01b0390811691161461107e576040805162461bcd60e51b81526020600482018190526024820152600080516020611921833981519152604482015290519081900360640190fd5b6001600160a01b0382166000908152600760205260409020600201546110a357600080fd5b6001600160a01b03918216600090815260076020526040902060040180546001600160a01b03191691909216179055565b6003546001600160a01b031681565b600c602052600090815260409020546001600160a01b031681565b606060008267ffffffffffffffff8111801561111957600080fd5b50604051908082528060200260200182016040528015611143578160200160208202803683370190505b50905060005b8381101561127457600085858381811061115f57fe5b6001600160a01b03602091820293909301358316600081815260078352604080822060088552818320968e168352959093529190912060038401548454600286015493965091935091421180156111b557508015155b156112245760006111d385600201544261168090919063ffffffff16565b90506000611200600a546107b388600101546111fa600154876113de90919063ffffffff16565b906113de565b905061121f611218846107b38464e8d4a510006113de565b859061137b565b935050505b61124c83600101546107b964e8d4a510006107b38688600001546113de90919063ffffffff16565b87878151811061125857fe5b6020908102919091010152505060019093019250611149915050565b50949350505050565b60015481565b61128b611479565b6000546001600160a01b039081169116146112db576040805162461bcd60e51b81526020600482018190526024820152600080516020611921833981519152604482015290519081900360640190fd5b6001600160a01b0381166113205760405162461bcd60e51b81526004018080602001828103825260268152602001806118da6026913960400191505060405180910390fd5b600080546040516001600160a01b03808516939216917f8be0079c531659141344cd1fd0a4f28419497f9722a3daafe3b4186f6b6457e091a3600080546001600160a01b0319166001600160a01b0392909216919091179055565b6000828201838110156113d5576040805162461bcd60e51b815260206004820152601b60248201527f536166654d6174683a206164646974696f6e206f766572666c6f770000000000604482015290519081900360640190fd5b90505b92915050565b6000826113ed575060006113d8565b828202828482816113fa57fe5b04146113d55760405162461bcd60e51b81526004018080602001828103825260218152602001806119006021913960400191505060405180910390fd5b60006113d583836040518060400160405280601a81526020017f536166654d6174683a206469766973696f6e206279207a65726f0000000000008152506117dd565b3390565b600254604080516318160ddd60e01b815290516000926001600160a01b0316916318160ddd916004808301926020929190829003018186803b1580156114c257600080fd5b505afa1580156114d6573d6000803e3d6000fd5b505050506040513d60208110156114ec57600080fd5b5051600b54909150611502906301e1338061137b565b42111561158657600260009054906101000a90046001600160a01b03166001600160a01b0316639358928b6040518163ffffffff1660e01b815260040160206040518083038186803b15801561155757600080fd5b505afa15801561156b573d6000803e3d6000fd5b505050506040513d602081101561158157600080fd5b505190505b6000546115af906301e13380906107b3906127109082908690600160a01b900461ffff166113de565b600181905560408051918252517ffd301ea009c64d5832f2d8f8d8f632dda101449dd7bab7e219a7d4fe924f190a9181900360200190a150565b816002015442116115f95761167c565b81548061160c575042600283015561167c565b600061162584600201544261168090919063ffffffff16565b9050600061164a846107b387600101546111fa600154876113de90919063ffffffff16565b905061166d611662846107b38464e8d4a510006113de565b60038701549061137b565b60038601555050426002840155505b5050565b60006113d583836040518060400160405280601e81526020017f536166654d6174683a207375627472616374696f6e206f766572666c6f77000081525061187f565b600a5460065460005b818110156117195761171160076000600684815481106116e757fe5b60009182526020808320909101546001600160a01b031683528201929092526040019020846115e9565b6001016116cb565b505050565b600554811561171957611731818361137b565b6005556001600160a01b038084166000908152600c602052604090205416806117575750825b60048054604080516334686fad60e21b81526001600160a01b038581169482019490945260248101879052600160448201529051929091169163d1a1beb49160648082019260009290919082900301818387803b1580156117b757600080fd5b505af11580156117cb573d6000803e3d6000fd5b505050506117d761147d565b50505050565b600081836118695760405162461bcd60e51b81526004018080602001828103825283818151815260200191508051906020019080838360005b8381101561182e578181015183820152602001611816565b50505050905090810190601f16801561185b5780820380516001836020036101000a031916815260200191505b509250505060405180910390fd5b50600083858161187557fe5b0495945050505050565b600081848411156118d15760405162461bcd60e51b815260206004820181815283516024840152835190928392604490910191908501908083836000831561182e578181015183820152602001611816565b50505090039056fe4f776e61626c653a206e6577206f776e657220697320746865207a65726f2061646472657373536166654d6174683a206d756c7469706c69636174696f6e206f766572666c6f774f776e61626c653a2063616c6c6572206973206e6f7420746865206f776e6572a264697066735822122061733935ac4c99f01c242b4aea8647e6028ee14d1a75404cc2794f3b89c5407c64736f6c63430007060033536166654d6174683a206d756c7469706c69636174696f6e206f766572666c6f77",
  "linkReferences": {},
  "deployedLinkReferences": {}
}