{
  "_format": "hh-sol-artifact-1",
  "contractName": "ValidationLogic",
  "sourceName": "contracts/protocol/libraries/logic/ValidationLogic.sol",
  "abi": [
    {
      "inputs": [],
      "name": "REBALANCE_UP_LIQUIDITY_RATE_THRESHOLD",
      "outputs": [
        {
          "internalType": "uint256",
          "name": "",
          "type": "uint256"
        }
      ],
      "stateMutability": "view",
      "type": "function"
    },
    {
      "inputs": [],
      "name": "REBALANCE_UP_USAGE_RATIO_THRESHOLD",
      "outputs": [
        {
          "internalType": "uint256",
          "name": "",
          "type": "uint256"
        }
      ],
      "stateMutability": "view",
      "type": "function"
    }
  ],
  "bytecode": "0x612306610026600b82828239805160001a60731461001957fe5b30600052607381538281f3fe730000000000000000000000000000000000000000301460806040526004361061009d5760003560e01c8063721a92f911610070578063721a92f9146100fb578063a8695b1d1461010e578063abfcc86a14610121578063d09db04a14610129578063fa0c21491461013c5761009d565b80630eca322b146100a2578063548cad09146100b75780635494eb8a146100ca5780635fa297e5146100e8575b600080fd5b6100b56100b0366004612142565b61014f565b005b6100b56100c5366004612093565b610217565b6100d261050d565b6040516100df9190612280565b60405180910390f35b6100b56100f6366004612029565b61051d565b6100b5610109366004611ef7565b6106c2565b6100b561011c3660046120fa565b610bcd565b6100d2610e66565b6100b5610137366004611f9b565b610e6c565b6100b561014a366004612163565b61100a565b60008061015b84611150565b50506040805180820190915260018152603160f81b60208201529193509150836101a15760405162461bcd60e51b8152600401610198919061222d565b60405180910390fd5b506040805180820190915260018152601960f91b6020820152826101d85760405162461bcd60e51b8152600401610198919061222d565b506040805180820190915260018152603360f81b602082015281156102105760405162461bcd60e51b8152600401610198919061222d565b5050505050565b600061022286611150565b505050905080604051806040016040528060018152602001601960f91b815250906102605760405162461bcd60e51b8152600401610198919061222d565b506000610356610351856001600160a01b03166318160ddd6040518163ffffffff1660e01b815260040160206040518083038186803b1580156102a257600080fd5b505afa1580156102b6573d6000803e3d6000fd5b505050506040513d601f19601f820116820180604052508101906102da91906121bc565b876001600160a01b03166318160ddd6040518163ffffffff1660e01b815260040160206040518083038186803b15801561031357600080fd5b505afa158015610327573d6000803e3d6000fd5b505050506040513d601f19601f8201168201806040525081019061034b91906121bc565b90611188565b6111eb565b905060006103d9876001600160a01b03166370a08231866040518263ffffffff1660e01b815260040161038991906121d4565b60206040518083038186803b1580156103a157600080fd5b505afa1580156103b5573d6000803e3d6000fd5b505050506040513d601f19601f8201168201806040525081019061035191906121bc565b9050600082156103fc576103f76103f08385611188565b84906112a8565b6103ff565b60005b60028a015460078b0154604080516380031e3760e01b815290519394506fffffffffffffffffffffffffffffffff909216926000926001600160a01b03909216916380031e37916004808301926020929190829003018186803b15801561046557600080fd5b505afa158015610479573d6000803e3d6000fd5b505050506040513d601f19601f8201168201806040525081019061049d91906121bc565b90506b0311d253316c79d37600000083101580156104c657506104c281610fa06113af565b8211155b60405180604001604052806002815260200161191960f11b815250906104ff5760405162461bcd60e51b8152600401610198919061222d565b505050505050505050505050565b6b0311d253316c79d37600000081565b6004808901546040516370a0823160e01b81526000926001600160a01b03909216916370a0823191610551913391016121d4565b60206040518083038186803b15801561056957600080fd5b505afa15801561057d573d6000803e3d6000fd5b505050506040513d601f19601f820116820180604052508101906105a191906121bc565b90506000811160405180604001604052806002815260200161313960f01b815250906105e05760405162461bcd60e51b8152600401610198919061222d565b50868061067d5750604051633985c10960e21b815273__$52a8a86ab43135662ff256bbc95497e8e3$__9063e61704249061062d908b90339086908c908c908c908c908c906004016121e8565b60206040518083038186803b15801561064557600080fd5b505af4158015610659573d6000803e3d6000fd5b505050506040513d601f19601f8201168201806040525081019061067d919061200d565b60405180604001604052806002815260200161032360f41b815250906106b65760405162461bcd60e51b8152600401610198919061222d565b50505050505050505050565b6106ca611dec565b6106d38c611150565b151561014085015215156101208401521515610100830152151560e082018190526040805180820190915260018152601960f91b60208201529061072a5760405162461bcd60e51b8152600401610198919061222d565b5080610100015115604051806040016040528060018152602001603360f81b8152509061076a5760405162461bcd60e51b8152600401610198919061222d565b506040805180820190915260018152603160f81b60208201528a6107a15760405162461bcd60e51b8152600401610198919061222d565b50806101200151604051806040016040528060018152602001603760f81b815250906107e05760405162461bcd60e51b8152600401610198919061222d565b5087600214806107f05750876001145b604051806040016040528060018152602001600760fb1b815250906108285760405162461bcd60e51b8152600401610198919061222d565b50604080516020810190915285548152610848908c90889087878761144f565b60c086015260208086019190915281855260808501929092526060840192909252604080518082019091526002815261313160f01b91810191909152906108a25760405162461bcd60e51b8152600401610198919061222d565b506000816060015111604051806040016040528060018152602001603960f81b815250906108e35760405162461bcd60e51b8152600401610198919061222d565b50670de0b6b3a76400008160c001511160405180604001604052806002815260200161031360f41b8152509061092c5760405162461bcd60e51b8152600401610198919061222d565b50805160808201516109499190610943908c611188565b90611916565b6040808301829052606083015181518083019092526002825261313160f01b60208301529091111561098e5760405162461bcd60e51b8152600401610198919061222d565b506001881415610bbe5780610140015160405180604001604052806002815260200161189960f11b815250906109d75760405162461bcd60e51b8152600401610198919061222d565b5060078c01546040805160208101909152865481526109ff91600160a01b900460ff16611a00565b1580610a115750610a0f8c611a86565b155b80610a9b57506004808d01546040516370a0823160e01b81526001600160a01b03909116916370a0823191610a48918f91016121d4565b60206040518083038186803b158015610a6057600080fd5b505afa158015610a74573d6000803e3d6000fd5b505050506040513d601f19601f82011682018060405250810190610a9891906121bc565b8a115b60405180604001604052806002815260200161313360f01b81525090610ad45760405162461bcd60e51b8152600401610198919061222d565b508c6001600160a01b03166370a082318d60040160009054906101000a90046001600160a01b03166040518263ffffffff1660e01b8152600401610b1891906121d4565b60206040518083038186803b158015610b3057600080fd5b505afa158015610b44573d6000803e3d6000fd5b505050506040513d601f19601f82011682018060405250810190610b6891906121bc565b60a08201819052600090610b7c90896113af565b9050808b1115604051806040016040528060028152602001610c4d60f21b81525090610bbb5760405162461bcd60e51b8152600401610198919061222d565b50505b50505050505050505050505050565b60008080610bda88611150565b9350509250925082604051806040016040528060018152602001601960f91b81525090610c1a5760405162461bcd60e51b8152600401610198919061222d565b506040805180820190915260018152603360f81b60208201528215610c525760405162461bcd60e51b8152600401610198919061222d565b506001846002811115610c6157fe5b1415610ca457604080518082019091526002815261313760f01b602082015286610c9e5760405162461bcd60e51b8152600401610198919061222d565b50610e5c565b6002846002811115610cb257fe5b1415610e2d57604080518082019091526002815261062760f31b602082015285610cef5760405162461bcd60e51b8152600401610198919061222d565b50604080518082019091526002815261189960f11b602082015281610d275760405162461bcd60e51b8152600401610198919061222d565b506007880154604080516020810190915288548152610d4f91600160a01b900460ff16611a00565b1580610d615750610d5f88611a86565b155b80610df457506004808901546040516370a0823160e01b81526001600160a01b03909116916370a0823191610d98913391016121d4565b60206040518083038186803b158015610db057600080fd5b505afa158015610dc4573d6000803e3d6000fd5b505050506040513d601f19601f82011682018060405250810190610de891906121bc565b610df28787611188565b115b60405180604001604052806002815260200161313360f01b81525090610c9e5760405162461bcd60e51b8152600401610198919061222d565b60408051808201825260018152600760fb1b6020820152905162461bcd60e51b8152610198919060040161222d565b5050505050505050565b610fa081565b6040805180820190915260018152603160f81b602082015287610ea25760405162461bcd60e51b8152600401610198919061222d565b506040805180820190915260018152603560f81b602082015286881115610edc5760405162461bcd60e51b8152600401610198919061222d565b506001600160a01b0388166000908152602086905260408120610efe90611150565b505050905080604051806040016040528060018152602001601960f91b81525090610f3c5760405162461bcd60e51b8152600401610198919061222d565b50604051633985c10960e21b815273__$52a8a86ab43135662ff256bbc95497e8e3$__9063e617042490610f82908c9033908d908c908c908c908c908c906004016121e8565b60206040518083038186803b158015610f9a57600080fd5b505af4158015610fae573d6000803e3d6000fd5b505050506040513d601f19601f82011682018060405250810190610fd2919061200d565b604051806040016040528060018152602001601b60f91b815250906106b65760405162461bcd60e51b8152600401610198919061222d565b600061101587611a8e565b905080604051806040016040528060018152602001601960f91b815250906110505760405162461bcd60e51b8152600401610198919061222d565b506040805180820190915260018152603160f81b6020820152866110875760405162461bcd60e51b8152600401610198919061222d565b506000831180156110a3575060018560028111156110a157fe5b145b806110c457506000821180156110c4575060028560028111156110c257fe5b145b60405180604001604052806002815260200161313560f01b815250906110fd5760405162461bcd60e51b8152600401610198919061222d565b50600019861415806111175750336001600160a01b038516145b60405180604001604052806002815260200161189b60f11b81525090610e5c5760405162461bcd60e51b8152600401610198919061222d565b54600160381b811615159167020000000000000082161515916704000000000000008116151591670800000000000000909116151590565b6000828201838110156111e2576040805162461bcd60e51b815260206004820152601b60248201527f536166654d6174683a206164646974696f6e206f766572666c6f770000000000604482015290519081900360640190fd5b90505b92915050565b6000633b9aca0082810290839082041460405180604001604052806002815260200161068760f31b8152509061129f5760405162461bcd60e51b81526004018080602001828103825283818151815260200191508051906020019080838360005b8381101561126457818101518382015260200161124c565b50505050905090810190601f1680156112915780820380516001836020036101000a031916815260200191505b509250505060405180910390fd5b5090505b919050565b604080518082019091526002815261035360f41b6020820152600090826113105760405162461bcd60e51b815260206004820181815283516024840152835190928392604490910191908501908083836000831561126457818101518382015260200161124c565b5060408051808201909152600280825261068760f31b60208301528304906b033b2e3c9fd0803ce800000082190485111561138c5760405162461bcd60e51b815260206004820181815283516024840152835190928392604490910191908501908083836000831561126457818101518382015260200161124c565b5082816b033b2e3c9fd0803ce8000000860201816113a657fe5b04949350505050565b60008215806113bc575081155b156113c9575060006111e5565b8161138819816113d557fe5b0483111560405180604001604052806002815260200161068760f31b815250906114405760405162461bcd60e51b815260206004820181815283516024840152835190928392604490910191908501908083836000831561126457818101518382015260200161124c565b50506127109102611388010490565b600080600080600061145f611e4e565b6114688a611a9a565b15611486576000806000806000199550955095509550955050611908565b600060e08201525b878160e0015110156118675760e08101516114aa908b90611a9f565b6114b357611857565b60e0810151600090815260208a81526040808320546001600160a01b03166101e085018190528352908d905290206114ea81611b1e565b506080860181905260c08601929092525060a0840191909152600a0a60208301526101e082015160405163b3596f0760e01b81526001600160a01b038a169163b3596f079161153c91906004016121d4565b60206040518083038186803b15801561155457600080fd5b505afa158015611568573d6000803e3d6000fd5b505050506040513d601f19601f8201168201806040525081019061158c91906121bc565b825260c0820151158015906115ac575060e08201516115ac908c90611a00565b156116d0578060040160009054906101000a90046001600160a01b03166001600160a01b03166370a082318e6040518263ffffffff1660e01b81526004016115f491906121d4565b60206040518083038186803b15801561160c57600080fd5b505afa158015611620573d6000803e3d6000fd5b505050506040513d601f19601f8201168201806040525081019061164491906121bc565b6040830181905260208301518351600092611669929161166391611b49565b90611ba2565b61012084015190915061167c9082611188565b61012084015260a08301516116a290611696908390611b49565b61016085015190611188565b61016084015260c08301516116c8906116bc908390611b49565b61018085015190611188565b610180840152505b60e08201516116e0908c90611be4565b15611855578060050160009054906101000a90046001600160a01b03166001600160a01b03166370a082318e6040518263ffffffff1660e01b815260040161172891906121d4565b60206040518083038186803b15801561174057600080fd5b505afa158015611754573d6000803e3d6000fd5b505050506040513d601f19601f8201168201806040525081019061177891906121bc565b8260600181815250506118228160060160009054906101000a90046001600160a01b03166001600160a01b03166370a082318f6040518263ffffffff1660e01b81526004016117c791906121d4565b60206040518083038186803b1580156117df57600080fd5b505afa1580156117f3573d6000803e3d6000fd5b505050506040513d601f19601f8201168201806040525081019061181791906121bc565b606084015190611188565b606083018190526020830151835161184e92611842929161166391611b49565b61014084015190611188565b6101408301525b505b60e081018051600101905261148e565b60008161012001511161187b576000611890565b61012081015161016082015161189091611ba2565b6101608201526101208101516118a75760006118bc565b6101208101516101808201516118bc91611ba2565b61018082018190526101208201516101408301516118d992611c63565b610100820181905261012082015161014083015161016084015161018090940151919850965091945090925090505b965096509650965096915050565b604080518082019091526002815261035360f41b60208201526000908261197e5760405162461bcd60e51b815260206004820181815283516024840152835190928392604490910191908501908083836000831561126457818101518382015260200161124c565b5060408051808201909152600280825261068760f31b60208301528304906127108219048511156119f05760405162461bcd60e51b815260206004820181815283516024840152835190928392604490910191908501908083836000831561126457818101518382015260200161124c565b508281612710860201816113a657fe5b60006080821060405180604001604052806002815260200161373760f01b81525090611a6d5760405162461bcd60e51b815260206004820181815283516024840152835190928392604490910191908501908083836000831561126457818101518382015260200161124c565b5050815160016002830281019190911c16151592915050565b5461ffff1690565b54600160381b16151590565b511590565b60006080821060405180604001604052806002815260200161373760f01b81525090611b0c5760405162461bcd60e51b815260206004820181815283516024840152835190928392604490910191908501908083836000831561126457818101518382015260200161124c565b50509051600360029092021c16151590565b5461ffff80821692601083901c821692602081901c831692603082901c60ff169260409290921c1690565b600082611b58575060006111e5565b82820282848281611b6557fe5b04146111e25760405162461bcd60e51b81526004018080602001828103825260218152602001806122b06021913960400191505060405180910390fd5b60006111e283836040518060400160405280601a81526020017f536166654d6174683a206469766973696f6e206279207a65726f000000000000815250611c91565b60006080821060405180604001604052806002815260200161373760f01b81525090611c515760405162461bcd60e51b815260206004820181815283516024840152835190928392604490910191908501908083836000831561126457818101518382015260200161124c565b50509051600160029092021c16151590565b600082611c735750600019611c8a565b611c8783611c8186856113af565b90611cf6565b90505b9392505050565b60008183611ce05760405162461bcd60e51b815260206004820181815283516024840152835190928392604490910191908501908083836000831561126457818101518382015260200161124c565b506000838581611cec57fe5b0495945050505050565b604080518082019091526002815261035360f41b602082015260009082611d5e5760405162461bcd60e51b815260206004820181815283516024840152835190928392604490910191908501908083836000831561126457818101518382015260200161124c565b5060408051808201909152600280825261068760f31b6020830152830490670de0b6b3a7640000821904851115611dd65760405162461bcd60e51b815260206004820181815283516024840152835190928392604490910191908501908083836000831561126457818101518382015260200161124c565b508281670de0b6b3a7640000860201816113a657fe5b604051806101600160405280600081526020016000815260200160008152602001600081526020016000815260200160008152602001600081526020016000151581526020016000151581526020016000151581526020016000151581525090565b604051806102400160405280600081526020016000815260200160008152602001600081526020016000815260200160008152602001600081526020016000815260200160008152602001600081526020016000815260200160008152602001600081526020016000815260200160001515815260200160006001600160a01b031681526020016000151581526020016000151581525090565b8035600381106112a357600080fd5b6000806000806000806000806000806000806101808d8f031215611f19578788fd5b8c35611f2481612289565b9b5060208d01359a5060408d0135611f3b81612289565b995060608d0135985060808d0135975060a08d0135965060c08d0135955060e08d013594506101008d013593506101208d013592506101408d013591506101608d0135611f8781612289565b809150509295989b509295989b509295989b565b600080600080600080600080610100898b031215611fb7578384fd5b8835611fc281612289565b97506020890135965060408901359550606089013594506080890135935060a0890135925060c0890135915060e0890135611ffc81612289565b809150509295985092959890939650565b60006020828403121561201e578081fd5b81516111e2816122a1565b600080600080600080600080610100898b031215612045578384fd5b88359750602089013561205781612289565b96506040890135612067816122a1565b9550606089013594506080890135935060a0890135925060c0890135915060e0890135611ffc81612289565b600080600080600060a086880312156120aa578081fd5b8535945060208601356120bc81612289565b935060408601356120cc81612289565b925060608601356120dc81612289565b915060808601356120ec81612289565b809150509295509295909350565b600080600080600060a08688031215612111578081fd5b8535945060208601359350604086013592506060860135915061213660808701611ee8565b90509295509295909350565b60008060408385031215612154578182fd5b50508035926020909101359150565b60008060008060008060c0878903121561217b578384fd5b863595506020870135945061219260408801611ee8565b935060608701356121a281612289565b9598949750929560808101359460a0909101359350915050565b6000602082840312156121cd578081fd5b5051919050565b6001600160a01b0391909116815260200190565b6001600160a01b0398891681529688166020880152604087019590955260608601939093529054608085015260a084015260c083015290911660e08201526101000190565b6000602080835283518082850152825b818110156122595785810183015185820160400152820161223d565b8181111561226a5783604083870101525b50601f01601f1916929092016040019392505050565b90815260200190565b6001600160a01b038116811461229e57600080fd5b50565b801515811461229e57600080fdfe536166654d6174683a206d756c7469706c69636174696f6e206f766572666c6f77a26469706673582212205787cbdc85d0f772b3332e2b8f8e4181c62b0c6b3f3c1ff3391b47d6694af44a64736f6c63430007060033",
  "linkReferences": {
    "contracts/protocol/libraries/logic/GenericLogic.sol": {
      "GenericLogic": [
        {
          "length": 20,
          "start": 1565
        },
        {
          "length": 20,
          "start": 3954
        }
      ]
    }
  },
  "deployedLinkReferences": {
    "contracts/protocol/libraries/logic/GenericLogic.sol": {
      "GenericLogic": [
        {
          "length": 20,
          "start": 1527
        },
        {
          "length": 20,
          "start": 3916
        }
      ]
    }
  }
}