{
  "_format": "hh-sol-artifact-1",
  "contractName": "AToken",
  "sourceName": "contracts/protocol/tokens/AToken.sol",
  "abi": [
    {
      "anonymous": false,
      "inputs": [
        {
          "indexed": true,
          "internalType": "address",
          "name": "owner",
          "type": "address"
        },
        {
          "indexed": true,
          "internalType": "address",
          "name": "spender",
          "type": "address"
        },
        {
          "indexed": false,
          "internalType": "uint256",
          "name": "value",
          "type": "uint256"
        }
      ],
      "name": "Approval",
      "type": "event"
    },
    {
      "anonymous": false,
      "inputs": [
        {
          "indexed": true,
          "internalType": "address",
          "name": "from",
          "type": "address"
        },
        {
          "indexed": true,
          "internalType": "address",
          "name": "to",
          "type": "address"
        },
        {
          "indexed": false,
          "internalType": "uint256",
          "name": "value",
          "type": "uint256"
        },
        {
          "indexed": false,
          "internalType": "uint256",
          "name": "index",
          "type": "uint256"
        }
      ],
      "name": "BalanceTransfer",
      "type": "event"
    },
    {
      "anonymous": false,
      "inputs": [
        {
          "indexed": true,
          "internalType": "address",
          "name": "from",
          "type": "address"
        },
        {
          "indexed": true,
          "internalType": "address",
          "name": "target",
          "type": "address"
        },
        {
          "indexed": false,
          "internalType": "uint256",
          "name": "value",
          "type": "uint256"
        },
        {
          "indexed": false,
          "internalType": "uint256",
          "name": "index",
          "type": "uint256"
        }
      ],
      "name": "Burn",
      "type": "event"
    },
    {
      "anonymous": false,
      "inputs": [
        {
          "indexed": true,
          "internalType": "address",
          "name": "underlyingAsset",
          "type": "address"
        },
        {
          "indexed": true,
          "internalType": "address",
          "name": "pool",
          "type": "address"
        },
        {
          "indexed": false,
          "internalType": "address",
          "name": "treasury",
          "type": "address"
        },
        {
          "indexed": false,
          "internalType": "address",
          "name": "incentivesController",
          "type": "address"
        },
        {
          "indexed": false,
          "internalType": "uint8",
          "name": "aTokenDecimals",
          "type": "uint8"
        },
        {
          "indexed": false,
          "internalType": "string",
          "name": "aTokenName",
          "type": "string"
        },
        {
          "indexed": false,
          "internalType": "string",
          "name": "aTokenSymbol",
          "type": "string"
        },
        {
          "indexed": false,
          "internalType": "bytes",
          "name": "params",
          "type": "bytes"
        }
      ],
      "name": "Initialized",
      "type": "event"
    },
    {
      "anonymous": false,
      "inputs": [
        {
          "indexed": true,
          "internalType": "address",
          "name": "from",
          "type": "address"
        },
        {
          "indexed": false,
          "internalType": "uint256",
          "name": "value",
          "type": "uint256"
        },
        {
          "indexed": false,
          "internalType": "uint256",
          "name": "index",
          "type": "uint256"
        }
      ],
      "name": "Mint",
      "type": "event"
    },
    {
      "anonymous": false,
      "inputs": [
        {
          "indexed": true,
          "internalType": "address",
          "name": "from",
          "type": "address"
        },
        {
          "indexed": true,
          "internalType": "address",
          "name": "to",
          "type": "address"
        },
        {
          "indexed": false,
          "internalType": "uint256",
          "name": "value",
          "type": "uint256"
        }
      ],
      "name": "Transfer",
      "type": "event"
    },
    {
      "inputs": [],
      "name": "ATOKEN_REVISION",
      "outputs": [
        {
          "internalType": "uint256",
          "name": "",
          "type": "uint256"
        }
      ],
      "stateMutability": "view",
      "type": "function"
    },
    {
      "inputs": [],
      "name": "DOMAIN_SEPARATOR",
      "outputs": [
        {
          "internalType": "bytes32",
          "name": "",
          "type": "bytes32"
        }
      ],
      "stateMutability": "view",
      "type": "function"
    },
    {
      "inputs": [],
      "name": "EIP712_REVISION",
      "outputs": [
        {
          "internalType": "bytes",
          "name": "",
          "type": "bytes"
        }
      ],
      "stateMutability": "view",
      "type": "function"
    },
    {
      "inputs": [],
      "name": "PERMIT_TYPEHASH",
      "outputs": [
        {
          "internalType": "bytes32",
          "name": "",
          "type": "bytes32"
        }
      ],
      "stateMutability": "view",
      "type": "function"
    },
    {
      "inputs": [],
      "name": "POOL",
      "outputs": [
        {
          "internalType": "contract ILendingPool",
          "name": "",
          "type": "address"
        }
      ],
      "stateMutability": "view",
      "type": "function"
    },
    {
      "inputs": [],
      "name": "RESERVE_TREASURY_ADDRESS",
      "outputs": [
        {
          "internalType": "address",
          "name": "",
          "type": "address"
        }
      ],
      "stateMutability": "view",
      "type": "function"
    },
    {
      "inputs": [],
      "name": "TEAM_WALLET",
      "outputs": [
        {
          "internalType": "bytes32",
          "name": "",
          "type": "bytes32"
        }
      ],
      "stateMutability": "view",
      "type": "function"
    },
    {
      "inputs": [],
      "name": "UNDERLYING_ASSET_ADDRESS",
      "outputs": [
        {
          "internalType": "address",
          "name": "",
          "type": "address"
        }
      ],
      "stateMutability": "view",
      "type": "function"
    },
    {
      "inputs": [
        {
          "internalType": "address",
          "name": "",
          "type": "address"
        }
      ],
      "name": "_nonces",
      "outputs": [
        {
          "internalType": "uint256",
          "name": "",
          "type": "uint256"
        }
      ],
      "stateMutability": "view",
      "type": "function"
    },
    {
      "inputs": [
        {
          "internalType": "address",
          "name": "owner",
          "type": "address"
        },
        {
          "internalType": "address",
          "name": "spender",
          "type": "address"
        }
      ],
      "name": "allowance",
      "outputs": [
        {
          "internalType": "uint256",
          "name": "",
          "type": "uint256"
        }
      ],
      "stateMutability": "view",
      "type": "function"
    },
    {
      "inputs": [
        {
          "internalType": "address",
          "name": "spender",
          "type": "address"
        },
        {
          "internalType": "uint256",
          "name": "amount",
          "type": "uint256"
        }
      ],
      "name": "approve",
      "outputs": [
        {
          "internalType": "bool",
          "name": "",
          "type": "bool"
        }
      ],
      "stateMutability": "nonpayable",
      "type": "function"
    },
    {
      "inputs": [
        {
          "internalType": "address",
          "name": "user",
          "type": "address"
        }
      ],
      "name": "balanceOf",
      "outputs": [
        {
          "internalType": "uint256",
          "name": "",
          "type": "uint256"
        }
      ],
      "stateMutability": "view",
      "type": "function"
    },
    {
      "inputs": [
        {
          "internalType": "address",
          "name": "user",
          "type": "address"
        },
        {
          "internalType": "address",
          "name": "receiverOfUnderlying",
          "type": "address"
        },
        {
          "internalType": "uint256",
          "name": "amount",
          "type": "uint256"
        },
        {
          "internalType": "uint256",
          "name": "index",
          "type": "uint256"
        }
      ],
      "name": "burn",
      "outputs": [],
      "stateMutability": "nonpayable",
      "type": "function"
    },
    {
      "inputs": [],
      "name": "decimals",
      "outputs": [
        {
          "internalType": "uint8",
          "name": "",
          "type": "uint8"
        }
      ],
      "stateMutability": "view",
      "type": "function"
    },
    {
      "inputs": [
        {
          "internalType": "address",
          "name": "spender",
          "type": "address"
        },
        {
          "internalType": "uint256",
          "name": "subtractedValue",
          "type": "uint256"
        }
      ],
      "name": "decreaseAllowance",
      "outputs": [
        {
          "internalType": "bool",
          "name": "",
          "type": "bool"
        }
      ],
      "stateMutability": "nonpayable",
      "type": "function"
    },
    {
      "inputs": [],
      "name": "getAssetPrice",
      "outputs": [
        {
          "internalType": "uint256",
          "name": "",
          "type": "uint256"
        }
      ],
      "stateMutability": "view",
      "type": "function"
    },
    {
      "inputs": [],
      "name": "getIncentivesController",
      "outputs": [
        {
          "internalType": "contract IAaveIncentivesController",
          "name": "",
          "type": "address"
        }
      ],
      "stateMutability": "view",
      "type": "function"
    },
    {
      "inputs": [
        {
          "internalType": "address",
          "name": "user",
          "type": "address"
        }
      ],
      "name": "getScaledUserBalanceAndSupply",
      "outputs": [
        {
          "internalType": "uint256",
          "name": "",
          "type": "uint256"
        },
        {
          "internalType": "uint256",
          "name": "",
          "type": "uint256"
        }
      ],
      "stateMutability": "view",
      "type": "function"
    },
    {
      "inputs": [
        {
          "internalType": "address",
          "name": "user",
          "type": "address"
        },
        {
          "internalType": "uint256",
          "name": "amount",
          "type": "uint256"
        }
      ],
      "name": "handleRepayment",
      "outputs": [],
      "stateMutability": "nonpayable",
      "type": "function"
    },
    {
      "inputs": [
        {
          "internalType": "address",
          "name": "spender",
          "type": "address"
        },
        {
          "internalType": "uint256",
          "name": "addedValue",
          "type": "uint256"
        }
      ],
      "name": "increaseAllowance",
      "outputs": [
        {
          "internalType": "bool",
          "name": "",
          "type": "bool"
        }
      ],
      "stateMutability": "nonpayable",
      "type": "function"
    },
    {
      "inputs": [
        {
          "internalType": "contract ILendingPool",
          "name": "pool",
          "type": "address"
        },
        {
          "internalType": "address",
          "name": "treasury",
          "type": "address"
        },
        {
          "internalType": "address",
          "name": "underlyingAsset",
          "type": "address"
        },
        {
          "internalType": "contract IAaveIncentivesController",
          "name": "incentivesController",
          "type": "address"
        },
        {
          "internalType": "uint8",
          "name": "aTokenDecimals",
          "type": "uint8"
        },
        {
          "internalType": "string",
          "name": "aTokenName",
          "type": "string"
        },
        {
          "internalType": "string",
          "name": "aTokenSymbol",
          "type": "string"
        },
        {
          "internalType": "bytes",
          "name": "params",
          "type": "bytes"
        }
      ],
      "name": "initialize",
      "outputs": [],
      "stateMutability": "nonpayable",
      "type": "function"
    },
    {
      "inputs": [
        {
          "internalType": "address",
          "name": "user",
          "type": "address"
        },
        {
          "internalType": "uint256",
          "name": "amount",
          "type": "uint256"
        },
        {
          "internalType": "uint256",
          "name": "index",
          "type": "uint256"
        }
      ],
      "name": "mint",
      "outputs": [
        {
          "internalType": "bool",
          "name": "",
          "type": "bool"
        }
      ],
      "stateMutability": "nonpayable",
      "type": "function"
    },
    {
      "inputs": [
        {
          "internalType": "uint256",
          "name": "amount",
          "type": "uint256"
        },
        {
          "internalType": "uint256",
          "name": "index",
          "type": "uint256"
        }
      ],
      "name": "mintToTeam",
      "outputs": [],
      "stateMutability": "nonpayable",
      "type": "function"
    },
    {
      "inputs": [
        {
          "internalType": "uint256",
          "name": "amount",
          "type": "uint256"
        },
        {
          "internalType": "uint256",
          "name": "index",
          "type": "uint256"
        }
      ],
      "name": "mintToTreasury",
      "outputs": [],
      "stateMutability": "nonpayable",
      "type": "function"
    },
    {
      "inputs": [],
      "name": "name",
      "outputs": [
        {
          "internalType": "string",
          "name": "",
          "type": "string"
        }
      ],
      "stateMutability": "view",
      "type": "function"
    },
    {
      "inputs": [
        {
          "internalType": "address",
          "name": "owner",
          "type": "address"
        },
        {
          "internalType": "address",
          "name": "spender",
          "type": "address"
        },
        {
          "internalType": "uint256",
          "name": "value",
          "type": "uint256"
        },
        {
          "internalType": "uint256",
          "name": "deadline",
          "type": "uint256"
        },
        {
          "internalType": "uint8",
          "name": "v",
          "type": "uint8"
        },
        {
          "internalType": "bytes32",
          "name": "r",
          "type": "bytes32"
        },
        {
          "internalType": "bytes32",
          "name": "s",
          "type": "bytes32"
        }
      ],
      "name": "permit",
      "outputs": [],
      "stateMutability": "nonpayable",
      "type": "function"
    },
    {
      "inputs": [
        {
          "internalType": "address",
          "name": "user",
          "type": "address"
        }
      ],
      "name": "scaledBalanceOf",
      "outputs": [
        {
          "internalType": "uint256",
          "name": "",
          "type": "uint256"
        }
      ],
      "stateMutability": "view",
      "type": "function"
    },
    {
      "inputs": [],
      "name": "scaledTotalSupply",
      "outputs": [
        {
          "internalType": "uint256",
          "name": "",
          "type": "uint256"
        }
      ],
      "stateMutability": "view",
      "type": "function"
    },
    {
      "inputs": [],
      "name": "symbol",
      "outputs": [
        {
          "internalType": "string",
          "name": "",
          "type": "string"
        }
      ],
      "stateMutability": "view",
      "type": "function"
    },
    {
      "inputs": [],
      "name": "totalSupply",
      "outputs": [
        {
          "internalType": "uint256",
          "name": "",
          "type": "uint256"
        }
      ],
      "stateMutability": "view",
      "type": "function"
    },
    {
      "inputs": [
        {
          "internalType": "address",
          "name": "recipient",
          "type": "address"
        },
        {
          "internalType": "uint256",
          "name": "amount",
          "type": "uint256"
        }
      ],
      "name": "transfer",
      "outputs": [
        {
          "internalType": "bool",
          "name": "",
          "type": "bool"
        }
      ],
      "stateMutability": "nonpayable",
      "type": "function"
    },
    {
      "inputs": [
        {
          "internalType": "address",
          "name": "sender",
          "type": "address"
        },
        {
          "internalType": "address",
          "name": "recipient",
          "type": "address"
        },
        {
          "internalType": "uint256",
          "name": "amount",
          "type": "uint256"
        }
      ],
      "name": "transferFrom",
      "outputs": [
        {
          "internalType": "bool",
          "name": "",
          "type": "bool"
        }
      ],
      "stateMutability": "nonpayable",
      "type": "function"
    },
    {
      "inputs": [
        {
          "internalType": "address",
          "name": "from",
          "type": "address"
        },
        {
          "internalType": "address",
          "name": "to",
          "type": "address"
        },
        {
          "internalType": "uint256",
          "name": "value",
          "type": "uint256"
        }
      ],
      "name": "transferOnLiquidation",
      "outputs": [],
      "stateMutability": "nonpayable",
      "type": "function"
    },
    {
      "inputs": [
        {
          "internalType": "address",
          "name": "target",
          "type": "address"
        },
        {
          "internalType": "uint256",
          "name": "amount",
          "type": "uint256"
        }
      ],
      "name": "transferUnderlyingTo",
      "outputs": [
        {
          "internalType": "uint256",
          "name": "",
          "type": "uint256"
        }
      ],
      "stateMutability": "nonpayable",
      "type": "function"
    },
    {
      "inputs": [
        {
          "internalType": "uint256",
          "name": "amount",
          "type": "uint256"
        }
      ],
      "name": "withdrawReserves",
      "outputs": [
        {
          "internalType": "uint256",
          "name": "",
          "type": "uint256"
        }
      ],
      "stateMutability": "nonpayable",
      "type": "function"
    }
  ],
  "bytecode": "0x6080604052600080553480156200001557600080fd5b50604080518082018252600b8082526a105513d2d15397d253541360aa1b60208084018281528551808701909652928552840152815191929160009162000060916037919062000094565b5081516200007690603890602085019062000094565b506039805460ff191660ff9290921691909117905550620001409050565b828054600181600116156101000203166002900490600052602060002090601f016020900481019282620000cc576000855562000117565b82601f10620000e757805160ff191683800117855562000117565b8280016001018555821562000117579182015b8281111562000117578251825591602001919060010190620000fa565b506200012592915062000129565b5090565b5b808211156200012557600081556001016200012a565b61313180620001506000396000f3fe608060405234801561001057600080fd5b50600436106102115760003560e01c806375d2641311610125578063b16a19de116100ad578063d7020d0a1161007c578063d7020d0a14610410578063dd62ed3e14610423578063e54f088014610436578063f13836841461043e578063f866c3191461045157610211565b8063b16a19de146103da578063b1bf962d146103e2578063b9844d8d146103ea578063d505accf146103fd57610211565b806395d89b41116100f457806395d89b411461039157806398aa8c3314610399578063a457c2d7146103ac578063a9059cbb146103bf578063ae167335146103d257610211565b806375d264131461035b57806378160376146103635780637df5bd3b1461036b57806388dd91a11461037e57610211565b806323b872dd116101a85780633644e515116101775780633644e51514610305578063395093511461030d5780634efecaa51461032057806370a08231146103335780637535d2461461034657610211565b806323b872dd146102cd5780632b905bf6146102e057806330adf81f146102e8578063313ce567146102f057610211565b8063156e29f6116101e4578063156e29f61461028a57806318160ddd1461029d578063183fb413146102a55780631da24f3e146102ba57610211565b806306fdde0314610216578063095ea7b3146102345780630afbcdc9146102545780630bd7ad3b14610275575b600080fd5b61021e610464565b60405161022b9190612dc3565b60405180910390f35b61024761024236600461295a565b6104fb565b60405161022b9190612d31565b6102676102623660046127f5565b610519565b60405161022b929190612ed0565b61027d610536565b60405161022b9190612d3c565b610247610298366004612985565b61053b565b61027d610689565b6102b86102b33660046129b9565b610740565b005b61027d6102c83660046127f5565b6109ff565b6102476102db366004612865565b610a12565b61027d610ad2565b61027d610af6565b6102f8610b1a565b60405161022b9190612ede565b61027d610b23565b61024761031b36600461295a565b610b29565b61027d61032e36600461295a565b610b77565b61027d6103413660046127f5565b610bf4565b61034e610c92565b60405161022b9190612c76565b61034e610ca6565b61021e610cb5565b6102b8610379366004612bb8565b610cd2565b6102b861038c36600461295a565b610ddb565b61021e610e3c565b61027d6103a7366004612aa9565b610e9d565b6102476103ba36600461295a565b61124c565b6102476103cd36600461295a565b6112b4565b61034e611311565b61034e611320565b61027d61132f565b61027d6103f83660046127f5565b611339565b6102b861040b3660046128ea565b61134b565b6102b861041e3660046128a5565b6114e3565b61027d61043136600461282d565b611636565b61027d611661565b6102b861044c366004612bb8565b6117d3565b6102b861045f366004612865565b61196d565b60378054604080516020601f60026000196101006001881615020190951694909404938401819004810282018101909252828152606093909290918301828280156104f05780601f106104c5576101008083540402835291602001916104f0565b820191906000526020600020905b8154815290600101906020018083116104d357829003601f168201915b505050505090505b90565b600061050f610508611a15565b8484611a19565b5060015b92915050565b60008061052583611b05565b61052d611b20565b91509150915091565b600181565b60395460009061010090046001600160a01b0316610557611a15565b6001600160a01b03161460405180604001604052806002815260200161323960f01b815250906105a35760405162461bcd60e51b815260040161059a9190612dc3565b60405180910390fd5b5060006105af85611b05565b905060006105bd8585611b26565b6040805180820190915260028152611a9b60f11b6020820152909150816105f75760405162461bcd60e51b815260040161059a9190612dc3565b506106028682611c6a565b856001600160a01b031660006001600160a01b0316600080516020613023833981519152876040516106349190612d3c565b60405180910390a3856001600160a01b03167f4c209b5fc8ad50758f13e2e1088ba56a560dff690a1c6fef26394f4c03821c4f8686604051610677929190612ed0565b60405180910390a25015949350505050565b600080610694611b20565b9050806106a55760009150506104f8565b603954603a5460405163d15e005360e01b815261073a9261010090046001600160a01b039081169263d15e0053926106e39290911690600401612c76565b60206040518083038186803b1580156106fb57600080fd5b505afa15801561070f573d6000803e3d6000fd5b505050506040513d601f19601f820116820180604052508101906107339190612ac1565b8290611dc6565b91505090565b600061074a611e84565b60015490915060ff16806107615750610761611e89565b8061076d575060005481115b6107a85760405162461bcd60e51b815260040180806020018281038252602e815260200180612ff5602e913960400191505060405180910390fd5b60015460ff161580156107c7576001805460ff19168117905560008290555b60405146907f8b73c3c69bb8fe3d512ecc4cf759cc79239f7b179b0ffacaa9a75d522b39400f906107fb908b908b90612c2f565b60408051918290038220828201825260018352603160f81b602093840152905161084c93927fc89efdaa54c0f20c7adf612882df0950f5a951637e0307cdcb4c672f298b8bc6918691309101612d79565b60408051601f198184030181528282528051602091820120603c55601f8b0181900481028301810190915289825261089f91908b908b9081908401838280828437600092019190915250611e8f92505050565b6108de87878080601f016020809104026020016040519081016040528093929190818152602001838380828437600092019190915250611ea292505050565b6108e78a611eb5565b8d603960016101000a8154816001600160a01b0302191690836001600160a01b031602179055508c603d60006101000a8154816001600160a01b0302191690836001600160a01b031602179055508b603a60006101000a8154816001600160a01b0302191690836001600160a01b031602179055508a603e60006101000a8154816001600160a01b0302191690836001600160a01b031602179055508d6001600160a01b03168c6001600160a01b03167fb19e051f8af41150ccccb3fc2c2d8d15f4a4cf434f32a559ba75fe73d6eea20b8f8e8e8e8e8e8e8e8e6040516109d699989796959493929190612cc3565b60405180910390a35080156109f0576001805460ff191690555b50505050505050505050505050565b6000610a0a82611b05565b90505b919050565b6000610a1f848484611ecb565b610a8f84610a2b611a15565b610a8a85604051806060016040528060288152602001612fcd602891396001600160a01b038a16600090815260356020526040812090610a69611a15565b6001600160a01b031681526020810191909152604001600020549190611ed8565b611a19565b826001600160a01b0316846001600160a01b0316600080516020613023833981519152846040518082815260200191505060405180910390a35060019392505050565b7f379492daf7883243975767fdfc525ba5bc3541b1d804501d80db908705bcb9c781565b7f6e71edae12b1b97f4d1f60370fef10105fa2faae0126114a169c64845d6126c981565b60395460ff1690565b603c5481565b600061050f610b36611a15565b84610a8a8560356000610b47611a15565b6001600160a01b03908116825260208083019390935260409182016000908120918c168152925290205490611f32565b60395460009061010090046001600160a01b0316610b93611a15565b6001600160a01b03161460405180604001604052806002815260200161323960f01b81525090610bd65760405162461bcd60e51b815260040161059a9190612dc3565b50603a54610bee906001600160a01b03168484611f93565b50919050565b603954603a5460405163d15e005360e01b8152600092610a0a926001600160a01b0361010090920482169263d15e005392610c33921690600401612c76565b60206040518083038186803b158015610c4b57600080fd5b505afa158015610c5f573d6000803e3d6000fd5b505050506040513d601f19601f82011682018060405250810190610c839190612ac1565b610c8c84611b05565b90611dc6565b60395461010090046001600160a01b031690565b6000610cb0611fe5565b905090565b604051806040016040528060018152602001603160f81b81525081565b60395461010090046001600160a01b0316610ceb611a15565b6001600160a01b03161460405180604001604052806002815260200161323960f01b81525090610d2e5760405162461bcd60e51b815260040161059a9190612dc3565b5081610d3957610dd7565b603d546001600160a01b0316610d5881610d538585611b26565b611c6a565b806001600160a01b031660006001600160a01b031660008051602061302383398151915285604051610d8a9190612d3c565b60405180910390a3806001600160a01b03167f4c209b5fc8ad50758f13e2e1088ba56a560dff690a1c6fef26394f4c03821c4f8484604051610dcd929190612ed0565b60405180910390a2505b5050565b60395461010090046001600160a01b0316610df4611a15565b6001600160a01b03161460405180604001604052806002815260200161323960f01b81525090610e375760405162461bcd60e51b815260040161059a9190612dc3565b505050565b60388054604080516020601f60026000196101006001881615020190951694909404938401819004810282018101909252828152606093909290918301828280156104f05780601f106104c5576101008083540402835291602001916104f0565b6000603960019054906101000a90046001600160a01b03166001600160a01b031663fe65acfe6040518163ffffffff1660e01b815260040160206040518083038186803b158015610eed57600080fd5b505afa158015610f01573d6000803e3d6000fd5b505050506040513d601f19601f82011682018060405250810190610f259190612811565b6001600160a01b031663aecda3786040518163ffffffff1660e01b815260040160206040518083038186803b158015610f5d57600080fd5b505afa158015610f71573d6000803e3d6000fd5b505050506040513d601f19601f82011682018060405250810190610f959190612811565b6001600160a01b0316610fa6611a15565b6001600160a01b03161460405180604001604052806002815260200161333360f01b81525090610fe95760405162461bcd60e51b815260040161059a9190612dc3565b50603a546040516370a0823160e01b81526000916001600160a01b0316906370a082319061101b903090600401612c76565b60206040518083038186803b15801561103357600080fd5b505afa158015611047573d6000803e3d6000fd5b505050506040513d601f19601f8201168201806040525081019061106b9190612ac1565b90506000611077610689565b603954603a54604051929350600092839261010090046001600160a01b03908116926335ea6a7560e01b926110b29290911690602401612c76565b60408051601f198184030181529181526020820180516001600160e01b03166001600160e01b03199094169390931790925290516110f09190612c3f565b600060405180830381855afa9150503d806000811461112b576040519150601f19603f3d011682016040523d82523d6000602084013e611130565b606091505b5091509150816111525760405162461bcd60e51b815260040161059a90612e46565b6000818060200190518101906111689190612ad9565b505099505050505050505050506000816001600160a01b03166318160ddd6040518163ffffffff1660e01b815260040160206040518083038186803b1580156111b057600080fd5b505afa1580156111c4573d6000803e3d6000fd5b505050506040513d601f19601f820116820180604052508101906111e89190612ac1565b905060006111f68683611ff4565b905080611203888b611ff4565b10156112215760405162461bcd60e51b815260040161059a90612dd6565b61123f61122c611a15565b603a546001600160a01b0316908b611f93565b5096979650505050505050565b600061050f611259611a15565b84610a8a856040518060600160405280602581526020016130d76025913960356000611283611a15565b6001600160a01b03908116825260208083019390935260409182016000908120918d16815292529020549190611ed8565b60006112c86112c1611a15565b8484611ecb565b826001600160a01b03166112da611a15565b6001600160a01b0316600080516020613023833981519152846040518082815260200191505060405180910390a350600192915050565b603d546001600160a01b031690565b603a546001600160a01b031690565b6000610cb0611b20565b603b6020526000908152604090205481565b6001600160a01b0387166113715760405162461bcd60e51b815260040161059a90612ea9565b834211156113915760405162461bcd60e51b815260040161059a90612e7d565b6001600160a01b0387166000908152603b6020908152604080832054603c5491519093926113eb917f6e71edae12b1b97f4d1f60370fef10105fa2faae0126114a169c64845d6126c9918d918d918d9189918e9101612d45565b60405160208183030381529060405280519060200120604051602001611412929190612c5b565b6040516020818303038152906040528051906020012090506001818686866040516000815260200160405260405161144d9493929190612da5565b6020604051602081039080840390855afa15801561146f573d6000803e3d6000fd5b505050602060405103516001600160a01b0316896001600160a01b0316146114a95760405162461bcd60e51b815260040161059a90612e1b565b6114b4826001611f32565b6001600160a01b038a166000908152603b60205260409020556114d8898989611a19565b505050505050505050565b60395461010090046001600160a01b03166114fc611a15565b6001600160a01b03161460405180604001604052806002815260200161323960f01b8152509061153f5760405162461bcd60e51b815260040161059a9190612dc3565b50600061154c8383611b26565b60408051808201909152600281526106a760f31b6020820152909150816115865760405162461bcd60e51b815260040161059a9190612dc3565b506115918582612036565b603a546115a8906001600160a01b03168585611f93565b60006001600160a01b0316856001600160a01b0316600080516020613023833981519152856040516115da9190612d3c565b60405180910390a3836001600160a01b0316856001600160a01b03167f5d624aa9c148153ab3446c1b154f660ee7701e549fe9b62dab7171b1c80e6fa28585604051611627929190612ed0565b60405180910390a35050505050565b6001600160a01b03918216600090815260356020908152604080832093909416825291909152205490565b600080603960019054906101000a90046001600160a01b03166001600160a01b031663fe65acfe6040518163ffffffff1660e01b815260040160206040518083038186803b1580156116b257600080fd5b505afa1580156116c6573d6000803e3d6000fd5b505050506040513d60208110156116dc57600080fd5b505160408051631f94a27560e31b815290519192506000916001600160a01b0384169163fca513a8916004808301926020929190829003018186803b15801561172457600080fd5b505afa158015611738573d6000803e3d6000fd5b505050506040513d602081101561174e57600080fd5b5051603a546040805163b3596f0760e01b81526001600160a01b03928316600482015290519293509083169163b3596f0791602480820192602092909190829003018186803b1580156117a057600080fd5b505afa1580156117b4573d6000803e3d6000fd5b505050506040513d60208110156117ca57600080fd5b50519250505090565b60395461010090046001600160a01b03166117ec611a15565b6001600160a01b03161460405180604001604052806002815260200161323960f01b8152509061182f5760405162461bcd60e51b815260040161059a9190612dc3565b508161183a57610dd7565b6000603960019054906101000a90046001600160a01b03166001600160a01b031663fe65acfe6040518163ffffffff1660e01b815260040160206040518083038186803b15801561188a57600080fd5b505afa15801561189e573d6000803e3d6000fd5b505050506040513d601f19601f820116820180604052508101906118c29190612811565b6001600160a01b03166321f8a7217f379492daf7883243975767fdfc525ba5bc3541b1d804501d80db908705bcb9c76040518263ffffffff1660e01b815260040161190d9190612d3c565b60206040518083038186803b15801561192557600080fd5b505afa158015611939573d6000803e3d6000fd5b505050506040513d601f19601f8201168201806040525081019061195d9190612811565b9050610d5881610d538585611b26565b60395461010090046001600160a01b0316611986611a15565b6001600160a01b03161460405180604001604052806002815260200161323960f01b815250906119c95760405162461bcd60e51b815260040161059a9190612dc3565b506119d783838360006120df565b816001600160a01b0316836001600160a01b031660008051602061302383398151915283604051611a089190612d3c565b60405180910390a3505050565b3390565b6001600160a01b038316611a5e5760405162461bcd60e51b81526004018080602001828103825260248152602001806130896024913960400191505060405180910390fd5b6001600160a01b038216611aa35760405162461bcd60e51b8152600401808060200182810382526022815260200180612f856022913960400191505060405180910390fd5b6001600160a01b03808416600081815260356020908152604080832094871680845294825291829020859055815185815291517f8c5be1e5ebec7d5bd14f71427d1e84f3dd0314c0f7b2291e5b200ac8c7c3b9259281900390910190a3505050565b6001600160a01b031660009081526034602052604090205490565b60365490565b604080518082019091526002815261035360f41b602082015260009082611bcb5760405162461bcd60e51b81526004018080602001828103825283818151815260200191508051906020019080838360005b83811015611b90578181015183820152602001611b78565b50505050905090810190601f168015611bbd5780820380516001836020036101000a031916815260200191505b509250505060405180910390fd5b5060408051808201909152600280825261068760f31b60208301528304906b033b2e3c9fd0803ce8000000821904851115611c475760405162461bcd60e51b8152602060048201818152835160248401528351909283926044909101919085019080838360008315611b90578181015183820152602001611b78565b5082816b033b2e3c9fd0803ce800000086020181611c6157fe5b04949350505050565b6001600160a01b038216611cc5576040805162461bcd60e51b815260206004820152601f60248201527f45524332303a206d696e7420746f20746865207a65726f206164647265737300604482015290519081900360640190fd5b611cd160008383610e37565b603654600090611ce19083611f32565b60368190556001600160a01b03841660009081526034602052604081205491925090611d0d9084611f32565b6001600160a01b0385166000908152603460205260408120829055909150611d33611fe5565b6001600160a01b031614611dc057611d49611fe5565b6001600160a01b03166331873e2e8583856040518463ffffffff1660e01b815260040180846001600160a01b031681526020018381526020018281526020019350505050600060405180830381600087803b158015611da757600080fd5b505af1158015611dbb573d6000803e3d6000fd5b505050505b50505050565b6000821580611dd3575081155b15611de057506000610513565b816b019d971e4fe8401e740000001981611df657fe5b0483111560405180604001604052806002815260200161068760f31b81525090611e615760405162461bcd60e51b8152602060048201818152835160248401528351909283926044909101919085019080838360008315611b90578181015183820152602001611b78565b50506b033b2e3c9fd0803ce800000091026b019d971e4fe8401e74000000010490565b600190565b303b1590565b8051610dd79060379060208401906126c1565b8051610dd79060389060208401906126c1565b6039805460ff191660ff92909216919091179055565b610e3783838360016120df565b60008184841115611f2a5760405162461bcd60e51b8152602060048201818152835160248401528351909283926044909101919085019080838360008315611b90578181015183820152602001611b78565b505050900390565b600082820183811015611f8c576040805162461bcd60e51b815260206004820152601b60248201527f536166654d6174683a206164646974696f6e206f766572666c6f770000000000604482015290519081900360640190fd5b9392505050565b604080516001600160a01b038416602482015260448082018490528251808303909101815260649091019091526020810180516001600160e01b031663a9059cbb60e01b179052610e37908490612270565b603e546001600160a01b031690565b6000611f8c83836040518060400160405280601e81526020017f536166654d6174683a207375627472616374696f6e206f766572666c6f770000815250611ed8565b6001600160a01b03821661207b5760405162461bcd60e51b81526004018080602001828103825260218152602001806130436021913960400191505060405180910390fd5b61208782600083610e37565b6036546000906120979083611ff4565b9050806036819055506000611d0d83604051806060016040528060228152602001612f63602291396001600160a01b0387166000908152603460205260409020549190611ed8565b603a5460395460405163d15e005360e01b81526001600160a01b039283169261010090920490911690600090829063d15e005390612121908690600401612c76565b60206040518083038186803b15801561213957600080fd5b505afa15801561214d573d6000803e3d6000fd5b505050506040513d601f19601f820116820180604052508101906121719190612ac1565b9050600061218282610c8c8a611b05565b9050600061219383610c8c8a611b05565b90506121a989896121a48a87611b26565b612427565b85156122185760405163d5ed393360e01b81526001600160a01b0385169063d5ed3933906121e59088908d908d908d9089908990600401612c8a565b600060405180830381600087803b1580156121ff57600080fd5b505af1158015612213573d6000803e3d6000fd5b505050505b876001600160a01b0316896001600160a01b03167f4beccb90f994c31aced7a23b5611020728a23d8ec5cddd1a3e9d97b96fda8666898660405161225d929190612ed0565b60405180910390a3505050505050505050565b612282826001600160a01b0316612685565b6122d3576040805162461bcd60e51b815260206004820152601f60248201527f5361666545524332303a2063616c6c20746f206e6f6e2d636f6e747261637400604482015290519081900360640190fd5b600080836001600160a01b0316836040518082805190602001908083835b602083106123105780518252601f1990920191602091820191016122f1565b6001836020036101000a0380198251168184511680821785525050505050509050019150506000604051808303816000865af19150503d8060008114612372576040519150601f19603f3d011682016040523d82523d6000602084013e612377565b606091505b5091509150816123ce576040805162461bcd60e51b815260206004820181905260248201527f5361666545524332303a206c6f772d6c6576656c2063616c6c206661696c6564604482015290519081900360640190fd5b805115611dc0578080602001905160208110156123ea57600080fd5b5051611dc05760405162461bcd60e51b815260040180806020018281038252602a8152602001806130ad602a913960400191505060405180910390fd5b6001600160a01b03831661246c5760405162461bcd60e51b81526004018080602001828103825260258152602001806130646025913960400191505060405180910390fd5b6001600160a01b0382166124b15760405162461bcd60e51b8152600401808060200182810382526023815260200180612f406023913960400191505060405180910390fd5b6124bc838383610e37565b60006124fb82604051806060016040528060268152602001612fa7602691396001600160a01b0387166000908152603460205260409020549190611ed8565b6001600160a01b038086166000908152603460205260408082208490559186168152908120549192509061252f9084611f32565b6001600160a01b0385166000908152603460205260408120829055909150612555611fe5565b6001600160a01b03161461267e5760365461256e611fe5565b6001600160a01b03166331873e2e8785846040518463ffffffff1660e01b815260040180846001600160a01b031681526020018381526020018281526020019350505050600060405180830381600087803b1580156125cc57600080fd5b505af11580156125e0573d6000803e3d6000fd5b50505050846001600160a01b0316866001600160a01b03161461267c57612605611fe5565b6001600160a01b03166331873e2e8684846040518463ffffffff1660e01b815260040180846001600160a01b031681526020018381526020018281526020019350505050600060405180830381600087803b15801561266357600080fd5b505af1158015612677573d6000803e3d6000fd5b505050505b505b5050505050565b6000813f7fc5d2460186f7233c927e7db2dcc703c0e500b653ca82273b7bfad8045d85a4708181148015906126b957508115155b949350505050565b828054600181600116156101000203166002900490600052602060002090601f0160209004810192826126f7576000855561273d565b82601f1061271057805160ff191683800117855561273d565b8280016001018555821561273d579182015b8281111561273d578251825591602001919060010190612722565b5061274992915061274d565b5090565b5b80821115612749576000815560010161274e565b8035610a0d81612f18565b8051610a0d81612f18565b60008083601f840112612789578182fd5b50813567ffffffffffffffff8111156127a0578182fd5b6020830191508360208285010111156127b857600080fd5b9250929050565b80516fffffffffffffffffffffffffffffffff81168114610a0d57600080fd5b8035610a0d81612f30565b8051610a0d81612f30565b600060208284031215612806578081fd5b8135611f8c81612f18565b600060208284031215612822578081fd5b8151611f8c81612f18565b6000806040838503121561283f578081fd5b823561284a81612f18565b9150602083013561285a81612f18565b809150509250929050565b600080600060608486031215612879578081fd5b833561288481612f18565b9250602084013561289481612f18565b929592945050506040919091013590565b600080600080608085870312156128ba578081fd5b84356128c581612f18565b935060208501356128d581612f18565b93969395505050506040820135916060013590565b600080600080600080600060e0888a031215612904578283fd5b873561290f81612f18565b9650602088013561291f81612f18565b95506040880135945060608801359350608088013561293d81612f30565b9699959850939692959460a0840135945060c09093013592915050565b6000806040838503121561296c578182fd5b823561297781612f18565b946020939093013593505050565b600080600060608486031215612999578283fd5b83356129a481612f18565b95602085013595506040909401359392505050565b60008060008060008060008060008060006101008c8e0312156129da578485fd5b6129e38c612762565b9a506129f160208d01612762565b99506129ff60408d01612762565b9850612a0d60608d01612762565b9750612a1b60808d016127df565b965067ffffffffffffffff8060a08e01351115612a36578586fd5b612a468e60a08f01358f01612778565b909750955060c08d0135811015612a5b578485fd5b612a6b8e60c08f01358f01612778565b909550935060e08d0135811015612a80578283fd5b50612a918d60e08e01358e01612778565b81935080925050509295989b509295989b9093969950565b600060208284031215612aba578081fd5b5035919050565b600060208284031215612ad2578081fd5b5051919050565b6000806000806000806000806000806000806101808d8f031215612afb578586fd5b8c519b50612b0b60208e016127bf565b9a50612b1960408e016127bf565b9950612b2760608e016127bf565b9850612b3560808e016127bf565b9750612b4360a08e016127bf565b965060c08d015164ffffffffff81168114612b5c578687fd5b9550612b6a60e08e0161276d565b9450612b796101008e0161276d565b9350612b886101208e0161276d565b9250612b976101408e0161276d565b9150612ba66101608e016127ea565b90509295989b509295989b509295989b565b60008060408385031215612bca578182fd5b50508035926020909101359150565b60008284528282602086013780602084860101526020601f19601f85011685010190509392505050565b60008151808452612c1b816020860160208601612eec565b601f01601f19169290920160200192915050565b6000828483379101908152919050565b60008251612c51818460208701612eec565b9190910192915050565b61190160f01b81526002810192909252602282015260420190565b6001600160a01b0391909116815260200190565b6001600160a01b03968716815294861660208601529290941660408401526060830152608082019290925260a081019190915260c00190565b6001600160a01b038a811682528916602082015260ff8816604082015260c060608201819052600090612cf9908301888a612bd9565b8281036080840152612d0c818789612bd9565b905082810360a0840152612d21818587612bd9565b9c9b505050505050505050505050565b901515815260200190565b90815260200190565b9586526001600160a01b0394851660208701529290931660408501526060840152608083019190915260a082015260c00190565b9485526020850193909352604084019190915260608301526001600160a01b0316608082015260a00190565b93845260ff9290921660208401526040830152606082015260800190565b600060208252611f8c6020830184612c03565b60208082526025908201527f5769746864726177616c206578636565647320617661696c61626c6520726573604082015264657276657360d81b606082015260800190565b602080825260119082015270494e56414c49445f5349474e415455524560781b604082015260600190565b6020808252601c908201527f4661696c656420746f2066657463682072657365727665206461746100000000604082015260600190565b60208082526012908201527124a72b20a624a22fa2ac2824a920aa24a7a760711b604082015260600190565b6020808252600d908201526c24a72b20a624a22fa7aba722a960991b604082015260600190565b918252602082015260400190565b60ff91909116815260200190565b60005b83811015612f07578181015183820152602001612eef565b83811115611dc05750506000910152565b6001600160a01b0381168114612f2d57600080fd5b50565b60ff81168114612f2d57600080fdfe45524332303a207472616e7366657220746f20746865207a65726f206164647265737345524332303a206275726e20616d6f756e7420657863656564732062616c616e636545524332303a20617070726f766520746f20746865207a65726f206164647265737345524332303a207472616e7366657220616d6f756e7420657863656564732062616c616e636545524332303a207472616e7366657220616d6f756e74206578636565647320616c6c6f77616e6365436f6e747261637420696e7374616e63652068617320616c7265616479206265656e20696e697469616c697a6564ddf252ad1be2c89b69c2b068fc378daa952ba7f163c4a11628f55a4df523b3ef45524332303a206275726e2066726f6d20746865207a65726f206164647265737345524332303a207472616e736665722066726f6d20746865207a65726f206164647265737345524332303a20617070726f76652066726f6d20746865207a65726f20616464726573735361666545524332303a204552433230206f7065726174696f6e20646964206e6f74207375636365656445524332303a2064656372656173656420616c6c6f77616e63652062656c6f77207a65726fa2646970667358221220f2dda234863977950787eaebaa404e9aae69c26a2a05c433d2f17f52a2790d6c64736f6c63430007060033",
  "linkReferences": {},
  "deployedLinkReferences": {}
}