{
  "_format": "hh-sol-artifact-1",
  "contractName": "LendingPoolConfigurator",
  "sourceName": "contracts/protocol/lendingpool/LendingPoolConfigurator.sol",
  "abi": [
    {
      "anonymous": false,
      "inputs": [
        {
          "indexed": true,
          "internalType": "address",
          "name": "asset",
          "type": "address"
        },
        {
          "indexed": true,
          "internalType": "address",
          "name": "proxy",
          "type": "address"
        },
        {
          "indexed": true,
          "internalType": "address",
          "name": "implementation",
          "type": "address"
        }
      ],
      "name": "ATokenUpgraded",
      "type": "event"
    },
    {
      "anonymous": false,
      "inputs": [
        {
          "indexed": true,
          "internalType": "address",
          "name": "asset",
          "type": "address"
        }
      ],
      "name": "BorrowingDisabledOnReserve",
      "type": "event"
    },
    {
      "anonymous": false,
      "inputs": [
        {
          "indexed": true,
          "internalType": "address",
          "name": "asset",
          "type": "address"
        },
        {
          "indexed": false,
          "internalType": "bool",
          "name": "stableRateEnabled",
          "type": "bool"
        }
      ],
      "name": "BorrowingEnabledOnReserve",
      "type": "event"
    },
    {
      "anonymous": false,
      "inputs": [
        {
          "indexed": true,
          "internalType": "address",
          "name": "asset",
          "type": "address"
        },
        {
          "indexed": false,
          "internalType": "uint256",
          "name": "ltv",
          "type": "uint256"
        },
        {
          "indexed": false,
          "internalType": "uint256",
          "name": "liquidationThreshold",
          "type": "uint256"
        },
        {
          "indexed": false,
          "internalType": "uint256",
          "name": "liquidationBonus",
          "type": "uint256"
        }
      ],
      "name": "CollateralConfigurationChanged",
      "type": "event"
    },
    {
      "anonymous": false,
      "inputs": [
        {
          "indexed": true,
          "internalType": "address",
          "name": "asset",
          "type": "address"
        }
      ],
      "name": "ReserveActivated",
      "type": "event"
    },
    {
      "anonymous": false,
      "inputs": [
        {
          "indexed": true,
          "internalType": "address",
          "name": "asset",
          "type": "address"
        }
      ],
      "name": "ReserveDeactivated",
      "type": "event"
    },
    {
      "anonymous": false,
      "inputs": [
        {
          "indexed": true,
          "internalType": "address",
          "name": "asset",
          "type": "address"
        },
        {
          "indexed": false,
          "internalType": "uint256",
          "name": "decimals",
          "type": "uint256"
        }
      ],
      "name": "ReserveDecimalsChanged",
      "type": "event"
    },
    {
      "anonymous": false,
      "inputs": [
        {
          "indexed": true,
          "internalType": "address",
          "name": "asset",
          "type": "address"
        },
        {
          "indexed": false,
          "internalType": "uint256",
          "name": "factor",
          "type": "uint256"
        }
      ],
      "name": "ReserveFactorChanged",
      "type": "event"
    },
    {
      "anonymous": false,
      "inputs": [
        {
          "indexed": true,
          "internalType": "address",
          "name": "asset",
          "type": "address"
        }
      ],
      "name": "ReserveFrozen",
      "type": "event"
    },
    {
      "anonymous": false,
      "inputs": [
        {
          "indexed": true,
          "internalType": "address",
          "name": "asset",
          "type": "address"
        },
        {
          "indexed": true,
          "internalType": "address",
          "name": "aToken",
          "type": "address"
        },
        {
          "indexed": false,
          "internalType": "address",
          "name": "stableDebtToken",
          "type": "address"
        },
        {
          "indexed": false,
          "internalType": "address",
          "name": "variableDebtToken",
          "type": "address"
        },
        {
          "indexed": false,
          "internalType": "address",
          "name": "interestRateStrategyAddress",
          "type": "address"
        }
      ],
      "name": "ReserveInitialized",
      "type": "event"
    },
    {
      "anonymous": false,
      "inputs": [
        {
          "indexed": true,
          "internalType": "address",
          "name": "asset",
          "type": "address"
        },
        {
          "indexed": false,
          "internalType": "address",
          "name": "strategy",
          "type": "address"
        }
      ],
      "name": "ReserveInterestRateStrategyChanged",
      "type": "event"
    },
    {
      "anonymous": false,
      "inputs": [
        {
          "indexed": true,
          "internalType": "address",
          "name": "asset",
          "type": "address"
        },
        {
          "indexed": false,
          "internalType": "uint16",
          "name": "newTreasurySplit",
          "type": "uint16"
        }
      ],
      "name": "ReserveTreasurySplitUpdated",
      "type": "event"
    },
    {
      "anonymous": false,
      "inputs": [
        {
          "indexed": true,
          "internalType": "address",
          "name": "asset",
          "type": "address"
        }
      ],
      "name": "ReserveUnfrozen",
      "type": "event"
    },
    {
      "anonymous": false,
      "inputs": [
        {
          "indexed": true,
          "internalType": "address",
          "name": "asset",
          "type": "address"
        },
        {
          "indexed": true,
          "internalType": "address",
          "name": "proxy",
          "type": "address"
        },
        {
          "indexed": true,
          "internalType": "address",
          "name": "implementation",
          "type": "address"
        }
      ],
      "name": "StableDebtTokenUpgraded",
      "type": "event"
    },
    {
      "anonymous": false,
      "inputs": [
        {
          "indexed": true,
          "internalType": "address",
          "name": "asset",
          "type": "address"
        }
      ],
      "name": "StableRateDisabledOnReserve",
      "type": "event"
    },
    {
      "anonymous": false,
      "inputs": [
        {
          "indexed": true,
          "internalType": "address",
          "name": "asset",
          "type": "address"
        }
      ],
      "name": "StableRateEnabledOnReserve",
      "type": "event"
    },
    {
      "anonymous": false,
      "inputs": [
        {
          "indexed": true,
          "internalType": "address",
          "name": "asset",
          "type": "address"
        },
        {
          "indexed": true,
          "internalType": "address",
          "name": "proxy",
          "type": "address"
        },
        {
          "indexed": true,
          "internalType": "address",
          "name": "implementation",
          "type": "address"
        }
      ],
      "name": "VariableDebtTokenUpgraded",
      "type": "event"
    },
    {
      "inputs": [
        {
          "internalType": "address",
          "name": "asset",
          "type": "address"
        }
      ],
      "name": "activateReserve",
      "outputs": [],
      "stateMutability": "nonpayable",
      "type": "function"
    },
    {
      "inputs": [
        {
          "internalType": "address",
          "name": "asset",
          "type": "address"
        },
        {
          "internalType": "uint256",
          "name": "ltv",
          "type": "uint256"
        },
        {
          "internalType": "uint256",
          "name": "liquidationThreshold",
          "type": "uint256"
        },
        {
          "internalType": "uint256",
          "name": "liquidationBonus",
          "type": "uint256"
        },
        {
          "internalType": "uint16",
          "name": "treasurySplit",
          "type": "uint16"
        }
      ],
      "name": "configureReserveAsCollateral",
      "outputs": [],
      "stateMutability": "nonpayable",
      "type": "function"
    },
    {
      "inputs": [
        {
          "internalType": "address",
          "name": "asset",
          "type": "address"
        }
      ],
      "name": "deactivateReserve",
      "outputs": [],
      "stateMutability": "nonpayable",
      "type": "function"
    },
    {
      "inputs": [
        {
          "internalType": "address",
          "name": "asset",
          "type": "address"
        }
      ],
      "name": "disableBorrowingOnReserve",
      "outputs": [],
      "stateMutability": "nonpayable",
      "type": "function"
    },
    {
      "inputs": [
        {
          "internalType": "address",
          "name": "asset",
          "type": "address"
        },
        {
          "internalType": "bool",
          "name": "stableBorrowRateEnabled",
          "type": "bool"
        }
      ],
      "name": "enableBorrowingOnReserve",
      "outputs": [],
      "stateMutability": "nonpayable",
      "type": "function"
    },
    {
      "inputs": [
        {
          "internalType": "address",
          "name": "asset",
          "type": "address"
        }
      ],
      "name": "freezeReserve",
      "outputs": [],
      "stateMutability": "nonpayable",
      "type": "function"
    },
    {
      "inputs": [
        {
          "components": [
            {
              "internalType": "address",
              "name": "aTokenImpl",
              "type": "address"
            },
            {
              "internalType": "address",
              "name": "stableDebtTokenImpl",
              "type": "address"
            },
            {
              "internalType": "address",
              "name": "variableDebtTokenImpl",
              "type": "address"
            },
            {
              "internalType": "uint8",
              "name": "underlyingAssetDecimals",
              "type": "uint8"
            },
            {
              "internalType": "address",
              "name": "interestRateStrategyAddress",
              "type": "address"
            },
            {
              "internalType": "address",
              "name": "underlyingAsset",
              "type": "address"
            },
            {
              "internalType": "address",
              "name": "treasury",
              "type": "address"
            },
            {
              "internalType": "address",
              "name": "incentivesController",
              "type": "address"
            },
            {
              "internalType": "uint256",
              "name": "allocPoint",
              "type": "uint256"
            },
            {
              "internalType": "string",
              "name": "underlyingAssetName",
              "type": "string"
            },
            {
              "internalType": "string",
              "name": "aTokenName",
              "type": "string"
            },
            {
              "internalType": "string",
              "name": "aTokenSymbol",
              "type": "string"
            },
            {
              "internalType": "string",
              "name": "variableDebtTokenName",
              "type": "string"
            },
            {
              "internalType": "string",
              "name": "variableDebtTokenSymbol",
              "type": "string"
            },
            {
              "internalType": "string",
              "name": "stableDebtTokenName",
              "type": "string"
            },
            {
              "internalType": "string",
              "name": "stableDebtTokenSymbol",
              "type": "string"
            },
            {
              "internalType": "bytes",
              "name": "params",
              "type": "bytes"
            }
          ],
          "internalType": "struct ILendingPoolConfigurator.InitReserveInput",
          "name": "input",
          "type": "tuple"
        },
        {
          "internalType": "uint256",
          "name": "initialDepositAmount",
          "type": "uint256"
        }
      ],
      "name": "initReserve",
      "outputs": [],
      "stateMutability": "nonpayable",
      "type": "function"
    },
    {
      "inputs": [
        {
          "internalType": "contract ILendingPoolAddressesProvider",
          "name": "provider",
          "type": "address"
        }
      ],
      "name": "initialize",
      "outputs": [],
      "stateMutability": "nonpayable",
      "type": "function"
    },
    {
      "inputs": [
        {
          "internalType": "bool",
          "name": "val",
          "type": "bool"
        }
      ],
      "name": "setPoolPause",
      "outputs": [],
      "stateMutability": "nonpayable",
      "type": "function"
    },
    {
      "inputs": [
        {
          "internalType": "address",
          "name": "asset",
          "type": "address"
        },
        {
          "internalType": "uint256",
          "name": "reserveFactor",
          "type": "uint256"
        }
      ],
      "name": "setReserveFactor",
      "outputs": [],
      "stateMutability": "nonpayable",
      "type": "function"
    },
    {
      "inputs": [
        {
          "internalType": "address",
          "name": "asset",
          "type": "address"
        },
        {
          "internalType": "address",
          "name": "rateStrategyAddress",
          "type": "address"
        }
      ],
      "name": "setReserveInterestRateStrategyAddress",
      "outputs": [],
      "stateMutability": "nonpayable",
      "type": "function"
    },
    {
      "inputs": [
        {
          "internalType": "address",
          "name": "asset",
          "type": "address"
        },
        {
          "internalType": "uint16",
          "name": "newTreasurySplit",
          "type": "uint16"
        }
      ],
      "name": "setReserveTreasurySplit",
      "outputs": [],
      "stateMutability": "nonpayable",
      "type": "function"
    },
    {
      "inputs": [
        {
          "internalType": "address",
          "name": "asset",
          "type": "address"
        }
      ],
      "name": "unfreezeReserve",
      "outputs": [],
      "stateMutability": "nonpayable",
      "type": "function"
    },
    {
      "inputs": [
        {
          "components": [
            {
              "internalType": "address",
              "name": "asset",
              "type": "address"
            },
            {
              "internalType": "address",
              "name": "treasury",
              "type": "address"
            },
            {
              "internalType": "address",
              "name": "incentivesController",
              "type": "address"
            },
            {
              "internalType": "string",
              "name": "name",
              "type": "string"
            },
            {
              "internalType": "string",
              "name": "symbol",
              "type": "string"
            },
            {
              "internalType": "address",
              "name": "implementation",
              "type": "address"
            },
            {
              "internalType": "bytes",
              "name": "params",
              "type": "bytes"
            }
          ],
          "internalType": "struct ILendingPoolConfigurator.UpdateATokenInput",
          "name": "input",
          "type": "tuple"
        }
      ],
      "name": "updateAToken",
      "outputs": [],
      "stateMutability": "nonpayable",
      "type": "function"
    },
    {
      "inputs": [
        {
          "components": [
            {
              "internalType": "address",
              "name": "asset",
              "type": "address"
            },
            {
              "internalType": "address",
              "name": "incentivesController",
              "type": "address"
            },
            {
              "internalType": "string",
              "name": "name",
              "type": "string"
            },
            {
              "internalType": "string",
              "name": "symbol",
              "type": "string"
            },
            {
              "internalType": "address",
              "name": "implementation",
              "type": "address"
            },
            {
              "internalType": "bytes",
              "name": "params",
              "type": "bytes"
            }
          ],
          "internalType": "struct ILendingPoolConfigurator.UpdateDebtTokenInput",
          "name": "input",
          "type": "tuple"
        }
      ],
      "name": "updateStableDebtToken",
      "outputs": [],
      "stateMutability": "nonpayable",
      "type": "function"
    },
    {
      "inputs": [
        {
          "components": [
            {
              "internalType": "address",
              "name": "asset",
              "type": "address"
            },
            {
              "internalType": "address",
              "name": "incentivesController",
              "type": "address"
            },
            {
              "internalType": "string",
              "name": "name",
              "type": "string"
            },
            {
              "internalType": "string",
              "name": "symbol",
              "type": "string"
            },
            {
              "internalType": "address",
              "name": "implementation",
              "type": "address"
            },
            {
              "internalType": "bytes",
              "name": "params",
              "type": "bytes"
            }
          ],
          "internalType": "struct ILendingPoolConfigurator.UpdateDebtTokenInput",
          "name": "input",
          "type": "tuple"
        }
      ],
      "name": "updateVariableDebtToken",
      "outputs": [],
      "stateMutability": "nonpayable",
      "type": "function"
    }
  ],
  "bytecode": "0x60806040526000805534801561001457600080fd5b5061439f806100246000396000f3fe608060405234801561001057600080fd5b50600436106101005760003560e01c8063a8dc0f4511610097578063c269c35811610066578063c269c358146101eb578063c4d66de8146101fe578063eede87c114610211578063ef1f93731461022457610100565b8063a8dc0f451461019f578063ad4e6432146101b2578063b75d6f34146101c5578063bb01c37c146101d857610100565b80637641f3d9116100d35780637641f3d9146101535780637aca76eb146101665780638189abf014610179578063a3eb7e161461018c57610100565b80631d2118f9146101055780633e72a4541461011a5780634b4e67531461012d5780637626cde314610140575b600080fd5b6101186101133660046133b9565b610237565b005b61011861012836600461337a565b6103a9565b61011861013b366004613452565b61059d565b61011861014e366004613683565b610795565b6101186101613660046134ce565b610aaa565b61011861017436600461337a565b610bcf565b610118610187366004613506565b610dba565b61011861019a36600461347d565b61109c565b6101186101ad36600461337a565b6113cd565b6101186101c0366004613683565b6115b8565b6101186101d336600461337a565b611856565b6101186101e636600461364b565b611a41565b6101186101f936600461341e565b611cf1565b61011861020c36600461337a565b611f06565b61011861021f3660046133f1565b612057565b61011861023236600461337a565b612259565b603454604080516315d9b46f60e31b8152905133926001600160a01b03169163aecda378916004808301926020929190829003018186803b15801561027b57600080fd5b505afa15801561028f573d6000803e3d6000fd5b505050506040513d601f19601f820116820180604052508101906102b3919061339d565b6001600160a01b03161460405180604001604052806002815260200161333360f01b815250906102ff5760405162461bcd60e51b81526004016102f691906139df565b60405180910390fd5b50603554604051631d2118f960e01b81526001600160a01b0390911690631d2118f9906103329085908590600401613778565b600060405180830381600087803b15801561034c57600080fd5b505af1158015610360573d6000803e3d6000fd5b50505050816001600160a01b03167f5644b64ebb0ce18c4032248ca52f58355469092ff072866c3dcd8640e817d6a58260405161039d9190613764565b60405180910390a25050565b603454604080516315d9b46f60e31b8152905133926001600160a01b03169163aecda378916004808301926020929190829003018186803b1580156103ed57600080fd5b505afa158015610401573d6000803e3d6000fd5b505050506040513d601f19601f82011682018060405250810190610425919061339d565b6001600160a01b03161460405180604001604052806002815260200161333360f01b815250906104685760405162461bcd60e51b81526004016102f691906139df565b5061047281612444565b60355460405163c44b11f760e01b81526000916001600160a01b03169063c44b11f7906104a3908590600401613764565b60206040518083038186803b1580156104bb57600080fd5b505afa1580156104cf573d6000803e3d6000fd5b505050506040513d601f19601f820116820180604052508101906104f39190613540565b90506105008160006125a4565b6035548151604051635c69493b60e11b81526001600160a01b039092169163b8d292769161053391869190600401613813565b600060405180830381600087803b15801561054d57600080fd5b505af1158015610561573d6000803e3d6000fd5b50506040516001600160a01b03851692507f6f60cf8bd0f218cabe1ea3150bd07b0b758c35c4cfdf7138017a283e65564d5e9150600090a25050565b603454604080516315d9b46f60e31b8152905133926001600160a01b03169163aecda378916004808301926020929190829003018186803b1580156105e157600080fd5b505afa1580156105f5573d6000803e3d6000fd5b505050506040513d601f19601f82011682018060405250810190610619919061339d565b6001600160a01b03161460405180604001604052806002815260200161333360f01b8152509061065c5760405162461bcd60e51b81526004016102f691906139df565b5060355460405163c44b11f760e01b81526000916001600160a01b03169063c44b11f79061068e908690600401613764565b60206040518083038186803b1580156106a657600080fd5b505afa1580156106ba573d6000803e3d6000fd5b505050506040513d601f19601f820116820180604052508101906106de9190613540565b90506106ea81836125d2565b6035548151604051635c69493b60e11b81526001600160a01b039092169163b8d292769161071d91879190600401613813565b600060405180830381600087803b15801561073757600080fd5b505af115801561074b573d6000803e3d6000fd5b50505050826001600160a01b03167f2694ccb0b585b6a54b8d8b4a47aa874b05c257b43d34e98aee50838be00d3405836040516107889190613ac4565b60405180910390a2505050565b603454604080516315d9b46f60e31b8152905133926001600160a01b03169163aecda378916004808301926020929190829003018186803b1580156107d957600080fd5b505afa1580156107ed573d6000803e3d6000fd5b505050506040513d601f19601f82011682018060405250810190610811919061339d565b6001600160a01b03161460405180604001604052806002815260200161333360f01b815250906108545760405162461bcd60e51b81526004016102f691906139df565b506035546001600160a01b03166000816335ea6a75610876602086018661337a565b6040518263ffffffff1660e01b81526004016108929190613764565b6101806040518083038186803b1580156108ab57600080fd5b505afa1580156108bf573d6000803e3d6000fd5b505050506040513d601f19601f820116820180604052508101906108e3919061355b565b905060006109776001600160a01b03841663c44b11f7610906602088018861337a565b6040518263ffffffff1660e01b81526004016109229190613764565b60206040518083038186803b15801561093a57600080fd5b505afa15801561094e573d6000803e3d6000fd5b505050506040513d601f19601f820116820180604052508101906109729190613540565b612694565b50935060009250636111764560e11b9150859050610998602088018861337a565b6109a86040890160208a0161337a565b856109b660408b018b613b2f565b6109c360608d018d613b2f565b6109d060a08f018f613ae3565b6040516024016109e99a9998979695949392919061392c565b60408051601f198184030181529190526020810180516001600160e01b03166001600160e01b031990931692909217909152610100840151909150610a3e90610a3860a088016080890161337a565b836126bf565b610a4e60a086016080870161337a565b6101008401516001600160a01b039182169116610a6e602088018861337a565b6001600160a01b03167f7a943a5b6c214bf7726c069a878b1e2a8e7371981d516048b84e03743e67bc2860405160405180910390a45050505050565b60345460408051636ee554f560e11b8152905133926001600160a01b03169163ddcaa9ea916004808301926020929190829003018186803b158015610aee57600080fd5b505afa158015610b02573d6000803e3d6000fd5b505050506040513d601f19601f82011682018060405250810190610b26919061339d565b6001600160a01b031614604051806040016040528060028152602001611b9b60f11b81525090610b695760405162461bcd60e51b81526004016102f691906139df565b5060355460405163bedb86fb60e01b81526001600160a01b039091169063bedb86fb90610b9a908490600401613859565b600060405180830381600087803b158015610bb457600080fd5b505af1158015610bc8573d6000803e3d6000fd5b5050505050565b603454604080516315d9b46f60e31b8152905133926001600160a01b03169163aecda378916004808301926020929190829003018186803b158015610c1357600080fd5b505afa158015610c27573d6000803e3d6000fd5b505050506040513d601f19601f82011682018060405250810190610c4b919061339d565b6001600160a01b03161460405180604001604052806002815260200161333360f01b81525090610c8e5760405162461bcd60e51b81526004016102f691906139df565b5060355460405163c44b11f760e01b81526000916001600160a01b03169063c44b11f790610cc0908590600401613764565b60206040518083038186803b158015610cd857600080fd5b505afa158015610cec573d6000803e3d6000fd5b505050506040513d601f19601f82011682018060405250810190610d109190613540565b9050610d1d8160016126ef565b6035548151604051635c69493b60e11b81526001600160a01b039092169163b8d2927691610d5091869190600401613813565b600060405180830381600087803b158015610d6a57600080fd5b505af1158015610d7e573d6000803e3d6000fd5b50506040516001600160a01b03851692507f85dc710add8a0914461a7dc5a63f6fc529a7700f8c6089a3faf5e93256ccf12a9150600090a25050565b603454604080516315d9b46f60e31b8152905133926001600160a01b03169163aecda378916004808301926020929190829003018186803b158015610dfe57600080fd5b505afa158015610e12573d6000803e3d6000fd5b505050506040513d601f19601f82011682018060405250810190610e36919061339d565b6001600160a01b03161460405180604001604052806002815260200161333360f01b81525090610e795760405162461bcd60e51b81526004016102f691906139df565b5060008111610e9a5760405162461bcd60e51b81526004016102f6906139f2565b6035546001600160a01b0316610eb0818461271d565b6000610ec260c0850160a0860161337a565b6001600160a01b031663dd62ed3e33306040518363ffffffff1660e01b8152600401610eef929190613778565b60206040518083038186803b158015610f0757600080fd5b505afa158015610f1b573d6000803e3d6000fd5b505050506040513d601f19601f82011682018060405250810190610f3f91906136bb565b905082811015610f615760405162461bcd60e51b81526004016102f690613a6b565b610f88333085610f7760c0890160a08a0161337a565b6001600160a01b0316929190612c84565b610f9860c0850160a0860161337a565b60355460405163095ea7b360e01b81526001600160a01b039283169263095ea7b392610fcb929116908790600401613813565b602060405180830381600087803b158015610fe557600080fd5b505af1158015610ff9573d6000803e3d6000fd5b505050506040513d601f19601f8201168201806040525081019061101d91906134ea565b506035546001600160a01b031663e8eda9df61103f60c0870160a0880161337a565b8561dead60006040518563ffffffff1660e01b8152600401611064949392919061382c565b600060405180830381600087803b15801561107e57600080fd5b505af1158015611092573d6000803e3d6000fd5b5050505050505050565b603454604080516315d9b46f60e31b8152905133926001600160a01b03169163aecda378916004808301926020929190829003018186803b1580156110e057600080fd5b505afa1580156110f4573d6000803e3d6000fd5b505050506040513d601f19601f82011682018060405250810190611118919061339d565b6001600160a01b03161460405180604001604052806002815260200161333360f01b8152509061115b5760405162461bcd60e51b81526004016102f691906139df565b5060355460405163c44b11f760e01b81526000916001600160a01b03169063c44b11f79061118d908990600401613764565b60206040518083038186803b1580156111a557600080fd5b505afa1580156111b9573d6000803e3d6000fd5b505050506040513d601f19601f820116820180604052508101906111dd9190613540565b90508385111560405180604001604052806002815260200161373560f01b8152509061121c5760405162461bcd60e51b81526004016102f691906139df565b5083156112ad57604080518082019091526002815261373560f01b6020820152612710841161125e5760405162461bcd60e51b81526004016102f691906139df565b5061271061126c8585612cde565b111560405180604001604052806002815260200161373560f01b815250906112a75760405162461bcd60e51b81526004016102f691906139df565b506112ef565b604080518082019091526002815261373560f01b602082015283156112e55760405162461bcd60e51b81526004016102f691906139df565b506112ef86612444565b6112f98186612d83565b6113038185612dfa565b61130d8184612e79565b61131b8161ffff8416612efa565b6035548151604051635c69493b60e11b81526001600160a01b039092169163b8d292769161134e918a9190600401613813565b600060405180830381600087803b15801561136857600080fd5b505af115801561137c573d6000803e3d6000fd5b50505050856001600160a01b03167f637febbda9275aea2e85c0ff690444c8d87eb2e8339bbede9715abcc89cb09958686866040516113bd93929190613acd565b60405180910390a2505050505050565b603454604080516315d9b46f60e31b8152905133926001600160a01b03169163aecda378916004808301926020929190829003018186803b15801561141157600080fd5b505afa158015611425573d6000803e3d6000fd5b505050506040513d601f19601f82011682018060405250810190611449919061339d565b6001600160a01b03161460405180604001604052806002815260200161333360f01b8152509061148c5760405162461bcd60e51b81526004016102f691906139df565b5060355460405163c44b11f760e01b81526000916001600160a01b03169063c44b11f7906114be908590600401613764565b60206040518083038186803b1580156114d657600080fd5b505afa1580156114ea573d6000803e3d6000fd5b505050506040513d601f19601f8201168201806040525081019061150e9190613540565b905061151b816000612f5f565b6035548151604051635c69493b60e11b81526001600160a01b039092169163b8d292769161154e91869190600401613813565b600060405180830381600087803b15801561156857600080fd5b505af115801561157c573d6000803e3d6000fd5b50506040516001600160a01b03851692507fe9a7e5fd4fc8ea18e602350324bf48e8f05d12434af0ce0be05743e6a5fdcb9e9150600090a25050565b603454604080516315d9b46f60e31b8152905133926001600160a01b03169163aecda378916004808301926020929190829003018186803b1580156115fc57600080fd5b505afa158015611610573d6000803e3d6000fd5b505050506040513d601f19601f82011682018060405250810190611634919061339d565b6001600160a01b03161460405180604001604052806002815260200161333360f01b815250906116775760405162461bcd60e51b81526004016102f691906139df565b506035546001600160a01b03166000816335ea6a75611699602086018661337a565b6040518263ffffffff1660e01b81526004016116b59190613764565b6101806040518083038186803b1580156116ce57600080fd5b505afa1580156116e2573d6000803e3d6000fd5b505050506040513d601f19601f82011682018060405250810190611706919061355b565b905060006117296001600160a01b03841663c44b11f7610906602088018861337a565b50935060009250636111764560e11b915085905061174a602088018861337a565b61175a6040890160208a0161337a565b8561176860408b018b613b2f565b61177560608d018d613b2f565b61178260a08f018f613ae3565b60405160240161179b9a9998979695949392919061392c565b60408051601f198184030181529190526020810180516001600160e01b03166001600160e01b0319909316929092179091526101208401519091506117ea90610a3860a088016080890161337a565b6117fa60a086016080870161337a565b6101208401516001600160a01b03918216911661181a602088018861337a565b6001600160a01b03167f9439658a562a5c46b1173589df89cf001483d685bad28aedaff4a88656292d8160405160405180910390a45050505050565b603454604080516315d9b46f60e31b8152905133926001600160a01b03169163aecda378916004808301926020929190829003018186803b15801561189a57600080fd5b505afa1580156118ae573d6000803e3d6000fd5b505050506040513d601f19601f820116820180604052508101906118d2919061339d565b6001600160a01b03161460405180604001604052806002815260200161333360f01b815250906119155760405162461bcd60e51b81526004016102f691906139df565b5060355460405163c44b11f760e01b81526000916001600160a01b03169063c44b11f790611947908590600401613764565b60206040518083038186803b15801561195f57600080fd5b505afa158015611973573d6000803e3d6000fd5b505050506040513d601f19601f820116820180604052508101906119979190613540565b90506119a48160016125a4565b6035548151604051635c69493b60e11b81526001600160a01b039092169163b8d29276916119d791869190600401613813565b600060405180830381600087803b1580156119f157600080fd5b505af1158015611a05573d6000803e3d6000fd5b50506040516001600160a01b03851692507f35b80cd8ea3440e9a8454f116fa658b858da1b64c86c48451f4559cefcdfb56c9150600090a25050565b603454604080516315d9b46f60e31b8152905133926001600160a01b03169163aecda378916004808301926020929190829003018186803b158015611a8557600080fd5b505afa158015611a99573d6000803e3d6000fd5b505050506040513d601f19601f82011682018060405250810190611abd919061339d565b6001600160a01b03161460405180604001604052806002815260200161333360f01b81525090611b005760405162461bcd60e51b81526004016102f691906139df565b506035546001600160a01b03166000816335ea6a75611b22602086018661337a565b6040518263ffffffff1660e01b8152600401611b3e9190613764565b6101806040518083038186803b158015611b5757600080fd5b505afa158015611b6b573d6000803e3d6000fd5b505050506040513d601f19601f82011682018060405250810190611b8f919061355b565b90506000611bb26001600160a01b03841663c44b11f7610906602088018861337a565b5093506000925063183fb41360e01b9150859050611bd6604088016020890161337a565b611be3602089018961337a565b611bf360608a0160408b0161337a565b86611c0160608c018c613b2f565b611c0e60808e018e613b2f565b8e8060c00190611c1e9190613ae3565b604051602401611c389b9a99989796959493929190613864565b60408051601f198184030181529190526020810180516001600160e01b03166001600160e01b03199093169290921790915260e0840151909150611c8690610a3860c0880160a0890161337a565b611c9660c0860160a0870161337a565b60e08401516001600160a01b039182169116611cb5602088018861337a565b6001600160a01b03167fa76f65411ec66a7fb6bc467432eb14767900449ae4469fa295e4441fe5e1cb7360405160405180910390a45050505050565b603454604080516315d9b46f60e31b8152905133926001600160a01b03169163aecda378916004808301926020929190829003018186803b158015611d3557600080fd5b505afa158015611d49573d6000803e3d6000fd5b505050506040513d601f19601f82011682018060405250810190611d6d919061339d565b6001600160a01b03161460405180604001604052806002815260200161333360f01b81525090611db05760405162461bcd60e51b81526004016102f691906139df565b506127108161ffff161115611dd75760405162461bcd60e51b81526004016102f690613a3b565b60355460405163c44b11f760e01b81526000916001600160a01b03169063c44b11f790611e08908690600401613764565b60206040518083038186803b158015611e2057600080fd5b505afa158015611e34573d6000803e3d6000fd5b505050506040513d601f19601f82011682018060405250810190611e589190613540565b9050611e688161ffff8416612efa565b6035548151604051635c69493b60e11b81526001600160a01b039092169163b8d2927691611e9b91879190600401613813565b600060405180830381600087803b158015611eb557600080fd5b505af1158015611ec9573d6000803e3d6000fd5b50505050826001600160a01b03167f0cf00e96cc653160a4d73529c9781a015fbda4c2696f56267d3685ed56943241836040516107889190613ab5565b6000611f10612f8d565b60015490915060ff1680611f275750611f27612f92565b80611f33575060005481115b611f6e5760405162461bcd60e51b815260040180806020018281038252602e815260200180614312602e913960400191505060405180910390fd5b60015460ff16158015611f8d576001805460ff19168117905560008290555b603480546001600160a01b0319166001600160a01b03858116919091179182905560408051630261bf8b60e01b815290519290911691630261bf8b91600480820192602092909190829003018186803b158015611fe957600080fd5b505afa158015611ffd573d6000803e3d6000fd5b505050506040513d601f19601f82011682018060405250810190612021919061339d565b603580546001600160a01b0319166001600160a01b03929092169190911790558015612052576001805460ff191690555b505050565b603454604080516315d9b46f60e31b8152905133926001600160a01b03169163aecda378916004808301926020929190829003018186803b15801561209b57600080fd5b505afa1580156120af573d6000803e3d6000fd5b505050506040513d601f19601f820116820180604052508101906120d3919061339d565b6001600160a01b03161460405180604001604052806002815260200161333360f01b815250906121165760405162461bcd60e51b81526004016102f691906139df565b50801561212257600080fd5b60355460405163c44b11f760e01b81526000916001600160a01b03169063c44b11f790612153908690600401613764565b60206040518083038186803b15801561216b57600080fd5b505afa15801561217f573d6000803e3d6000fd5b505050506040513d601f19601f820116820180604052508101906121a39190613540565b90506121b0816001612f5f565b6121bb816000612f98565b6035548151604051635c69493b60e11b81526001600160a01b039092169163b8d29276916121ee91879190600401613813565b600060405180830381600087803b15801561220857600080fd5b505af115801561221c573d6000803e3d6000fd5b50505050826001600160a01b03167fab2f7f9e5ca2772fafa94f355c1842a80ae6b9e41f83083098d81f67d7a0b508836040516107889190613859565b603454604080516315d9b46f60e31b8152905133926001600160a01b03169163aecda378916004808301926020929190829003018186803b15801561229d57600080fd5b505afa1580156122b1573d6000803e3d6000fd5b505050506040513d601f19601f820116820180604052508101906122d5919061339d565b6001600160a01b03161460405180604001604052806002815260200161333360f01b815250906123185760405162461bcd60e51b81526004016102f691906139df565b5060355460405163c44b11f760e01b81526000916001600160a01b03169063c44b11f79061234a908590600401613764565b60206040518083038186803b15801561236257600080fd5b505afa158015612376573d6000803e3d6000fd5b505050506040513d601f19601f8201168201806040525081019061239a9190613540565b90506123a78160006126ef565b6035548151604051635c69493b60e11b81526001600160a01b039092169163b8d29276916123da91869190600401613813565b600060405180830381600087803b1580156123f457600080fd5b505af1158015612408573d6000803e3d6000fd5b50506040516001600160a01b03851692507f838ecdc4709a31a26db48b0c853212cedde3f725f07030079d793fb0719647609150600090a25050565b6035546040516335ea6a7560e01b81526000916001600160a01b0316906335ea6a7590612475908590600401613764565b6101806040518083038186803b15801561248e57600080fd5b505afa1580156124a2573d6000803e3d6000fd5b505050506040513d601f19601f820116820180604052508101906124c6919061355b565b90506000826001600160a01b03166370a082318360e001516040518263ffffffff1660e01b81526004016124fa9190613764565b60206040518083038186803b15801561251257600080fd5b505afa158015612526573d6000803e3d6000fd5b505050506040513d601f19601f8201168201806040525081019061254a91906136bb565b905080158015612565575060608201516001600160801b0316155b604051806040016040528060028152602001610ccd60f21b8152509061259e5760405162461bcd60e51b81526004016102f691906139df565b50505050565b6038816125b25760006125b5565b60015b8351670100000000000000191660ff9190911690911b1790915250565b604080518082019091526002815261373160f01b602082015261ffff8211156126795760405162461bcd60e51b81526004018080602001828103825283818151815260200191508051906020019080838360005b8381101561263e578181015183820152602001612626565b50505050905090810190601f16801561266b5780820380516001836020036101000a031916815260200191505b509250505060405180910390fd5b50815169ffff0000000000000000191660409190911b179052565b5161ffff80821692601083901c821692602081901c831692603082901c60ff169260409290921c1690565b60405163278f794360e11b815283906001600160a01b03821690634f1ef2869061106490869086906004016137e7565b6039816126fd576000612700565b60015b8351670200000000000000191660ff9190911690911b1790915250565b6000612730610100830160e0840161337a565b905060006127fc612744602085018561337a565b63183fb41360e01b8661275d60e0880160c0890161337a565b61276d60c0890160a08a0161337a565b8761277e60808b0160608c016136d3565b61278c6101408c018c613b2f565b61279a6101608e018e613b2f565b8e8061020001906127ab9190613ae3565b6040516024016127c59b9a999897969594939291906138e5565b60408051601f198184030181529190526020810180516001600160e01b03166001600160e01b031990931692909217909152612fc6565b604051631954e55d60e11b81529091506001600160a01b038316906332a9caba9061283290849061010088013590600401613813565b600060405180830381600087803b15801561284c57600080fd5b505af1158015612860573d6000803e3d6000fd5b506128759250505060e0840160c0850161337a565b6001600160a01b0316639c9b2e21826040518263ffffffff1660e01b81526004016128a09190613764565b600060405180830381600087803b1580156128ba57600080fd5b505af11580156128ce573d6000803e3d6000fd5b50505050600061296a8460200160208101906128ea919061337a565b636111764560e11b8761290360c0890160a08a0161337a565b6129146101008a0160e08b0161337a565b61292460808b0160608c016136d3565b6129326101c08c018c613b2f565b6129406101e08e018e613b2f565b8e8061020001906129519190613ae3565b6040516024016127c59a999897969594939291906139a1565b905060006129e8612981606087016040880161337a565b636111764560e11b8861299a60c08a0160a08b0161337a565b6129ab6101008b0160e08c0161337a565b6129bb60808c0160608d016136d3565b6129c96101808d018d613b2f565b6129d76101a08f018f613b2f565b8f8061020001906129519190613ae3565b604051631954e55d60e11b81529091506001600160a01b038516906332a9caba90612a1e9084906101008a013590600401613813565b600060405180830381600087803b158015612a3857600080fd5b505af1158015612a4c573d6000803e3d6000fd5b5050506001600160a01b0387169050637a708e92612a7060c0880160a0890161337a565b858585612a8360a08c0160808d0161337a565b6040518663ffffffff1660e01b8152600401612aa39594939291906137b5565b600060405180830381600087803b158015612abd57600080fd5b505af1158015612ad1573d6000803e3d6000fd5b506000925050506001600160a01b03871663c44b11f7612af760c0890160a08a0161337a565b6040518263ffffffff1660e01b8152600401612b139190613764565b60206040518083038186803b158015612b2b57600080fd5b505afa158015612b3f573d6000803e3d6000fd5b505050506040513d601f19601f82011682018060405250810190612b639190613540565b9050612b82612b7860808801606089016136d3565b829060ff16613068565b612b8d8160016125a4565b612b988160006126ef565b6001600160a01b03871663b8d29276612bb760c0890160a08a0161337a565b83516040516001600160e01b031960e085901b168152612bdb929190600401613813565b600060405180830381600087803b158015612bf557600080fd5b505af1158015612c09573d6000803e3d6000fd5b5050506001600160a01b0385169050612c2860c0880160a0890161337a565b6001600160a01b03167f3a0ca721fc364424566385a1aa271ed508cc2c0949c2272575fb3013a163a45f8585612c6460a08c0160808d0161337a565b604051612c7393929190613792565b60405180910390a350505050505050565b604080516001600160a01b0380861660248301528416604482015260648082018490528251808303909101815260849091019091526020810180516001600160e01b03166323b872dd60e01b17905261259e9085906130e9565b6000821580612ceb575081155b15612cf857506000612d7d565b816113881981612d0457fe5b0483111560405180604001604052806002815260200161068760f31b81525090612d6f5760405162461bcd60e51b815260206004820181815283516024840152835190928392604490910191908501908083836000831561263e578181015183820152602001612626565b505061271061138882840201045b92915050565b604080518082019091526002815261363760f01b602082015261ffff821115612ded5760405162461bcd60e51b815260206004820181815283516024840152835190928392604490910191908501908083836000831561263e578181015183820152602001612626565b50815161ffff1916179052565b60408051808201909152600281526106c760f31b602082015261ffff821115612e645760405162461bcd60e51b815260206004820181815283516024840152835190928392604490910191908501908083836000831561263e578181015183820152602001612626565b50815163ffff0000191660109190911b179052565b604080518082019091526002815261363960f01b602082015261ffff821115612ee35760405162461bcd60e51b815260206004820181815283516024840152835190928392604490910191908501908083836000831561263e578181015183820152602001612626565b50815165ffff00000000191660209190911b179052565b612710811115612f4a576040805162461bcd60e51b8152602060048201526016602482015275125b9d985b1a59081d1c99585cdd5c9e481cdc1b1a5d60521b604482015290519081900360640190fd5b8151613fff60501b191660509190911b179052565b603a81612f6d576000612f70565b60015b8351670400000000000000191660ff9190911690911b1790915250565b600190565b303b1590565b603b81612fa6576000612fa9565b60015b8351670800000000000000191660ff9190911690911b1790915250565b60008030604051612fd6906132de565b612fe09190613764565b604051809103906000f080158015612ffc573d6000803e3d6000fd5b5060405163347d5e2560e21b81529091506001600160a01b0382169063d1f578949061302e90879087906004016137e7565b600060405180830381600087803b15801561304857600080fd5b505af115801561305c573d6000803e3d6000fd5b50929695505050505050565b604080518082019091526002815261037360f41b602082015260ff8211156130d15760405162461bcd60e51b815260206004820181815283516024840152835190928392604490910191908501908083836000831561263e578181015183820152602001612626565b50815166ff000000000000191660309190911b179052565b6130fb826001600160a01b03166132a0565b61314c576040805162461bcd60e51b815260206004820152601f60248201527f5361666545524332303a2063616c6c20746f206e6f6e2d636f6e747261637400604482015290519081900360640190fd5b600080836001600160a01b0316836040518082805190602001908083835b602083106131895780518252601f19909201916020918201910161316a565b6001836020036101000a0380198251168184511680821785525050505050509050019150506000604051808303816000865af19150503d80600081146131eb576040519150601f19603f3d011682016040523d82523d6000602084013e6131f0565b606091505b509150915081613247576040805162461bcd60e51b815260206004820181905260248201527f5361666545524332303a206c6f772d6c6576656c2063616c6c206661696c6564604482015290519081900360640190fd5b80511561259e5780806020019051602081101561326357600080fd5b505161259e5760405162461bcd60e51b815260040180806020018281038252602a815260200180614340602a913960400191505060405180910390fd5b6000813f7fc5d2460186f7233c927e7db2dcc703c0e500b653ca82273b7bfad8045d85a4708181148015906132d457508115155b925050505b919050565b61077380613b9f83390190565b80516132d981613b69565b600060208284031215613307578081fd5b6040516020810181811067ffffffffffffffff8211171561332457fe5b6040529151825250919050565b80516001600160801b03811681146132d957600080fd5b803561ffff811681146132d957600080fd5b805164ffffffffff811681146132d957600080fd5b80516132d981613b8f565b60006020828403121561338b578081fd5b813561339681613b69565b9392505050565b6000602082840312156133ae578081fd5b815161339681613b69565b600080604083850312156133cb578081fd5b82356133d681613b69565b915060208301356133e681613b69565b809150509250929050565b60008060408385031215613403578182fd5b823561340e81613b69565b915060208301356133e681613b81565b60008060408385031215613430578182fd5b823561343b81613b69565b915061344960208401613348565b90509250929050565b60008060408385031215613464578182fd5b823561346f81613b69565b946020939093013593505050565b600080600080600060a08688031215613494578081fd5b853561349f81613b69565b94506020860135935060408601359250606086013591506134c260808701613348565b90509295509295909350565b6000602082840312156134df578081fd5b813561339681613b81565b6000602082840312156134fb578081fd5b815161339681613b81565b60008060408385031215613518578182fd5b823567ffffffffffffffff81111561352e578283fd5b8301610220818603121561346f578283fd5b600060208284031215613551578081fd5b61339683836132f6565b600061018080838503121561356e578182fd5b61357781613b45565b905061358384846132f6565b815261359160208401613331565b60208201526135a260408401613331565b60408201526135b360608401613331565b60608201526135c460808401613331565b60808201526135d560a08401613331565b60a08201526135e660c0840161335a565b60c08201526135f760e084016132eb565b60e082015261010061360a8185016132eb565b9082015261012061361c8482016132eb565b9082015261014061362e8482016132eb565b9082015261016061364084820161336f565b908201529392505050565b60006020828403121561365c578081fd5b813567ffffffffffffffff811115613672578182fd5b820160e08185031215613396578182fd5b600060208284031215613694578081fd5b813567ffffffffffffffff8111156136aa578182fd5b820160c08185031215613396578182fd5b6000602082840312156136cc578081fd5b5051919050565b6000602082840312156136e4578081fd5b813561339681613b8f565b60008284528282602086013780602084860101526020601f19601f85011685010190509392505050565b60008151808452815b8181101561373e57602081850181015186830182015201613722565b8181111561374f5782602083870101525b50601f01601f19169290920160200192915050565b6001600160a01b0391909116815260200190565b6001600160a01b0392831681529116602082015260400190565b6001600160a01b0393841681529183166020830152909116604082015260600190565b6001600160a01b0395861681529385166020850152918416604084015283166060830152909116608082015260a00190565b6001600160a01b038316815260406020820181905260009061380b90830184613719565b949350505050565b6001600160a01b03929092168252602082015260400190565b6001600160a01b03948516815260208101939093529216604082015261ffff909116606082015260800190565b901515815260200190565b6001600160a01b038c811682528b811660208301528a81166040830152891660608201526080810188905261010060a082018190526000906138a9838201898b6136ef565b905082810360c08401526138be8187896136ef565b905082810360e08401526138d38185876136ef565b9e9d5050505050505050505050505050565b6001600160a01b038c811682528b811660208301528a811660408301528916606082015260ff8816608082015261010060a082018190526000906138a9838201898b6136ef565b6001600160a01b038b811682528a81166020830152891660408201526060810188905260e060808201819052600090613968908301888a6136ef565b82810360a084015261397b8187896136ef565b905082810360c08401526139908185876136ef565b9d9c50505050505050505050505050565b6001600160a01b038b811682528a811660208301528916604082015260ff8816606082015260e060808201819052600090613968908301888a6136ef565b6000602082526133966020830184613719565b60208082526029908201527f496e697469616c206465706f736974206d7573742062652067726561746572206040820152687468616e207a65726f60b81b606082015260800190565b602080825260169082015275125b9d985b1a59081d1c99585cdd5c9e481cdc1b1a5d60521b604082015260600190565b6020808252602a908201527f496e73756666696369656e7420616c6c6f77616e636520666f7220696e697469604082015269185b0819195c1bdcda5d60b21b606082015260800190565b61ffff91909116815260200190565b90815260200190565b9283526020830191909152604082015260600190565b6000808335601e19843603018112613af9578283fd5b83018035915067ffffffffffffffff821115613b13578283fd5b602001915036819003821315613b2857600080fd5b9250929050565b6000808335601e19843603018112613af9578182fd5b60405181810167ffffffffffffffff81118282101715613b6157fe5b604052919050565b6001600160a01b0381168114613b7e57600080fd5b50565b8015158114613b7e57600080fd5b60ff81168114613b7e57600080fdfe60a060405234801561001057600080fd5b506040516107733803806107738339818101604052602081101561003357600080fd5b5051606081901b6001600160601b0319166080526001600160a01b03166106f36100806000398061022852806102725280610331528061045e528061048752806105af52506106f36000f3fe60806040526004361061004a5760003560e01c80633659cfe6146100545780634f1ef286146100875780635c60da1b14610107578063d1f5789414610138578063f851a440146101ee575b610052610203565b005b34801561006057600080fd5b506100526004803603602081101561007757600080fd5b50356001600160a01b031661021d565b6100526004803603604081101561009d57600080fd5b6001600160a01b0382351691908101906040810160208201356401000000008111156100c857600080fd5b8201836020820111156100da57600080fd5b803590602001918460018302840111640100000000831117156100fc57600080fd5b509092509050610267565b34801561011357600080fd5b5061011c610324565b604080516001600160a01b039092168252519081900360200190f35b6100526004803603604081101561014e57600080fd5b6001600160a01b03823516919081019060408101602082013564010000000081111561017957600080fd5b82018360208201111561018b57600080fd5b803590602001918460018302840111640100000000831117156101ad57600080fd5b91908080601f016020809104026020016040519081016040528093929190818152602001838380828437600092019190915250929550610371945050505050565b3480156101fa57600080fd5b5061011c610451565b61020b6104ab565b61021b6102166104b3565b6104d8565b565b336001600160a01b037f000000000000000000000000000000000000000000000000000000000000000016141561025c57610257816104fc565b610264565b610264610203565b50565b336001600160a01b037f0000000000000000000000000000000000000000000000000000000000000000161415610317576102a1836104fc565b6000836001600160a01b031683836040518083838082843760405192019450600093509091505080830381855af49150503d80600081146102fe576040519150601f19603f3d011682016040523d82523d6000602084013e610303565b606091505b505090508061031157600080fd5b5061031f565b61031f610203565b505050565b6000336001600160a01b037f00000000000000000000000000000000000000000000000000000000000000001614156103665761035f6104b3565b905061036e565b61036e610203565b90565b600061037b6104b3565b6001600160a01b03161461038e57600080fd5b6103978261053c565b80511561044d576000826001600160a01b0316826040518082805190602001908083835b602083106103da5780518252601f1990920191602091820191016103bb565b6001836020036101000a038019825116818451168082178552505050505050905001915050600060405180830381855af49150503d806000811461043a576040519150601f19603f3d011682016040523d82523d6000602084013e61043f565b606091505b505090508061031f57600080fd5b5050565b6000336001600160a01b037f000000000000000000000000000000000000000000000000000000000000000016141561036657507f000000000000000000000000000000000000000000000000000000000000000061036e565b61021b6105a4565b7f360894a13ba1a3210667c828492db98dca3e2076cc3735a920a3ca505d382bbc5490565b3660008037600080366000845af43d6000803e8080156104f7573d6000f35b3d6000fd5b6105058161053c565b6040516001600160a01b038216907fbc7cd75a20ee27fd9adebab32041f755214dbc6bffa90cc0225b39da2e5c2d3b90600090a250565b61054581610614565b6105805760405162461bcd60e51b815260040180806020018281038252603b815260200180610683603b913960400191505060405180910390fd5b7f360894a13ba1a3210667c828492db98dca3e2076cc3735a920a3ca505d382bbc55565b336001600160a01b037f000000000000000000000000000000000000000000000000000000000000000016141561060c5760405162461bcd60e51b81526004018080602001828103825260328152602001806106516032913960400191505060405180910390fd5b61021b61021b565b6000813f7fc5d2460186f7233c927e7db2dcc703c0e500b653ca82273b7bfad8045d85a47081811480159061064857508115155b94935050505056fe43616e6e6f742063616c6c2066616c6c6261636b2066756e6374696f6e2066726f6d207468652070726f78792061646d696e43616e6e6f742073657420612070726f787920696d706c656d656e746174696f6e20746f2061206e6f6e2d636f6e74726163742061646472657373a264697066735822122073b55daa7f89d3e591cab6fdfa6c646238d660074d642f871774c33cfc5a588664736f6c63430007060033436f6e747261637420696e7374616e63652068617320616c7265616479206265656e20696e697469616c697a65645361666545524332303a204552433230206f7065726174696f6e20646964206e6f742073756363656564a264697066735822122038f1ae796246181429ff5cabdde0a291224a85034812ccea5c6c6df1d82cd31a64736f6c63430007060033",
  "linkReferences": {},
  "deployedLinkReferences": {}
}