{
  "_format": "hh-sol-artifact-1",
  "contractName": "AaveLiquidationBot",
  "sourceName": "contracts/protocol/Liquidator.sol",
  "abi": [
    {
      "inputs": [
        {
          "internalType": "address",
          "name": "_admin",
          "type": "address"
        }
      ],
      "stateMutability": "nonpayable",
      "type": "constructor"
    },
    {
      "inputs": [],
      "name": "AccessControlBadConfirmation",
      "type": "error"
    },
    {
      "inputs": [
        {
          "internalType": "address",
          "name": "account",
          "type": "address"
        },
        {
          "internalType": "bytes32",
          "name": "neededRole",
          "type": "bytes32"
        }
      ],
      "name": "AccessControlUnauthorizedAccount",
      "type": "error"
    },
    {
      "inputs": [],
      "name": "ReentrancyGuardReentrantCall",
      "type": "error"
    },
    {
      "inputs": [
        {
          "internalType": "address",
          "name": "token",
          "type": "address"
        }
      ],
      "name": "SafeERC20FailedOperation",
      "type": "error"
    },
    {
      "anonymous": false,
      "inputs": [
        {
          "indexed": true,
          "internalType": "address",
          "name": "user",
          "type": "address"
        },
        {
          "indexed": false,
          "internalType": "address",
          "name": "collateralAsset",
          "type": "address"
        },
        {
          "indexed": false,
          "internalType": "address",
          "name": "debtAsset",
          "type": "address"
        },
        {
          "indexed": false,
          "internalType": "uint256",
          "name": "profit",
          "type": "uint256"
        }
      ],
      "name": "LiquidationExecuted",
      "type": "event"
    },
    {
      "anonymous": false,
      "inputs": [
        {
          "indexed": true,
          "internalType": "bytes32",
          "name": "role",
          "type": "bytes32"
        },
        {
          "indexed": true,
          "internalType": "bytes32",
          "name": "previousAdminRole",
          "type": "bytes32"
        },
        {
          "indexed": true,
          "internalType": "bytes32",
          "name": "newAdminRole",
          "type": "bytes32"
        }
      ],
      "name": "RoleAdminChanged",
      "type": "event"
    },
    {
      "anonymous": false,
      "inputs": [
        {
          "indexed": true,
          "internalType": "bytes32",
          "name": "role",
          "type": "bytes32"
        },
        {
          "indexed": true,
          "internalType": "address",
          "name": "account",
          "type": "address"
        },
        {
          "indexed": true,
          "internalType": "address",
          "name": "sender",
          "type": "address"
        }
      ],
      "name": "RoleGranted",
      "type": "event"
    },
    {
      "anonymous": false,
      "inputs": [
        {
          "indexed": true,
          "internalType": "bytes32",
          "name": "role",
          "type": "bytes32"
        },
        {
          "indexed": true,
          "internalType": "address",
          "name": "account",
          "type": "address"
        },
        {
          "indexed": true,
          "internalType": "address",
          "name": "sender",
          "type": "address"
        }
      ],
      "name": "RoleRevoked",
      "type": "event"
    },
    {
      "inputs": [],
      "name": "DEFAULT_ADMIN_ROLE",
      "outputs": [
        {
          "internalType": "bytes32",
          "name": "",
          "type": "bytes32"
        }
      ],
      "stateMutability": "view",
      "type": "function"
    },
    {
      "inputs": [],
      "name": "LIQUIDATOR_ROLE",
      "outputs": [
        {
          "internalType": "bytes32",
          "name": "",
          "type": "bytes32"
        }
      ],
      "stateMutability": "view",
      "type": "function"
    },
    {
      "inputs": [
        {
          "internalType": "bytes32",
          "name": "role",
          "type": "bytes32"
        },
        {
          "internalType": "address",
          "name": "account",
          "type": "address"
        }
      ],
      "name": "addRole",
      "outputs": [],
      "stateMutability": "nonpayable",
      "type": "function"
    },
    {
      "inputs": [
        {
          "internalType": "bytes32",
          "name": "role",
          "type": "bytes32"
        }
      ],
      "name": "getRoleAdmin",
      "outputs": [
        {
          "internalType": "bytes32",
          "name": "",
          "type": "bytes32"
        }
      ],
      "stateMutability": "view",
      "type": "function"
    },
    {
      "inputs": [
        {
          "internalType": "bytes32",
          "name": "role",
          "type": "bytes32"
        },
        {
          "internalType": "address",
          "name": "account",
          "type": "address"
        }
      ],
      "name": "grantRole",
      "outputs": [],
      "stateMutability": "nonpayable",
      "type": "function"
    },
    {
      "inputs": [
        {
          "internalType": "bytes32",
          "name": "role",
          "type": "bytes32"
        },
        {
          "internalType": "address",
          "name": "account",
          "type": "address"
        }
      ],
      "name": "hasRole",
      "outputs": [
        {
          "internalType": "bool",
          "name": "",
          "type": "bool"
        }
      ],
      "stateMutability": "view",
      "type": "function"
    },
    {
      "inputs": [
        {
          "components": [
            {
              "internalType": "address",
              "name": "lendingPool",
              "type": "address"
            },
            {
              "internalType": "address",
              "name": "uniswapRouter",
              "type": "address"
            },
            {
              "internalType": "address",
              "name": "uniswapQuoter",
              "type": "address"
            },
            {
              "internalType": "address",
              "name": "assetProvider",
              "type": "address"
            },
            {
              "internalType": "address",
              "name": "collateralAsset",
              "type": "address"
            },
            {
              "internalType": "address",
              "name": "borrowAsset",
              "type": "address"
            },
            {
              "internalType": "address",
              "name": "debtAsset",
              "type": "address"
            },
            {
              "internalType": "address",
              "name": "userToLiquidate",
              "type": "address"
            },
            {
              "internalType": "uint256",
              "name": "debtToCover",
              "type": "uint256"
            },
            {
              "internalType": "uint256",
              "name": "slippage",
              "type": "uint256"
            },
            {
              "internalType": "bytes",
              "name": "swapPathBorrowToDebt",
              "type": "bytes"
            },
            {
              "internalType": "bytes",
              "name": "swapPathCollateralToBorrow",
              "type": "bytes"
            }
          ],
          "internalType": "struct AaveLiquidationBot.LiquidationParams",
          "name": "params",
          "type": "tuple"
        }
      ],
      "name": "liquidationBorrow",
      "outputs": [],
      "stateMutability": "nonpayable",
      "type": "function"
    },
    {
      "inputs": [
        {
          "internalType": "bytes32",
          "name": "role",
          "type": "bytes32"
        },
        {
          "internalType": "address",
          "name": "account",
          "type": "address"
        }
      ],
      "name": "removeRole",
      "outputs": [],
      "stateMutability": "nonpayable",
      "type": "function"
    },
    {
      "inputs": [
        {
          "internalType": "bytes32",
          "name": "role",
          "type": "bytes32"
        },
        {
          "internalType": "address",
          "name": "callerConfirmation",
          "type": "address"
        }
      ],
      "name": "renounceRole",
      "outputs": [],
      "stateMutability": "nonpayable",
      "type": "function"
    },
    {
      "inputs": [
        {
          "internalType": "address",
          "name": "token",
          "type": "address"
        }
      ],
      "name": "rescueTokens",
      "outputs": [],
      "stateMutability": "nonpayable",
      "type": "function"
    },
    {
      "inputs": [
        {
          "internalType": "bytes32",
          "name": "role",
          "type": "bytes32"
        },
        {
          "internalType": "address",
          "name": "account",
          "type": "address"
        }
      ],
      "name": "revokeRole",
      "outputs": [],
      "stateMutability": "nonpayable",
      "type": "function"
    },
    {
      "inputs": [
        {
          "internalType": "bytes4",
          "name": "interfaceId",
          "type": "bytes4"
        }
      ],
      "name": "supportsInterface",
      "outputs": [
        {
          "internalType": "bool",
          "name": "",
          "type": "bool"
        }
      ],
      "stateMutability": "view",
      "type": "function"
    }
  ],
  "bytecode": "0x60806040523480156200001157600080fd5b50604051620032f9380380620032f98339818101604052810190620000379190620002df565b60018081905550600073ffffffffffffffffffffffffffffffffffffffff168173ffffffffffffffffffffffffffffffffffffffff1603620000b0576040517f08c379a0000000000000000000000000000000000000000000000000000000008152600401620000a79062000372565b60405180910390fd5b620000c56000801b826200010060201b60201c565b50620000f87f5e17fc5225d4a099df75359ce1f405503ca79498a8dc46a7d583235a0ee45c16826200010060201b60201c565b505062000394565b60006200011483836200020360201b60201c565b620001f857600160008085815260200190815260200160002060000160008473ffffffffffffffffffffffffffffffffffffffff1673ffffffffffffffffffffffffffffffffffffffff16815260200190815260200160002060006101000a81548160ff021916908315150217905550620001946200026d60201b60201c565b73ffffffffffffffffffffffffffffffffffffffff168273ffffffffffffffffffffffffffffffffffffffff16847f2f8788117e7eff1d82e926ec794901d17c78024a50270940304540a733656f0d60405160405180910390a460019050620001fd565b600090505b92915050565b600080600084815260200190815260200160002060000160008373ffffffffffffffffffffffffffffffffffffffff1673ffffffffffffffffffffffffffffffffffffffff16815260200190815260200160002060009054906101000a900460ff16905092915050565b600033905090565b600080fd5b600073ffffffffffffffffffffffffffffffffffffffff82169050919050565b6000620002a7826200027a565b9050919050565b620002b9816200029a565b8114620002c557600080fd5b50565b600081519050620002d981620002ae565b92915050565b600060208284031215620002f857620002f762000275565b5b60006200030884828501620002c8565b91505092915050565b600082825260208201905092915050565b7f496e76616c69642061646d696e20616464726573730000000000000000000000600082015250565b60006200035a60158362000311565b9150620003678262000322565b602082019050919050565b600060208201905081810360008301526200038d816200034b565b9050919050565b612f5580620003a46000396000f3fe608060405234801561001057600080fd5b50600436106100b35760003560e01c806374db798d1161007157806374db798d1461018a57806391d14854146101a6578063a217fddf146101d6578063d547741f146101f4578063e959b38a14610210578063f6ba00071461022c576100b3565b8062ae3bf8146100b857806301ffc9a7146100d457806316d8887a14610104578063248a9ca3146101225780632f2ff15d1461015257806336568abe1461016e575b600080fd5b6100d260048036038101906100cd919061219e565b610248565b005b6100ee60048036038101906100e99190612223565b6102fd565b6040516100fb919061226b565b60405180910390f35b61010c610377565b604051610119919061229f565b60405180910390f35b61013c600480360381019061013791906122e6565b61039b565b604051610149919061229f565b60405180910390f35b61016c60048036038101906101679190612313565b6103ba565b005b61018860048036038101906101839190612313565b6103dc565b005b6101a4600480360381019061019f9190612378565b610457565b005b6101c060048036038101906101bb9190612313565b6110b1565b6040516101cd919061226b565b60405180910390f35b6101de61111b565b6040516101eb919061229f565b60405180910390f35b61020e60048036038101906102099190612313565b611122565b005b61022a60048036038101906102259190612313565b611144565b005b61024660048036038101906102419190612313565b611161565b005b6000801b6102558161117e565b6102f9338373ffffffffffffffffffffffffffffffffffffffff166370a08231306040518263ffffffff1660e01b815260040161029291906123d0565b602060405180830381865afa1580156102af573d6000803e3d6000fd5b505050506040513d601f19601f820116820180604052508101906102d39190612421565b8473ffffffffffffffffffffffffffffffffffffffff166111929092919063ffffffff16565b5050565b60007f7965db0b000000000000000000000000000000000000000000000000000000007bffffffffffffffffffffffffffffffffffffffffffffffffffffffff1916827bffffffffffffffffffffffffffffffffffffffffffffffffffffffff19161480610370575061036f82611211565b5b9050919050565b7f5e17fc5225d4a099df75359ce1f405503ca79498a8dc46a7d583235a0ee45c1681565b6000806000838152602001908152602001600020600101549050919050565b6103c38261039b565b6103cc8161117e565b6103d6838361127b565b50505050565b6103e461136c565b73ffffffffffffffffffffffffffffffffffffffff168173ffffffffffffffffffffffffffffffffffffffff1614610448576040517f6697b23200000000000000000000000000000000000000000000000000000000815260040160405180910390fd5b6104528282611374565b505050565b6104817f5e17fc5225d4a099df75359ce1f405503ca79498a8dc46a7d583235a0ee45c16336110b1565b6104c0576040517f08c379a00000000000000000000000000000000000000000000000000000000081526004016104b7906124ab565b60405180910390fd5b6104c8611466565b600073ffffffffffffffffffffffffffffffffffffffff168160000160208101906104f3919061219e565b73ffffffffffffffffffffffffffffffffffffffff1603610549576040517f08c379a000000000000000000000000000000000000000000000000000000000815260040161054090612517565b60405180910390fd5b600073ffffffffffffffffffffffffffffffffffffffff16816020016020810190610574919061219e565b73ffffffffffffffffffffffffffffffffffffffff16036105ca576040517f08c379a00000000000000000000000000000000000000000000000000000000081526004016105c190612583565b60405180910390fd5b600073ffffffffffffffffffffffffffffffffffffffff168160400160208101906105f5919061219e565b73ffffffffffffffffffffffffffffffffffffffff160361064b576040517f08c379a0000000000000000000000000000000000000000000000000000000008152600401610642906125ef565b60405180910390fd5b600073ffffffffffffffffffffffffffffffffffffffff16816080016020810190610676919061219e565b73ffffffffffffffffffffffffffffffffffffffff16036106cc576040517f08c379a00000000000000000000000000000000000000000000000000000000081526004016106c39061265b565b60405180910390fd5b600073ffffffffffffffffffffffffffffffffffffffff168160c00160208101906106f7919061219e565b73ffffffffffffffffffffffffffffffffffffffff160361074d576040517f08c379a0000000000000000000000000000000000000000000000000000000008152600401610744906126c7565b60405180910390fd5b600073ffffffffffffffffffffffffffffffffffffffff168160e0016020810190610778919061219e565b73ffffffffffffffffffffffffffffffffffffffff16036107ce576040517f08c379a00000000000000000000000000000000000000000000000000000000081526004016107c590612733565b60405180910390fd5b6101f48161012001351115610818576040517f08c379a000000000000000000000000000000000000000000000000000000000815260040161080f9061279f565b60405180910390fd5b6108566040518060400160405280600981526020017f626f72726f77696e6700000000000000000000000000000000000000000000008152506114ac565b806000016020810190610869919061219e565b73ffffffffffffffffffffffffffffffffffffffff1663a415bcad8260a0016020810190610897919061219e565b836101000135600260008660600160208101906108b4919061219e565b6040518663ffffffff1660e01b81526004016108d495949392919061285c565b600060405180830381600087803b1580156108ee57600080fd5b505af1158015610902573d6000803e3d6000fd5b505050508060c0016020810190610919919061219e565b73ffffffffffffffffffffffffffffffffffffffff168160a0016020810190610942919061219e565b73ffffffffffffffffffffffffffffffffffffffff1614610a3d5761099b6040518060400160405280600881526020017f7377617070696e670000000000000000000000000000000000000000000000008152506114ac565b610a3c8160400160208101906109b1919061219e565b8260200160208101906109c4919061219e565b8360a00160208101906109d7919061219e565b848061014001906109e891906128be565b8080601f016020809104026020016040519081016040528093929190818152602001838380828437600081840152601f19601f82011690508083019250505050505050856101000135866101200135611545565b5b610a7b6040518060400160405280600b81526020017f6c69717569646174696e670000000000000000000000000000000000000000008152506114ac565b610acf816000016020810190610a91919061219e565b826080016020810190610aa4919061219e565b8360c0016020810190610ab7919061219e565b8460e0016020810190610aca919061219e565b6115f1565b610b0d6040518060400160405280601a81526020017f636865636b696e6720636f6c6c61746572616c42616c616e63650000000000008152506114ac565b6000816080016020810190610b22919061219e565b73ffffffffffffffffffffffffffffffffffffffff166370a08231306040518263ffffffff1660e01b8152600401610b5a91906123d0565b602060405180830381865afa158015610b77573d6000803e3d6000fd5b505050506040513d601f19601f82011682018060405250810190610b9b9190612421565b9050610ba68161180c565b8160a0016020810190610bb9919061219e565b73ffffffffffffffffffffffffffffffffffffffff16826080016020810190610be2919061219e565b73ffffffffffffffffffffffffffffffffffffffff1614610cd857610c3b6040518060400160405280601181526020017f7377617070696e6720666f7220646562740000000000000000000000000000008152506114ac565b610cd7826040016020810190610c51919061219e565b836020016020810190610c64919061219e565b846080016020810190610c77919061219e565b85806101600190610c8891906128be565b8080601f016020809104026020016040519081016040528093929190818152602001838380828437600081840152601f19601f8201169050808301925050505050505085876101200135611545565b5b610d166040518060400160405280601681526020017f636865636b696e6720626f72726f7742616c616e6365000000000000000000008152506114ac565b60008260a0016020810190610d2b919061219e565b73ffffffffffffffffffffffffffffffffffffffff166370a08231306040518263ffffffff1660e01b8152600401610d6391906123d0565b602060405180830381865afa158015610d80573d6000803e3d6000fd5b505050506040513d601f19601f82011682018060405250810190610da49190612421565b9050610daf8161180c565b826101000135811015610df7576040517f08c379a0000000000000000000000000000000000000000000000000000000008152600401610dee9061296d565b60405180910390fd5b610e356040518060400160405280600d81526020017f7265706179696e672064656274000000000000000000000000000000000000008152506114ac565b610e7c836000016020810190610e4b919061219e565b8460a0016020810190610e5e919061219e565b856101000135866060016020810190610e77919061219e565b6118a5565b610eba6040518060400160405280601881526020017f636865636b696e67206c6566746f7665722070726f66697400000000000000008152506114ac565b60008360a0016020810190610ecf919061219e565b73ffffffffffffffffffffffffffffffffffffffff166370a08231306040518263ffffffff1660e01b8152600401610f0791906123d0565b602060405180830381865afa158015610f24573d6000803e3d6000fd5b505050506040513d601f19601f82011682018060405250810190610f489190612421565b9050610f538161180c565b6000811115610fdd57610f9a6040518060400160405280601181526020017f6465706f736974696e672070726f6669740000000000000000000000000000008152506114ac565b610fdc846000016020810190610fb0919061219e565b8560a0016020810190610fc3919061219e565b83876060016020810190610fd7919061219e565b6119c4565b5b61101b6040518060400160405280600e81526020017f656d697474696e67206576656e740000000000000000000000000000000000008152506114ac565b8360e001602081019061102e919061219e565b73ffffffffffffffffffffffffffffffffffffffff167fd169e4bc6bde8738cab2ae132ccc2ac82d66f5d7c531912427a3308168717ea5856080016020810190611078919061219e565b8660c001602081019061108b919061219e565b8460405161109b9392919061298d565b60405180910390a25050506110ae611ae3565b50565b600080600084815260200190815260200160002060000160008373ffffffffffffffffffffffffffffffffffffffff1673ffffffffffffffffffffffffffffffffffffffff16815260200190815260200160002060009054906101000a900460ff16905092915050565b6000801b81565b61112b8261039b565b6111348161117e565b61113e8383611374565b50505050565b6000801b6111518161117e565b61115b838361127b565b50505050565b6000801b61116e8161117e565b6111788383611374565b50505050565b61118f8161118a61136c565b611aec565b50565b61120c838473ffffffffffffffffffffffffffffffffffffffff1663a9059cbb85856040516024016111c59291906129c4565b604051602081830303815290604052915060e01b6020820180517bffffffffffffffffffffffffffffffffffffffffffffffffffffffff8381831617835250505050611b3d565b505050565b60007f01ffc9a7000000000000000000000000000000000000000000000000000000007bffffffffffffffffffffffffffffffffffffffffffffffffffffffff1916827bffffffffffffffffffffffffffffffffffffffffffffffffffffffff1916149050919050565b600061128783836110b1565b61136157600160008085815260200190815260200160002060000160008473ffffffffffffffffffffffffffffffffffffffff1673ffffffffffffffffffffffffffffffffffffffff16815260200190815260200160002060006101000a81548160ff0219169083151502179055506112fe61136c565b73ffffffffffffffffffffffffffffffffffffffff168273ffffffffffffffffffffffffffffffffffffffff16847f2f8788117e7eff1d82e926ec794901d17c78024a50270940304540a733656f0d60405160405180910390a460019050611366565b600090505b92915050565b600033905090565b600061138083836110b1565b1561145b57600080600085815260200190815260200160002060000160008473ffffffffffffffffffffffffffffffffffffffff1673ffffffffffffffffffffffffffffffffffffffff16815260200190815260200160002060006101000a81548160ff0219169083151502179055506113f861136c565b73ffffffffffffffffffffffffffffffffffffffff168273ffffffffffffffffffffffffffffffffffffffff16847ff6391f5c32d9c69d2a47ea670b442974b53935d1edc7fd64eb21e047a839171b60405160405180910390a460019050611460565b600090505b92915050565b6002600154036114a2576040517f3ee5aeb500000000000000000000000000000000000000000000000000000000815260040160405180910390fd5b6002600181905550565b611542816040516024016114c09190612a6c565b6040516020818303038152906040527f41304fac000000000000000000000000000000000000000000000000000000007bffffffffffffffffffffffffffffffffffffffffffffffffffffffff19166020820180517bffffffffffffffffffffffffffffffffffffffffffffffffffffffff8381831617835250505050611bdf565b50565b6115836040518060400160405280600581526020017f5f737761700000000000000000000000000000000000000000000000000000008152506114ac565b600061159187858585611bf9565b90506115d16040518060400160405280601281526020017f5f7377617020616d6f756e744f75744d696e00000000000000000000000000008152506114ac565b6115da8161180c565b6115e78686868685611d33565b5050505050505050565b61162f6040518060400160405280601881526020017f5f6c69717569646174696f6e43616c6c2062616c616e636500000000000000008152506114ac565b60008273ffffffffffffffffffffffffffffffffffffffff166370a08231306040518263ffffffff1660e01b815260040161166a91906123d0565b602060405180830381865afa158015611687573d6000803e3d6000fd5b505050506040513d601f19601f820116820180604052508101906116ab9190612421565b90506116eb6040518060400160405280601a81526020017f5f6c69717569646174696f6e43616c6c20616c6c6f77616e63650000000000008152506114ac565b61171685828573ffffffffffffffffffffffffffffffffffffffff16611ef59092919063ffffffff16565b6117546040518060400160405280601a81526020017f5f6c69717569646174696f6e43616c6c206c69717569646174650000000000008152506114ac565b8473ffffffffffffffffffffffffffffffffffffffff1662a718a98585858560006040518663ffffffff1660e01b8152600401611795959493929190612a8e565b600060405180830381600087803b1580156117af57600080fd5b505af11580156117c3573d6000803e3d6000fd5b505050506118056040518060400160405280601481526020017f5f6c69717569646174696f6e43616c6c207265740000000000000000000000008152506114ac565b5050505050565b6118a2816040516024016118209190612ae1565b6040516020818303038152906040527ff82c50f1000000000000000000000000000000000000000000000000000000007bffffffffffffffffffffffffffffffffffffffffffffffffffffffff19166020820180517bffffffffffffffffffffffffffffffffffffffffffffffffffffffff8381831617835250505050611bdf565b50565b6118e36040518060400160405280601881526020017f5f726570617920696e637265617365416c6c6f77616e636500000000000000008152506114ac565b61190e84838573ffffffffffffffffffffffffffffffffffffffff16611ef59092919063ffffffff16565b61194c6040518060400160405280600c81526020017f5f726570617920726570617900000000000000000000000000000000000000008152506114ac565b8373ffffffffffffffffffffffffffffffffffffffff1663573ade8184846002856040518563ffffffff1660e01b815260040161198c9493929190612afc565b600060405180830381600087803b1580156119a657600080fd5b505af11580156119ba573d6000803e3d6000fd5b5050505050505050565b611a026040518060400160405280601a81526020017f5f6465706f73697420696e637265617365416c6c6f77616e63650000000000008152506114ac565b611a2d84838573ffffffffffffffffffffffffffffffffffffffff16611ef59092919063ffffffff16565b611a6b6040518060400160405280601081526020017f5f6465706f736974206465706f736974000000000000000000000000000000008152506114ac565b8373ffffffffffffffffffffffffffffffffffffffff1663e8eda9df84848460006040518563ffffffff1660e01b8152600401611aab9493929190612b41565b600060405180830381600087803b158015611ac557600080fd5b505af1158015611ad9573d6000803e3d6000fd5b5050505050505050565b60018081905550565b611af682826110b1565b611b395780826040517fe2517d3f000000000000000000000000000000000000000000000000000000008152600401611b30929190612b86565b60405180910390fd5b5050565b600080602060008451602086016000885af180611b60576040513d6000823e3d81fd5b3d925060005191505060008214611b7b576001811415611b97565b60008473ffffffffffffffffffffffffffffffffffffffff163b145b15611bd957836040517f5274afe7000000000000000000000000000000000000000000000000000000008152600401611bd091906123d0565b60405180910390fd5b50505050565b611bf681611bee611f91611fb2565b63ffffffff16565b50565b6000611c396040518060400160405280601681526020017f5f63616c63756c6174654d696e416d6f756e744f7574000000000000000000008152506114ac565b60008573ffffffffffffffffffffffffffffffffffffffff1663cdca175386866040518363ffffffff1660e01b8152600401611c76929190612c04565b6020604051808303816000875af1158015611c95573d6000803e3d6000fd5b505050506040513d601f19601f82011682018060405250810190611cb99190612421565b9050611cf96040518060400160405280602081526020017f5f63616c63756c6174654d696e416d6f756e744f757420616d6f756e744f75748152506114ac565b611d028161180c565b61271083612710611d139190612c63565b82611d1e9190612c97565b611d289190612d08565b915050949350505050565b6000611d736040518060400160405280600d81526020017f5f73776170546f6b656e735633000000000000000000000000000000000000008152506114ac565b611d9e86848773ffffffffffffffffffffffffffffffffffffffff16611ef59092919063ffffffff16565b611ddc6040518060400160405280601481526020017f5f73776170546f6b656e73563320706172616d730000000000000000000000008152506114ac565b611de58361180c565b611dee8261180c565b60006040518060a001604052808681526020013073ffffffffffffffffffffffffffffffffffffffff168152602001428152602001858152602001848152509050611e6d6040518060400160405280601881526020017f5f73776170546f6b656e735633206578616374496e70757400000000000000008152506114ac565b8673ffffffffffffffffffffffffffffffffffffffff1663c04b8d59826040518263ffffffff1660e01b8152600401611ea69190612e17565b6020604051808303816000875af1158015611ec5573d6000803e3d6000fd5b505050506040513d601f19601f82011682018060405250810190611ee99190612421565b91505095945050505050565b60008373ffffffffffffffffffffffffffffffffffffffff1663dd62ed3e30856040518363ffffffff1660e01b8152600401611f32929190612e39565b602060405180830381865afa158015611f4f573d6000803e3d6000fd5b505050506040513d601f19601f82011682018060405250810190611f739190612421565b9050611f8b84848484611f869190612e62565b611fbd565b50505050565b60006a636f6e736f6c652e6c6f679050600080835160208501845afa505050565b61212c819050919050565b60008373ffffffffffffffffffffffffffffffffffffffff1663095ea7b38484604051602401611fee9291906129c4565b604051602081830303815290604052915060e01b6020820180517bffffffffffffffffffffffffffffffffffffffffffffffffffffffff8381831617835250505050905061203c84826120cc565b6120c6576120bb848573ffffffffffffffffffffffffffffffffffffffff1663095ea7b3866000604051602401612074929190612ec7565b604051602081830303815290604052915060e01b6020820180517bffffffffffffffffffffffffffffffffffffffffffffffffffffffff8381831617835250505050611b3d565b6120c58482611b3d565b5b50505050565b6000806000806020600086516020880160008a5af192503d915060005190508280156121215750600082146121045760018114612120565b60008673ffffffffffffffffffffffffffffffffffffffff163b115b5b935050505092915050565b612134612ef0565b565b600080fd5b600080fd5b600073ffffffffffffffffffffffffffffffffffffffff82169050919050565b600061216b82612140565b9050919050565b61217b81612160565b811461218657600080fd5b50565b60008135905061219881612172565b92915050565b6000602082840312156121b4576121b3612136565b5b60006121c284828501612189565b91505092915050565b60007fffffffff0000000000000000000000000000000000000000000000000000000082169050919050565b612200816121cb565b811461220b57600080fd5b50565b60008135905061221d816121f7565b92915050565b60006020828403121561223957612238612136565b5b60006122478482850161220e565b91505092915050565b60008115159050919050565b61226581612250565b82525050565b6000602082019050612280600083018461225c565b92915050565b6000819050919050565b61229981612286565b82525050565b60006020820190506122b46000830184612290565b92915050565b6122c381612286565b81146122ce57600080fd5b50565b6000813590506122e0816122ba565b92915050565b6000602082840312156122fc576122fb612136565b5b600061230a848285016122d1565b91505092915050565b6000806040838503121561232a57612329612136565b5b6000612338858286016122d1565b925050602061234985828601612189565b9150509250929050565b600080fd5b6000610180828403121561236f5761236e612353565b5b81905092915050565b60006020828403121561238e5761238d612136565b5b600082013567ffffffffffffffff8111156123ac576123ab61213b565b5b6123b884828501612358565b91505092915050565b6123ca81612160565b82525050565b60006020820190506123e560008301846123c1565b92915050565b6000819050919050565b6123fe816123eb565b811461240957600080fd5b50565b60008151905061241b816123f5565b92915050565b60006020828403121561243757612436612136565b5b60006124458482850161240c565b91505092915050565b600082825260208201905092915050565b7f4e6f7420612077686974656c6973746564206c697175696461746f7200000000600082015250565b6000612495601c8361244e565b91506124a08261245f565b602082019050919050565b600060208201905081810360008301526124c481612488565b9050919050565b7f496e76616c6964204c656e64696e67506f6f6c20616464726573730000000000600082015250565b6000612501601b8361244e565b915061250c826124cb565b602082019050919050565b60006020820190508181036000830152612530816124f4565b9050919050565b7f496e76616c696420726f75746572206164647265737300000000000000000000600082015250565b600061256d60168361244e565b915061257882612537565b602082019050919050565b6000602082019050818103600083015261259c81612560565b9050919050565b7f496e76616c69642071756f746572206164647265737300000000000000000000600082015250565b60006125d960168361244e565b91506125e4826125a3565b602082019050919050565b60006020820190508181036000830152612608816125cc565b9050919050565b7f496e76616c696420636f6c6c61746572616c0000000000000000000000000000600082015250565b600061264560128361244e565b91506126508261260f565b602082019050919050565b6000602082019050818103600083015261267481612638565b9050919050565b7f496e76616c696420646562742061737365740000000000000000000000000000600082015250565b60006126b160128361244e565b91506126bc8261267b565b602082019050919050565b600060208201905081810360008301526126e0816126a4565b9050919050565b7f496e76616c696420746172676574000000000000000000000000000000000000600082015250565b600061271d600e8361244e565b9150612728826126e7565b602082019050919050565b6000602082019050818103600083015261274c81612710565b9050919050565b7f536c69707061676520746f6f2068696768000000000000000000000000000000600082015250565b600061278960118361244e565b915061279482612753565b602082019050919050565b600060208201905081810360008301526127b88161277c565b9050919050565b6127c8816123eb565b82525050565b6000819050919050565b6000819050919050565b60006127fd6127f86127f3846127ce565b6127d8565b6123eb565b9050919050565b61280d816127e2565b82525050565b6000819050919050565b600061ffff82169050919050565b600061284661284161283c84612813565b6127d8565b61281d565b9050919050565b6128568161282b565b82525050565b600060a08201905061287160008301886123c1565b61287e60208301876127bf565b61288b6040830186612804565b612898606083018561284d565b6128a560808301846123c1565b9695505050505050565b600080fd5b600080fd5b600080fd5b600080833560016020038436030381126128db576128da6128af565b5b80840192508235915067ffffffffffffffff8211156128fd576128fc6128b4565b5b602083019250600182023603831315612919576129186128b9565b5b509250929050565b7f496e73756666696369656e742072657061796d656e7420616d6f756e74000000600082015250565b6000612957601d8361244e565b915061296282612921565b602082019050919050565b600060208201905081810360008301526129868161294a565b9050919050565b60006060820190506129a260008301866123c1565b6129af60208301856123c1565b6129bc60408301846127bf565b949350505050565b60006040820190506129d960008301856123c1565b6129e660208301846127bf565b9392505050565b600081519050919050565b60005b83811015612a165780820151818401526020810190506129fb565b60008484015250505050565b6000601f19601f8301169050919050565b6000612a3e826129ed565b612a48818561244e565b9350612a588185602086016129f8565b612a6181612a22565b840191505092915050565b60006020820190508181036000830152612a868184612a33565b905092915050565b600060a082019050612aa360008301886123c1565b612ab060208301876123c1565b612abd60408301866123c1565b612aca60608301856127bf565b612ad7608083018461225c565b9695505050505050565b6000602082019050612af660008301846127bf565b92915050565b6000608082019050612b1160008301876123c1565b612b1e60208301866127bf565b612b2b6040830185612804565b612b3860608301846123c1565b95945050505050565b6000608082019050612b5660008301876123c1565b612b6360208301866127bf565b612b7060408301856123c1565b612b7d606083018461284d565b95945050505050565b6000604082019050612b9b60008301856123c1565b612ba86020830184612290565b9392505050565b600081519050919050565b600082825260208201905092915050565b6000612bd682612baf565b612be08185612bba565b9350612bf08185602086016129f8565b612bf981612a22565b840191505092915050565b60006040820190508181036000830152612c1e8185612bcb565b9050612c2d60208301846127bf565b9392505050565b7f4e487b7100000000000000000000000000000000000000000000000000000000600052601160045260246000fd5b6000612c6e826123eb565b9150612c79836123eb565b9250828203905081811115612c9157612c90612c34565b5b92915050565b6000612ca2826123eb565b9150612cad836123eb565b9250828202612cbb816123eb565b91508282048414831517612cd257612cd1612c34565b5b5092915050565b7f4e487b7100000000000000000000000000000000000000000000000000000000600052601260045260246000fd5b6000612d13826123eb565b9150612d1e836123eb565b925082612d2e57612d2d612cd9565b5b828204905092915050565b600082825260208201905092915050565b6000612d5582612baf565b612d5f8185612d39565b9350612d6f8185602086016129f8565b612d7881612a22565b840191505092915050565b612d8c81612160565b82525050565b612d9b816123eb565b82525050565b600060a0830160008301518482036000860152612dbe8282612d4a565b9150506020830151612dd36020860182612d83565b506040830151612de66040860182612d92565b506060830151612df96060860182612d92565b506080830151612e0c6080860182612d92565b508091505092915050565b60006020820190508181036000830152612e318184612da1565b905092915050565b6000604082019050612e4e60008301856123c1565b612e5b60208301846123c1565b9392505050565b6000612e6d826123eb565b9150612e78836123eb565b9250828201905080821115612e9057612e8f612c34565b5b92915050565b6000612eb1612eac612ea784612813565b6127d8565b6123eb565b9050919050565b612ec181612e96565b82525050565b6000604082019050612edc60008301856123c1565b612ee96020830184612eb8565b9392505050565b7f4e487b7100000000000000000000000000000000000000000000000000000000600052605160045260246000fdfea2646970667358221220dbf96557fae79e78ea9390247c38f59b2db18584dc29ad810d52793f4deff21664736f6c63430008180033",
  "linkReferences": {},
  "deployedLinkReferences": {}
}