{
  "_format": "hh-sol-artifact-1",
  "contractName": "ChainlinkUniswapV3PriceFeed",
  "sourceName": "contracts/protocol/ChainlinkUniswapV3PriceFeed.sol",
  "abi": [
    {
      "inputs": [
        {
          "internalType": "address",
          "name": "_chainlinkFeed",
          "type": "address"
        },
        {
          "internalType": "address",
          "name": "_uniswapPool",
          "type": "address"
        },
        {
          "internalType": "uint32",
          "name": "_twapWindow",
          "type": "uint32"
        },
        {
          "internalType": "uint32",
          "name": "_chainlinkTimeout",
          "type": "uint32"
        },
        {
          "internalType": "bool",
          "name": "_reverseTwap",
          "type": "bool"
        }
      ],
      "stateMutability": "nonpayable",
      "type": "constructor"
    },
    {
      "anonymous": false,
      "inputs": [
        {
          "indexed": true,
          "internalType": "address",
          "name": "previousOwner",
          "type": "address"
        },
        {
          "indexed": true,
          "internalType": "address",
          "name": "newOwner",
          "type": "address"
        }
      ],
      "name": "OwnershipTransferred",
      "type": "event"
    },
    {
      "inputs": [],
      "name": "chainlinkDecimals",
      "outputs": [
        {
          "internalType": "uint8",
          "name": "",
          "type": "uint8"
        }
      ],
      "stateMutability": "view",
      "type": "function"
    },
    {
      "inputs": [],
      "name": "chainlinkFeed",
      "outputs": [
        {
          "internalType": "address",
          "name": "",
          "type": "address"
        }
      ],
      "stateMutability": "view",
      "type": "function"
    },
    {
      "inputs": [],
      "name": "chainlinkTimeout",
      "outputs": [
        {
          "internalType": "uint32",
          "name": "",
          "type": "uint32"
        }
      ],
      "stateMutability": "view",
      "type": "function"
    },
    {
      "inputs": [],
      "name": "fetchPrice",
      "outputs": [
        {
          "internalType": "uint256",
          "name": "price",
          "type": "uint256"
        }
      ],
      "stateMutability": "view",
      "type": "function"
    },
    {
      "inputs": [],
      "name": "fetchSource",
      "outputs": [
        {
          "internalType": "enum ChainlinkUniswapV3PriceFeed.Source",
          "name": "source",
          "type": "uint8"
        }
      ],
      "stateMutability": "view",
      "type": "function"
    },
    {
      "inputs": [],
      "name": "getChainlinkPrice",
      "outputs": [
        {
          "internalType": "uint256",
          "name": "price",
          "type": "uint256"
        }
      ],
      "stateMutability": "view",
      "type": "function"
    },
    {
      "inputs": [],
      "name": "getUniswapTwapPrice",
      "outputs": [
        {
          "internalType": "uint256",
          "name": "price",
          "type": "uint256"
        }
      ],
      "stateMutability": "view",
      "type": "function"
    },
    {
      "inputs": [],
      "name": "owner",
      "outputs": [
        {
          "internalType": "address",
          "name": "",
          "type": "address"
        }
      ],
      "stateMutability": "view",
      "type": "function"
    },
    {
      "inputs": [],
      "name": "renounceOwnership",
      "outputs": [],
      "stateMutability": "nonpayable",
      "type": "function"
    },
    {
      "inputs": [],
      "name": "reverseTwap",
      "outputs": [
        {
          "internalType": "bool",
          "name": "",
          "type": "bool"
        }
      ],
      "stateMutability": "view",
      "type": "function"
    },
    {
      "inputs": [
        {
          "internalType": "uint32",
          "name": "_chainlinkTimeout",
          "type": "uint32"
        }
      ],
      "name": "setChainlinkTimeout",
      "outputs": [],
      "stateMutability": "nonpayable",
      "type": "function"
    },
    {
      "inputs": [
        {
          "internalType": "uint32",
          "name": "_twapWindow",
          "type": "uint32"
        }
      ],
      "name": "setTwapWindow",
      "outputs": [],
      "stateMutability": "nonpayable",
      "type": "function"
    },
    {
      "inputs": [],
      "name": "token0",
      "outputs": [
        {
          "internalType": "address",
          "name": "",
          "type": "address"
        }
      ],
      "stateMutability": "view",
      "type": "function"
    },
    {
      "inputs": [],
      "name": "token0Decimals",
      "outputs": [
        {
          "internalType": "uint8",
          "name": "",
          "type": "uint8"
        }
      ],
      "stateMutability": "view",
      "type": "function"
    },
    {
      "inputs": [],
      "name": "token1",
      "outputs": [
        {
          "internalType": "address",
          "name": "",
          "type": "address"
        }
      ],
      "stateMutability": "view",
      "type": "function"
    },
    {
      "inputs": [],
      "name": "token1Decimals",
      "outputs": [
        {
          "internalType": "uint8",
          "name": "",
          "type": "uint8"
        }
      ],
      "stateMutability": "view",
      "type": "function"
    },
    {
      "inputs": [
        {
          "internalType": "address",
          "name": "newOwner",
          "type": "address"
        }
      ],
      "name": "transferOwnership",
      "outputs": [],
      "stateMutability": "nonpayable",
      "type": "function"
    },
    {
      "inputs": [],
      "name": "twapWindow",
      "outputs": [
        {
          "internalType": "uint32",
          "name": "",
          "type": "uint32"
        }
      ],
      "stateMutability": "view",
      "type": "function"
    },
    {
      "inputs": [],
      "name": "uniswapPool",
      "outputs": [
        {
          "internalType": "address",
          "name": "",
          "type": "address"
        }
      ],
      "stateMutability": "view",
      "type": "function"
    }
  ],
  "bytecode": "0x6101806040526000805463ffffffff60c01b191660e160c31b1790553480156200002857600080fd5b5060405162001ae338038062001ae3833981810160405260a08110156200004e57600080fd5b508051602082015160408301516060840151608090940151929391929091906000620000796200062d565b600080546001600160a01b0319166001600160a01b0383169081178255604051929350917f8be0079c531659141344cd1fd0a4f28419497f9722a3daafe3b4186f6b6457e0908290a3506001600160a01b0385166200011f576040805162461bcd60e51b815260206004820152601e60248201527f496e76616c696420436861696e6c696e6b206665656420616464726573730000604482015290519081900360640190fd5b6001600160a01b0384166200017b576040805162461bcd60e51b815260206004820152601c60248201527f496e76616c696420556e697377617020706f6f6c206164647265737300000000604482015290519081900360640190fd5b61070863ffffffff84161015620001d9576040805162461bcd60e51b815260206004820152601360248201527f496e76616c696420545741502077696e646f7700000000000000000000000000604482015290519081900360640190fd5b61038463ffffffff831610801590620001fb57506201518063ffffffff831611155b6200024d576040805162461bcd60e51b815260206004820152601860248201527f496e76616c696420636861696e6c696e6b54696d656f75740000000000000000604482015290519081900360640190fd5b606085901b6001600160601b0319166080526000805463ffffffff60c01b1916600160c01b63ffffffff8516021790556040805163313ce56760e01b815290516001600160a01b0387169163313ce567916004808301926020929190829003018186803b158015620002be57600080fd5b505afa158015620002d3573d6000803e3d6000fd5b505050506040513d6020811015620002ea57600080fd5b505160f81b6001600160f81b03191661014052606084901b6001600160601b03191660a05260408051630dfe168160e01b8152905185916001600160a01b03831691630dfe168191600480820192602092909190829003018186803b1580156200035357600080fd5b505afa15801562000368573d6000803e3d6000fd5b505050506040513d60208110156200037f57600080fd5b505160601b6001600160601b03191660c0526040805163d21220a760e01b815290516001600160a01b0383169163d21220a7916004808301926020929190829003018186803b158015620003d257600080fd5b505afa158015620003e7573d6000803e3d6000fd5b505050506040513d6020811015620003fe57600080fd5b505160601b6001600160601b03191660e05260408051630dfe168160e01b815290516001600160a01b03831691630dfe1681916004808301926020929190829003018186803b1580156200045157600080fd5b505afa15801562000466573d6000803e3d6000fd5b505050506040513d60208110156200047d57600080fd5b50516040805163313ce56760e01b815290516001600160a01b039092169163313ce56791600480820192602092909190829003018186803b158015620004c257600080fd5b505afa158015620004d7573d6000803e3d6000fd5b505050506040513d6020811015620004ee57600080fd5b505160f81b6001600160f81b031916610100526040805163d21220a760e01b815290516001600160a01b0383169163d21220a7916004808301926020929190829003018186803b1580156200054257600080fd5b505afa15801562000557573d6000803e3d6000fd5b505050506040513d60208110156200056e57600080fd5b50516040805163313ce56760e01b815290516001600160a01b039092169163313ce56791600480820192602092909190829003018186803b158015620005b357600080fd5b505afa158015620005c8573d6000803e3d6000fd5b505050506040513d6020811015620005df57600080fd5b50516001600160f81b031960f891821b16610120526000805463ffffffff909616600160a01b0263ffffffff60a01b199096169590951790945550151590911b610160525062000631915050565b3390565b60805160601c60a05160601c60c05160601c60e05160601c6101005160f81c6101205160f81c6101405160f81c6101605160f81c611400620006e36000398061031052806109c952508061033e52806108ef5250806102a85280610a655280610a9d52508061062d52806109f55280610b0d5250806106755280610a3d5280610ac45250806102cc5280610a1c5280610ae5525080610651528061098d5250806104e8528061082c52506114006000f3fe608060405234801561001057600080fd5b50600436106101215760003560e01c8063715018a6116100ad5780639485f606116100715780639485f60614610245578063b31ac6e214610268578063bdd3d82514610270578063d21220a714610278578063f2fde38b1461028057610121565b8063715018a61461021d5780637dbdf1f5146102255780638107e1331461022d57806386ca1754146102355780638da5cb5b1461023d57610121565b8063329ea285116100f4578063329ea285146101ab5780633aeef3d3146101c757806351e64373146101cf5780635ade2177146101d75780635f553545146101f857610121565b80630b77884d146101265780630dfe1681146101445780630fdb11cf146101685780632c37ee2f14610182575b600080fd5b61012e6102a6565b6040805160ff9092168252519081900360200190f35b61014c6102ca565b604080516001600160a01b039092168252519081900360200190f35b6101706102ee565b60408051918252519081900360200190f35b61018a6102fe565b6040518082600181111561019a57fe5b815260200191505060405180910390f35b6101b361030e565b604080519115158252519081900360200190f35b610170610332565b61012e61033c565b6101df610360565b6040805163ffffffff9092168252519081900360200190f35b61021b6004803603602081101561020e57600080fd5b503563ffffffff16610373565b005b61021b610444565b61014c6104e6565b6101df61050a565b61017061051d565b61014c61052c565b61021b6004803603602081101561025b57600080fd5b503563ffffffff1661053b565b61012e61062b565b61014c61064f565b61014c610673565b61021b6004803603602081101561029657600080fd5b50356001600160a01b0316610697565b7f000000000000000000000000000000000000000000000000000000000000000081565b7f000000000000000000000000000000000000000000000000000000000000000081565b60006102f861078f565b50905090565b600061030861078f565b91505090565b7f000000000000000000000000000000000000000000000000000000000000000081565b60006102f8610827565b7f000000000000000000000000000000000000000000000000000000000000000081565b600054600160c01b900463ffffffff1681565b61037b610981565b6000546001600160a01b039081169116146103cb576040805162461bcd60e51b815260206004820181905260248201526000805160206113ab833981519152604482015290519081900360640190fd5b61070863ffffffff8216101561041e576040805162461bcd60e51b8152602060048201526013602482015272496e76616c696420545741502077696e646f7760681b604482015290519081900360640190fd5b6000805463ffffffff909216600160a01b0263ffffffff60a01b19909216919091179055565b61044c610981565b6000546001600160a01b0390811691161461049c576040805162461bcd60e51b815260206004820181905260248201526000805160206113ab833981519152604482015290519081900360640190fd5b600080546040516001600160a01b03909116907f8be0079c531659141344cd1fd0a4f28419497f9722a3daafe3b4186f6b6457e0908390a3600080546001600160a01b0319169055565b7f000000000000000000000000000000000000000000000000000000000000000081565b600054600160a01b900463ffffffff1681565b6000610527610985565b905090565b6000546001600160a01b031690565b610543610981565b6000546001600160a01b03908116911614610593576040805162461bcd60e51b815260206004820181905260248201526000805160206113ab833981519152604482015290519081900360640190fd5b61038463ffffffff8216108015906105b457506201518063ffffffff821611155b610605576040805162461bcd60e51b815260206004820152601860248201527f496e76616c696420636861696e6c696e6b54696d656f75740000000000000000604482015290519081900360640190fd5b6000805463ffffffff909216600160c01b0263ffffffff60c01b19909216919091179055565b7f000000000000000000000000000000000000000000000000000000000000000081565b7f000000000000000000000000000000000000000000000000000000000000000081565b7f000000000000000000000000000000000000000000000000000000000000000081565b61069f610981565b6000546001600160a01b039081169116146106ef576040805162461bcd60e51b815260206004820181905260248201526000805160206113ab833981519152604482015290519081900360640190fd5b6001600160a01b0381166107345760405162461bcd60e51b81526004018080602001828103825260268152602001806113856026913960400191505060405180910390fd5b600080546040516001600160a01b03808516939216917f8be0079c531659141344cd1fd0a4f28419497f9722a3daafe3b4186f6b6457e091a3600080546001600160a01b0319166001600160a01b0392909216919091179055565b60008060008061079d610827565b9092509050600181151514156107b95750915060009050610823565b60006107c3610985565b90506000811161081a576040805162461bcd60e51b815260206004820152601a60248201527f496e76616c696420556e69737761702054574150207072696365000000000000604482015290519081900360640190fd5b93506001925050505b9091565b6000807f00000000000000000000000000000000000000000000000000000000000000006001600160a01b031663feaf968c6040518163ffffffff1660e01b815260040160a06040518083038186803b15801561088357600080fd5b505afa9250505080156108c557506040513d60a08110156108a357600080fd5b5080516020820151604083015160608401516080909401519293919290919060015b6108d457506000905080610823565b600084136108ed57600080965096505050505050610823565b7f000000000000000000000000000000000000000000000000000000000000000060120360ff16600a0a8402965060008413158061093c5750600054600160c01b900463ffffffff1642839003115b8061095e57508469ffffffffffffffffffff168169ffffffffffffffffffff16105b156109725750600094506108239350505050565b50600194506108239350505050565b3390565b6000806109c47f0000000000000000000000000000000000000000000000000000000000000000600060149054906101000a900463ffffffff16610b3c565b5090507f000000000000000000000000000000000000000000000000000000000000000015610a95576000610a61827f000000000000000000000000000000000000000000000000000000000000000060ff16600a0a7f00000000000000000000000000000000000000000000000000000000000000007f0000000000000000000000000000000000000000000000000000000000000000610eab565b60ff7f000000000000000000000000000000000000000000000000000000000000000060120316600a0a029250610b389050565b6000610b09827f000000000000000000000000000000000000000000000000000000000000000060ff16600a0a7f00000000000000000000000000000000000000000000000000000000000000007f0000000000000000000000000000000000000000000000000000000000000000610eab565b60ff7f000000000000000000000000000000000000000000000000000000000000000060120316600a0a029250505b5090565b60008063ffffffff8316610b7c576040805162461bcd60e51b8152602060048201526002602482015261042560f41b604482015290519081900360640190fd5b6040805160028082526060820183526000926020830190803683370190505090508381600081518110610bab57fe5b602002602001019063ffffffff16908163ffffffff1681525050600081600181518110610bd457fe5b63ffffffff90921660209283029190910182015260405163883bdbfd60e01b81526004810182815283516024830152835160009384936001600160a01b038b169363883bdbfd9388939192839260449091019185820191028083838b5b83811015610c49578181015183820152602001610c31565b505050509050019250505060006040518083038186803b158015610c6c57600080fd5b505afa158015610c80573d6000803e3d6000fd5b505050506040513d6000823e601f3d908101601f191682016040908152811015610ca957600080fd5b8101908080516040519392919084640100000000821115610cc957600080fd5b908301906020820185811115610cde57600080fd5b8251866020820283011164010000000082111715610cfb57600080fd5b82525081516020918201928201910280838360005b83811015610d28578181015183820152602001610d10565b5050505090500160405260200180516040519392919084640100000000821115610d5157600080fd5b908301906020820185811115610d6657600080fd5b8251866020820283011164010000000082111715610d8357600080fd5b82525081516020918201928201910280838360005b83811015610db0578181015183820152602001610d98565b5050505090500160405250505091509150600082600081518110610dd057fe5b602002602001015183600181518110610de557fe5b6020026020010151039050600082600081518110610dff57fe5b602002602001015183600181518110610e1457fe5b60200260200101510390508763ffffffff168260060b81610e3157fe5b05965060008260060b128015610e5b57508763ffffffff168260060b81610e5457fe5b0760060b15155b15610e6857600019909601955b63ffffffff88166001600160a01b0302640100000000600160c01b03602083901b166001600160c01b03821681610e9b57fe5b0496505050505050509250929050565b600080610eb786610fa2565b90506001600160801b036001600160a01b03821611610f26576001600160a01b0380821680029084811690861610610f0657610f01600160c01b876001600160801b0316836112d4565b610f1e565b610f1e81876001600160801b0316600160c01b6112d4565b925050610f99565b6000610f456001600160a01b03831680680100000000000000006112d4565b9050836001600160a01b0316856001600160a01b031610610f7d57610f78600160801b876001600160801b0316836112d4565b610f95565b610f9581876001600160801b0316600160801b6112d4565b9250505b50949350505050565b60008060008360020b12610fb9578260020b610fc1565b8260020b6000035b9050620d89e8811115610fff576040805162461bcd60e51b81526020600482015260016024820152601560fa1b604482015290519081900360640190fd5b60006001821661101357600160801b611025565b6ffffcb933bd6fad37aa2d162d1a5940015b70ffffffffffffffffffffffffffffffffff1690506002821615611059576ffff97272373d413259a46990580e213a0260801c5b6004821615611078576ffff2e50f5f656932ef12357cf3c7fdcc0260801c5b6008821615611097576fffe5caca7e10e4e61c3624eaa0941cd00260801c5b60108216156110b6576fffcb9843d60f6159c9db58835c9266440260801c5b60208216156110d5576fff973b41fa98c081472e6896dfb254c00260801c5b60408216156110f4576fff2ea16466c96a3843ec78b326b528610260801c5b6080821615611113576ffe5dee046a99a2a811c461f1969c30530260801c5b610100821615611133576ffcbe86c7900a88aedcffc83b479aa3a40260801c5b610200821615611153576ff987a7253ac413176f2b074cf7815e540260801c5b610400821615611173576ff3392b0822b70005940c7a398e4b70f30260801c5b610800821615611193576fe7159475a2c29b7443b29c7fa6e889d90260801c5b6110008216156111b3576fd097f3bdfd2022b8845ad8f792aa58250260801c5b6120008216156111d3576fa9f746462d870fdf8a65dc1f90e061e50260801c5b6140008216156111f3576f70d869a156d2a1b890bb3df62baf32f70260801c5b618000821615611213576f31be135f97d08fd981231505542fcfa60260801c5b62010000821615611234576f09aa508b5b7a84e1c677de54f3e99bc90260801c5b62020000821615611254576e5d6af8dedb81196699c329225ee6040260801c5b62040000821615611273576d2216e584f5fa1ea926041bedfe980260801c5b62080000821615611290576b048a170391f7dc42444e8fa20260801c5b60008460020b13156112ab5780600019816112a757fe5b0490505b6401000000008106156112bf5760016112c2565b60005b60ff16602082901c0192505050919050565b600080806000198587098686029250828110908390030390508061130a57600084116112ff57600080fd5b50829004905061137d565b80841161131657600080fd5b6000848688096000868103871696879004966002600389028118808a02820302808a02820302808a02820302808a02820302808a02820302808a02909103029181900381900460010186841190950394909402919094039290920491909117919091029150505b939250505056fe4f776e61626c653a206e6577206f776e657220697320746865207a65726f20616464726573734f776e61626c653a2063616c6c6572206973206e6f7420746865206f776e6572a264697066735822122066ef6670d59d79de5ff9c1101f5a57e7ffd573548a9b7bf6c58570fb4d0ed98164736f6c63430007060033",
  "linkReferences": {},
  "deployedLinkReferences": {}
}