{
  "_format": "hh-sol-artifact-1",
  "contractName": "LendingPoolCollateralManager",
  "sourceName": "contracts/protocol/lendingpool/LendingPoolCollateralManager.sol",
  "abi": [
    {
      "inputs": [
        {
          "internalType": "address",
          "name": "_lendingPoolAddressProvider",
          "type": "address"
        }
      ],
      "stateMutability": "nonpayable",
      "type": "constructor"
    },
    {
      "anonymous": false,
      "inputs": [
        {
          "indexed": true,
          "internalType": "address",
          "name": "collateral",
          "type": "address"
        },
        {
          "indexed": true,
          "internalType": "address",
          "name": "principal",
          "type": "address"
        },
        {
          "indexed": true,
          "internalType": "address",
          "name": "user",
          "type": "address"
        },
        {
          "indexed": false,
          "internalType": "uint256",
          "name": "debtToCover",
          "type": "uint256"
        },
        {
          "indexed": false,
          "internalType": "uint256",
          "name": "liquidatedCollateralAmount",
          "type": "uint256"
        },
        {
          "indexed": false,
          "internalType": "address",
          "name": "liquidator",
          "type": "address"
        },
        {
          "indexed": false,
          "internalType": "bool",
          "name": "receiveAToken",
          "type": "bool"
        }
      ],
      "name": "LiquidationCall",
      "type": "event"
    },
    {
      "anonymous": false,
      "inputs": [
        {
          "indexed": true,
          "internalType": "address",
          "name": "reserve",
          "type": "address"
        },
        {
          "indexed": true,
          "internalType": "address",
          "name": "user",
          "type": "address"
        }
      ],
      "name": "ReserveUsedAsCollateralDisabled",
      "type": "event"
    },
    {
      "anonymous": false,
      "inputs": [
        {
          "indexed": true,
          "internalType": "address",
          "name": "reserve",
          "type": "address"
        },
        {
          "indexed": true,
          "internalType": "address",
          "name": "user",
          "type": "address"
        }
      ],
      "name": "ReserveUsedAsCollateralEnabled",
      "type": "event"
    },
    {
      "inputs": [
        {
          "internalType": "address",
          "name": "collateralAsset",
          "type": "address"
        },
        {
          "internalType": "address",
          "name": "debtAsset",
          "type": "address"
        },
        {
          "internalType": "address",
          "name": "user",
          "type": "address"
        },
        {
          "internalType": "uint256",
          "name": "debtToCover",
          "type": "uint256"
        },
        {
          "internalType": "bool",
          "name": "receiveAToken",
          "type": "bool"
        }
      ],
      "name": "liquidationCall",
      "outputs": [
        {
          "internalType": "uint256",
          "name": "",
          "type": "uint256"
        },
        {
          "internalType": "string",
          "name": "",
          "type": "string"
        }
      ],
      "stateMutability": "nonpayable",
      "type": "function"
    }
  ],
  "bytecode": "0x60a06040526000805534801561001457600080fd5b50604051612cb4380380612cb48339818101604052602081101561003757600080fd5b5051606081901b6001600160601b0319166080526001600160a01b0316612c4961006b600039806101025250612c496000f3fe608060405234801561001057600080fd5b506004361061002a5760003560e01c8062a718a91461002f575b600080fd5b610073600480360360a081101561004557600080fd5b506001600160a01b0381358116916020810135821691604082013516906060810135906080013515156100f2565b6040518083815260200180602001828103825283818151815260200191508051906020019080838360005b838110156100b657818101518382015260200161009e565b50505050905090810190601f1680156100e35780820380516001836020036101000a031916815260200191505b50935050505060405180910390f35b60006060306001600160a01b03167f00000000000000000000000000000000000000000000000000000000000000006001600160a01b0316630261bf8b6040518163ffffffff1660e01b815260040160206040518083038186803b15801561015957600080fd5b505afa15801561016d573d6000803e3d6000fd5b505050506040513d602081101561018357600080fd5b5051604080518082019091526002815261323960f01b6020820152916001600160a01b03909116146102335760405162461bcd60e51b81526004018080602001828103825283818151815260200191508051906020019080838360005b838110156101f85781810151838201526020016101e0565b50505050905090810190601f1680156102255780820380516001836020036101000a031916815260200191505b509250505060405180910390fd5b506001600160a01b0380881660009081526035602090815260408083208a85168452818420948a168452603690925290912090919061027061297c565b6040805160208082018352845482526038546034548451631f94a27560e31b81529451610302958f95603595909460379490936001600160a01b039091169263fca513a8926004808301939192829003018186803b1580156102d157600080fd5b505afa1580156102e5573d6000803e3d6000fd5b505050506040513d60208110156102fb57600080fd5b5051610b10565b6101408601525061031992508b9150859050610fd7565b604083018190526020830182905261014083015161033e9287928792879290916110da565b6102008301526101e08201819052600090600981111561035a57fe5b600981111561036557fe5b1461038357806101e001518161020001519550955050505050610b06565b6004808501546001600160a01b039081166101808401819052604080516370a0823160e01b8152928d169383019390935291516370a0823191602480820192602092909190829003018186803b1580156103dc57600080fd5b505afa1580156103f0573d6000803e3d6000fd5b505050506040513d602081101561040657600080fd5b505181526040810151602082015161042b916113889161042591611217565b9061127a565b60608201819052881161043e5787610444565b80606001515b60808201819052815161045f91869186918f918f9190611327565b6101208301819052610100830191909152608082015111156104875761012081015160808201525b866105495760008b6001600160a01b03166370a082318361018001516040518263ffffffff1660e01b815260040180826001600160a01b0316815260200191505060206040518083038186803b1580156104e057600080fd5b505afa1580156104f4573d6000803e3d6000fd5b505050506040513d602081101561050a57600080fd5b505161010083015190915081101561054757600560405180604001604052806002815260200161343560f01b815250965096505050505050610b06565b505b610552836115a4565b80608001518160400151106105f55760068301546080820151600185015460408051637a94c56560e11b81526001600160a01b038e811660048301526024820194909452600160801b9092046001600160801b0316604483015251919092169163f5298aca91606480830192600092919082900301818387803b1580156105d857600080fd5b505af11580156105ec573d6000803e3d6000fd5b50505050610777565b60006106128260400151836080015161166e90919063ffffffff16565b9050808260200151101561066d576040805162461bcd60e51b815260206004820152601860248201527f496e73756666696369656e7420737461626c6520646562740000000000000000604482015290519081900360640190fd5b60408201511561070657600684015460408381015160018701548251637a94c56560e11b81526001600160a01b038f811660048301526024820193909352600160801b9091046001600160801b03166044820152915192169163f5298aca9160648082019260009290919082900301818387803b1580156106ed57600080fd5b505af1158015610701573d6000803e3d6000fd5b505050505b600584015460408051632770a7eb60e21b81526001600160a01b038d811660048301526024820185905291519190921691639dc29fac91604480830192600092919082900301818387803b15801561075d57600080fd5b505af1158015610771573d6000803e3d6000fd5b50505050505b6004830154608082015161079a9185918d916001600160a01b03169060006116b0565b8615610916578061018001516001600160a01b03166370a08231336040518263ffffffff1660e01b815260040180826001600160a01b0316815260200191505060206040518083038186803b1580156107f257600080fd5b505afa158015610806573d6000803e3d6000fd5b505050506040513d602081101561081c57600080fd5b50516101608201526101808101516101008201516040805163f866c31960e01b81526001600160a01b038d8116600483015233602483015260448201939093529051919092169163f866c31991606480830192600092919082900301818387803b15801561088957600080fd5b505af115801561089d573d6000803e3d6000fd5b50505050806101600151600014156109115733600090815260366020526040902060078501546108da908290600160a01b900460ff166001611ae3565b60405133906001600160a01b038e16907e058a56ea94653cdf4f152d227ace22d4c00ad99e2a43f58cb7d9e3feb295f290600090a3505b6109ce565b61091f846115a4565b61018081015161010082015161093c9186918e91906000906116b0565b610180810151610100820151600186015460408051636b81068560e11b81526001600160a01b038e8116600483015233602483015260448201949094526001600160801b03909216606483015251919092169163d7020d0a91608480830192600092919082900301818387803b1580156109b557600080fd5b505af11580156109c9573d6000803e3d6000fd5b505050505b80516101008201511415610a395760078401546109f8908390600160a01b900460ff166000611ae3565b886001600160a01b03168b6001600160a01b03167f44c58d81365b66dd4b1a7f36c25aa97b8c71c361ee4937adc1a00000227db5dd60405160405180910390a35b60048301546080820151610a5f916001600160a01b038d81169233929190911690611b87565b886001600160a01b03168a6001600160a01b03168c6001600160a01b03167fe413a321e8681d831f4dbccbca790d2952b56f977908e45be37335533e0052868460800151856101000151338d60405180858152602001848152602001836001600160a01b03168152602001821515815260200194505050505060405180910390a46000604051806040016040528060028152602001611a1b60f11b81525095509550505050505b9550959350505050565b6000806000806000610b20612a16565b610b298a611be7565b15610b47576000806000806000199550955095509550955050610fc9565b600060e08201525b878160e001511015610f285760e0810151610b6b908b90611bec565b610b7457610f18565b60e0810151600090815260208a81526040808320546001600160a01b03166101e085018190528352908d90529020610bab81611c6b565b506080860181905260c08601929092525060a0840191909152600a0a60208301526101e082015160405163b3596f0760e01b81526001600160a01b038a169163b3596f0791610bfd9190600401612bb4565b60206040518083038186803b158015610c1557600080fd5b505afa158015610c29573d6000803e3d6000fd5b505050506040513d601f19601f82011682018060405250810190610c4d9190612b9c565b825260c082015115801590610c6d575060e0820151610c6d908c90611c96565b15610d91578060040160009054906101000a90046001600160a01b03166001600160a01b03166370a082318e6040518263ffffffff1660e01b8152600401610cb59190612bb4565b60206040518083038186803b158015610ccd57600080fd5b505afa158015610ce1573d6000803e3d6000fd5b505050506040513d601f19601f82011682018060405250810190610d059190612b9c565b6040830181905260208301518351600092610d2a9291610d2491611d1c565b90611d75565b610120840151909150610d3d9082611217565b61012084015260a0830151610d6390610d57908390611d1c565b61016085015190611217565b61016084015260c0830151610d8990610d7d908390611d1c565b61018085015190611217565b610180840152505b60e0820151610da1908c90611db7565b15610f16578060050160009054906101000a90046001600160a01b03166001600160a01b03166370a082318e6040518263ffffffff1660e01b8152600401610de99190612bb4565b60206040518083038186803b158015610e0157600080fd5b505afa158015610e15573d6000803e3d6000fd5b505050506040513d601f19601f82011682018060405250810190610e399190612b9c565b826060018181525050610ee38160060160009054906101000a90046001600160a01b03166001600160a01b03166370a082318f6040518263ffffffff1660e01b8152600401610e889190612bb4565b60206040518083038186803b158015610ea057600080fd5b505afa158015610eb4573d6000803e3d6000fd5b505050506040513d601f19601f82011682018060405250810190610ed89190612b9c565b606084015190611217565b6060830181905260208301518351610f0f92610f039291610d2491611d1c565b61014084015190611217565b6101408301525b505b60e0810180516001019052610b4f565b600081610120015111610f3c576000610f51565b610120810151610160820151610f5191611d75565b610160820152610120810151610f68576000610f7d565b610120810151610180820151610f7d91611d75565b6101808201819052610120820151610140830151610f9a92611e36565b610100820181905261012082015161014083015161016084015161018090940151919850965091945090925090505b965096509650965096915050565b6005810154604080516370a0823160e01b81526001600160a01b0385811660048301529151600093849316916370a08231916024808301926020929190829003018186803b15801561102857600080fd5b505afa15801561103c573d6000803e3d6000fd5b505050506040513d602081101561105257600080fd5b50516006840154604080516370a0823160e01b81526001600160a01b038881166004830152915191909216916370a08231916024808301926020929190829003018186803b1580156110a357600080fd5b505afa1580156110b7573d6000803e3d6000fd5b505050506040513d60208110156110cd57600080fd5b5051909590945092505050565b600060606110e788611e64565b15806110f957506110f787611e64565b155b156111205750506040805180820190915260018152601960f91b602082015260069061120c565b670de0b6b3a764000085106111525750506040805180820190915260028152611a1960f11b602082015260049061120c565b60008061115e8a611e74565b11801561118d5750600789015460408051602081019091528854815261118d91600160a01b900460ff16611c96565b9050806111b757505060408051808201909152600280825261343360f01b6020830152915061120c565b841580156111c3575083155b156111ec5750506040805180820190915260028152610d0d60f21b60208201526003915061120c565b50506040805180820190915260028152611a1b60f11b6020820152600091505b965096945050505050565b600082820183811015611271576040805162461bcd60e51b815260206004820152601b60248201527f536166654d6174683a206164646974696f6e206f766572666c6f770000000000604482015290519081900360640190fd5b90505b92915050565b6000821580611287575081155b1561129457506000611274565b8161138819816112a057fe5b0483111560405180604001604052806002815260200161068760f31b8152509061130b5760405162461bcd60e51b81526020600482018181528351602484015283519092839260449091019190850190808383600083156101f85781810151838201526020016101e0565b506127106002815b04838502018161131f57fe5b049392505050565b6000806000806000603460009054906101000a90046001600160a01b03166001600160a01b031663fca513a86040518163ffffffff1660e01b815260040160206040518083038186803b15801561137d57600080fd5b505afa158015611391573d6000803e3d6000fd5b505050506040513d60208110156113a757600080fd5b505190506113b3612ab0565b816001600160a01b031663b62cad698b6040518263ffffffff1660e01b815260040180826001600160a01b03168152602001915050602060405180830381600087803b15801561140257600080fd5b505af1158015611416573d6000803e3d6000fd5b505050506040513d602081101561142c57600080fd5b5051604080830191909152805163b62cad6960e01b81526001600160a01b038b8116600483015291519184169163b62cad69916024808201926020929091908290030181600087803b15801561148157600080fd5b505af1158015611495573d6000803e3d6000fd5b505050506040513d60208110156114ab57600080fd5b505160608201526114bb8c611c6b565b5060c08501526020840152506114d290508b611e7f565b60a08201819052604082015161151f916114ef9190600a0a611d1c565b610d2483602001516104258560c00151600a0a6115198e8860600151611d1c90919063ffffffff16565b90611d1c565b6080820181905287101561158857869350611581816020015161157b6115598460c00151600a0a8560600151611d1c90919063ffffffff16565b610d248560a00151600a0a6115198a8860400151611d1c90919063ffffffff16565b90611e89565b9250611593565b806080015193508792505b50919a909950975050505050505050565b60068101546040805163b1bf962d60e01b815290516000926001600160a01b03169163b1bf962d916004808301926020929190829003018186803b1580156115eb57600080fd5b505afa1580156115ff573d6000803e3d6000fd5b505050506040513d602081101561161557600080fd5b505160018301546003840154919250600160801b8082046001600160801b03908116939216910464ffffffffff166000806116538787868887611f7c565b91509150611665878787858588612135565b50505050505050565b600061127183836040518060400160405280601e81526020017f536166654d6174683a207375627472616374696f6e206f766572666c6f7700008152506123d8565b6116b8612aed565b60058601546001600160a01b031680825260408051637b98f4df60e11b8152815163f731e9be92600480840193919291829003018186803b1580156116fc57600080fd5b505afa158015611710573d6000803e3d6000fd5b505050506040513d604081101561172657600080fd5b50805160209182015160c084015260408084019190915260018801546006890154825163b1bf962d60e01b815292516117ca94600160801b9093046001600160801b0316936001600160a01b039092169263b1bf962d9260048082019391829003018186803b15801561179857600080fd5b505afa1580156117ac573d6000803e3d6000fd5b505050506040513d60208110156117c257600080fd5b505190612432565b60e082018190526007870154604083015160c08401516001600160a01b03909216926329db497d92899289928992899291906118058f6124e3565b6040518963ffffffff1660e01b815260040180896001600160a01b03168152602001886001600160a01b031681526020018781526020018681526020018581526020018481526020018381526020018281526020019850505050505050505060606040518083038186803b15801561187c57600080fd5b505afa158015611890573d6000803e3d6000fd5b505050506040513d60608110156118a657600080fd5b50805160208083015160409384015160a086015260808501526060840182905282518084019093526002835261353360f01b908301526001600160801b0310156119315760405162461bcd60e51b81526020600482018181528351602484015283519092839260449091019190850190808383600083156101f85781810151838201526020016101e0565b506080810151604080518082019091526002815261353560f01b6020820152906001600160801b0310156119a65760405162461bcd60e51b81526020600482018181528351602484015283519092839260449091019190850190808383600083156101f85781810151838201526020016101e0565b5060a08101516040805180820190915260028152610d4d60f21b6020820152906001600160801b031015611a1b5760405162461bcd60e51b81526020600482018181528351602484015283519092839260449091019190850190808383600083156101f85781810151838201526020016101e0565b5060608181015160028801805460808086015160038c0180546001600160801b03199081166001600160801b038085169190911790925560a0808a015191909516828816178216600160801b82841681029190911790965560018e01546040805198895260208901949094528784019190915280821697870197909752939095049092169183019190915291516001600160a01b038816927f804c9b842b2748a22bb64b345453a3de7ca54a6ca45ce00d415894979e22897a928290030190a2505050505050565b604080518082019091526002815261373760f01b602082015260808310611b4b5760405162461bcd60e51b81526020600482018181528351602484015283519092839260449091019190850190808383600083156101f85781810151838201526020016101e0565b508160020260010181611b5f576000611b62565b60015b60ff16901b826002026001016001901b19846000015416178360000181905550505050565b604080516001600160a01b0380861660248301528416604482015260648082018490528251808303909101815260849091019091526020810180516001600160e01b03166323b872dd60e01b179052611be19085906124ee565b50505050565b511590565b60006080821060405180604001604052806002815260200161373760f01b81525090611c595760405162461bcd60e51b81526020600482018181528351602484015283519092839260449091019190850190808383600083156101f85781810151838201526020016101e0565b50509051600360029092021c16151590565b5461ffff80821692601083901c821692602081901c831692603082901c60ff169260409290921c1690565b60006080821060405180604001604052806002815260200161373760f01b81525090611d035760405162461bcd60e51b81526020600482018181528351602484015283519092839260449091019190850190808383600083156101f85781810151838201526020016101e0565b5050815160016002830281019190911c16151592915050565b600082611d2b57506000611274565b82820282848281611d3857fe5b04146112715760405162461bcd60e51b8152600401808060200182810382526021815260200180612bc96021913960400191505060405180910390fd5b600061127183836040518060400160405280601a81526020017f536166654d6174683a206469766973696f6e206279207a65726f0000000000008152506126a5565b60006080821060405180604001604052806002815260200161373760f01b81525090611e245760405162461bcd60e51b81526020600482018181528351602484015283519092839260449091019190850190808383600083156101f85781810151838201526020016101e0565b50509051600160029092021c16151590565b600082611e465750600019611e5d565b611e5a83611e54868561127a565b9061270a565b90505b9392505050565b5467010000000000000016151590565b5460101c61ffff1690565b5460301c60ff1690565b604080518082019091526002815261035360f41b602082015260009082611ef15760405162461bcd60e51b81526020600482018181528351602484015283519092839260449091019190850190808383600083156101f85781810151838201526020016101e0565b5060408051808201909152600280825261068760f31b6020830152830490612710821904851115611f635760405162461bcd60e51b81526020600482018181528351602484015283519092839260449091019190850190808383600083156101f85781810151838201526020016101e0565b50828161271086020181611f7357fe5b04949350505050565b600285015460009081906001600160801b031685858215612106576000611fa38488612800565b9050611faf818a612432565b604080518082019091526002815261353160f01b60208201529093506001600160801b038411156120215760405162461bcd60e51b81526020600482018181528351602484015283519092839260449091019190850190808383600083156101f85781810151838201526020016101e0565b5060018b0180546001600160801b0319166001600160801b03851617905589156121045760028b015460009061206790600160801b90046001600160801b031689612846565b9050612073818a612432565b6040805180820190915260028152611a9960f11b60208201529093506001600160801b038411156120e55760405162461bcd60e51b81526020600482018181528351602484015283519092839260449091019190850190808383600083156101f85781810151838201526020016101e0565b505060018b0180546001600160801b03808516600160801b0291161790555b505b600399909901805464ffffffffff60801b1916600160801b4264ffffffffff1602179055989650505050505050565b61213d612b3b565b612146876124e3565b610120820181905261215857506123d0565b8660050160009054906101000a90046001600160a01b03166001600160a01b031663797743386040518163ffffffff1660e01b815260040160806040518083038186803b1580156121a857600080fd5b505afa1580156121bc573d6000803e3d6000fd5b505050506040513d60808110156121d257600080fd5b508051602080830151604084015160609094015164ffffffffff1661014086015260a08501939093529183529082015261220c8686612432565b608082015261221b8684612432565b606082015260a081015161014082015161223d919064ffffffffff851661284f565b60c08201819052602082015161225291612432565b6040820181905260808201518251606084015161227d93926122779290918391611217565b9061166e565b60e08201819052610120820151612294919061127a565b610100820181905215611665576040805160208101909152875481526000906122bc90612925565b905060006122d88284610100015161127a90919063ffffffff16565b6101008401519091508181039081830111156122f357600080fd5b6004808b015460408051637df5bd3b60e01b8152928301859052602483018a9052516001600160a01b0390911691637df5bd3b91604480830192600092919082900301818387803b15801561234757600080fd5b505af115801561235b573d6000803e3d6000fd5b5050505060048a81015460408051633c4e0da160e21b8152928301849052602483018a9052516001600160a01b039091169163f138368491604480830192600092919082900301818387803b1580156123b357600080fd5b505af11580156123c7573d6000803e3d6000fd5b50505050505050505b505050505050565b6000818484111561242a5760405162461bcd60e51b81526020600482018181528351602484015283519092839260449091019190850190808383600083156101f85781810151838201526020016101e0565b505050900390565b600082158061243f575081155b1561244c57506000611274565b816b019d971e4fe8401e74000000198161246257fe5b0483111560405180604001604052806002815260200161068760f31b815250906124cd5760405162461bcd60e51b81526020600482018181528351602484015283519092839260449091019190850190808383600083156101f85781810151838201526020016101e0565b506b033b2e3c9fd0803ce8000000600281611313565b5460401c61ffff1690565b612500826001600160a01b0316612933565b612551576040805162461bcd60e51b815260206004820152601f60248201527f5361666545524332303a2063616c6c20746f206e6f6e2d636f6e747261637400604482015290519081900360640190fd5b600080836001600160a01b0316836040518082805190602001908083835b6020831061258e5780518252601f19909201916020918201910161256f565b6001836020036101000a0380198251168184511680821785525050505050509050019150506000604051808303816000865af19150503d80600081146125f0576040519150601f19603f3d011682016040523d82523d6000602084013e6125f5565b606091505b50915091508161264c576040805162461bcd60e51b815260206004820181905260248201527f5361666545524332303a206c6f772d6c6576656c2063616c6c206661696c6564604482015290519081900360640190fd5b805115611be15780806020019051602081101561266857600080fd5b5051611be15760405162461bcd60e51b815260040180806020018281038252602a815260200180612bea602a913960400191505060405180910390fd5b600081836126f45760405162461bcd60e51b81526020600482018181528351602484015283519092839260449091019190850190808383600083156101f85781810151838201526020016101e0565b50600083858161270057fe5b0495945050505050565b604080518082019091526002815261035360f41b6020820152600090826127725760405162461bcd60e51b81526020600482018181528351602484015283519092839260449091019190850190808383600083156101f85781810151838201526020016101e0565b5060408051808201909152600280825261068760f31b6020830152830490670de0b6b3a76400008219048511156127ea5760405162461bcd60e51b81526020600482018181528351602484015283519092839260449091019190850190808383600083156101f85781810151838201526020016101e0565b508281670de0b6b3a764000086020181611f7357fe5b6000806128144264ffffffffff851661166e565b905061283e61282161296c565b6301e133806128308785611d1c565b8161283757fe5b0490611217565b949350505050565b60006112718383425b6000806128638364ffffffffff861661166e565b90508061287a5761287261296c565b915050611e5d565b6000198101600060028311612890576000612895565b600283035b90506301e13380870460006128aa8280612432565b905060006128b88284612432565b9050600060026128cc846115198a8a611d1c565b816128d357fe5b049050600060066128ea8461151989818d8d611d1c565b816128f157fe5b0490506129158161290f84816129078a8e611d1c565b61290f61296c565b90611217565b9c9b505050505050505050505050565b805160501c613fff16919050565b6000813f7fc5d2460186f7233c927e7db2dcc703c0e500b653ca82273b7bfad8045d85a47081811480159061283e575050151592915050565b6b033b2e3c9fd0803ce800000090565b60405180610220016040528060008152602001600081526020016000815260200160008152602001600081526020016000815260200160008152602001600081526020016000815260200160008152602001600081526020016000815260200160006001600160a01b0316815260200160001515815260200160006002811115612a0257fe5b815260200160008152602001606081525090565b604051806102400160405280600081526020016000815260200160008152602001600081526020016000815260200160008152602001600081526020016000815260200160008152602001600081526020016000815260200160008152602001600081526020016000815260200160001515815260200160006001600160a01b031681526020016000151581526020016000151581525090565b6040518060e00160405280600081526020016000815260200160008152602001600081526020016000815260200160008152602001600081525090565b60405180610100016040528060006001600160a01b03168152602001600081526020016000815260200160008152602001600081526020016000815260200160008152602001600081525090565b60405180610160016040528060008152602001600081526020016000815260200160008152602001600081526020016000815260200160008152602001600081526020016000815260200160008152602001600064ffffffffff1681525090565b600060208284031215612bad578081fd5b5051919050565b6001600160a01b039190911681526020019056fe536166654d6174683a206d756c7469706c69636174696f6e206f766572666c6f775361666545524332303a204552433230206f7065726174696f6e20646964206e6f742073756363656564a264697066735822122047080f2b0af0ff9743430bd4a9027a6bc0b8c2459f8afbf890c91b0c8cb99f5864736f6c63430007060033",
  "linkReferences": {},
  "deployedLinkReferences": {}
}