{
  "_format": "hh-sol-artifact-1",
  "contractName": "AToken",
  "sourceName": "contracts/protocol/tokens/AToken.sol",
  "abi": [
    {
      "anonymous": false,
      "inputs": [
        {
          "indexed": true,
          "internalType": "address",
          "name": "owner",
          "type": "address"
        },
        {
          "indexed": true,
          "internalType": "address",
          "name": "spender",
          "type": "address"
        },
        {
          "indexed": false,
          "internalType": "uint256",
          "name": "value",
          "type": "uint256"
        }
      ],
      "name": "Approval",
      "type": "event"
    },
    {
      "anonymous": false,
      "inputs": [
        {
          "indexed": true,
          "internalType": "address",
          "name": "from",
          "type": "address"
        },
        {
          "indexed": true,
          "internalType": "address",
          "name": "to",
          "type": "address"
        },
        {
          "indexed": false,
          "internalType": "uint256",
          "name": "value",
          "type": "uint256"
        },
        {
          "indexed": false,
          "internalType": "uint256",
          "name": "index",
          "type": "uint256"
        }
      ],
      "name": "BalanceTransfer",
      "type": "event"
    },
    {
      "anonymous": false,
      "inputs": [
        {
          "indexed": true,
          "internalType": "address",
          "name": "from",
          "type": "address"
        },
        {
          "indexed": true,
          "internalType": "address",
          "name": "target",
          "type": "address"
        },
        {
          "indexed": false,
          "internalType": "uint256",
          "name": "value",
          "type": "uint256"
        },
        {
          "indexed": false,
          "internalType": "uint256",
          "name": "index",
          "type": "uint256"
        }
      ],
      "name": "Burn",
      "type": "event"
    },
    {
      "anonymous": false,
      "inputs": [
        {
          "indexed": true,
          "internalType": "address",
          "name": "underlyingAsset",
          "type": "address"
        },
        {
          "indexed": true,
          "internalType": "address",
          "name": "pool",
          "type": "address"
        },
        {
          "indexed": false,
          "internalType": "address",
          "name": "treasury",
          "type": "address"
        },
        {
          "indexed": false,
          "internalType": "address",
          "name": "incentivesController",
          "type": "address"
        },
        {
          "indexed": false,
          "internalType": "uint8",
          "name": "aTokenDecimals",
          "type": "uint8"
        },
        {
          "indexed": false,
          "internalType": "string",
          "name": "aTokenName",
          "type": "string"
        },
        {
          "indexed": false,
          "internalType": "string",
          "name": "aTokenSymbol",
          "type": "string"
        },
        {
          "indexed": false,
          "internalType": "bytes",
          "name": "params",
          "type": "bytes"
        }
      ],
      "name": "Initialized",
      "type": "event"
    },
    {
      "anonymous": false,
      "inputs": [
        {
          "indexed": true,
          "internalType": "address",
          "name": "from",
          "type": "address"
        },
        {
          "indexed": false,
          "internalType": "uint256",
          "name": "value",
          "type": "uint256"
        },
        {
          "indexed": false,
          "internalType": "uint256",
          "name": "index",
          "type": "uint256"
        }
      ],
      "name": "Mint",
      "type": "event"
    },
    {
      "anonymous": false,
      "inputs": [
        {
          "indexed": true,
          "internalType": "address",
          "name": "from",
          "type": "address"
        },
        {
          "indexed": true,
          "internalType": "address",
          "name": "to",
          "type": "address"
        },
        {
          "indexed": false,
          "internalType": "uint256",
          "name": "value",
          "type": "uint256"
        }
      ],
      "name": "Transfer",
      "type": "event"
    },
    {
      "inputs": [],
      "name": "ATOKEN_REVISION",
      "outputs": [
        {
          "internalType": "uint256",
          "name": "",
          "type": "uint256"
        }
      ],
      "stateMutability": "view",
      "type": "function"
    },
    {
      "inputs": [],
      "name": "DOMAIN_SEPARATOR",
      "outputs": [
        {
          "internalType": "bytes32",
          "name": "",
          "type": "bytes32"
        }
      ],
      "stateMutability": "view",
      "type": "function"
    },
    {
      "inputs": [],
      "name": "EIP712_REVISION",
      "outputs": [
        {
          "internalType": "bytes",
          "name": "",
          "type": "bytes"
        }
      ],
      "stateMutability": "view",
      "type": "function"
    },
    {
      "inputs": [],
      "name": "PERMIT_TYPEHASH",
      "outputs": [
        {
          "internalType": "bytes32",
          "name": "",
          "type": "bytes32"
        }
      ],
      "stateMutability": "view",
      "type": "function"
    },
    {
      "inputs": [],
      "name": "POOL",
      "outputs": [
        {
          "internalType": "contract ILendingPool",
          "name": "",
          "type": "address"
        }
      ],
      "stateMutability": "view",
      "type": "function"
    },
    {
      "inputs": [],
      "name": "RESERVE_TREASURY_ADDRESS",
      "outputs": [
        {
          "internalType": "address",
          "name": "",
          "type": "address"
        }
      ],
      "stateMutability": "view",
      "type": "function"
    },
    {
      "inputs": [],
      "name": "UNDERLYING_ASSET_ADDRESS",
      "outputs": [
        {
          "internalType": "address",
          "name": "",
          "type": "address"
        }
      ],
      "stateMutability": "view",
      "type": "function"
    },
    {
      "inputs": [
        {
          "internalType": "address",
          "name": "",
          "type": "address"
        }
      ],
      "name": "_nonces",
      "outputs": [
        {
          "internalType": "uint256",
          "name": "",
          "type": "uint256"
        }
      ],
      "stateMutability": "view",
      "type": "function"
    },
    {
      "inputs": [
        {
          "internalType": "address",
          "name": "owner",
          "type": "address"
        },
        {
          "internalType": "address",
          "name": "spender",
          "type": "address"
        }
      ],
      "name": "allowance",
      "outputs": [
        {
          "internalType": "uint256",
          "name": "",
          "type": "uint256"
        }
      ],
      "stateMutability": "view",
      "type": "function"
    },
    {
      "inputs": [
        {
          "internalType": "address",
          "name": "spender",
          "type": "address"
        },
        {
          "internalType": "uint256",
          "name": "amount",
          "type": "uint256"
        }
      ],
      "name": "approve",
      "outputs": [
        {
          "internalType": "bool",
          "name": "",
          "type": "bool"
        }
      ],
      "stateMutability": "nonpayable",
      "type": "function"
    },
    {
      "inputs": [
        {
          "internalType": "address",
          "name": "user",
          "type": "address"
        }
      ],
      "name": "balanceOf",
      "outputs": [
        {
          "internalType": "uint256",
          "name": "",
          "type": "uint256"
        }
      ],
      "stateMutability": "view",
      "type": "function"
    },
    {
      "inputs": [
        {
          "internalType": "address",
          "name": "user",
          "type": "address"
        },
        {
          "internalType": "address",
          "name": "receiverOfUnderlying",
          "type": "address"
        },
        {
          "internalType": "uint256",
          "name": "amount",
          "type": "uint256"
        },
        {
          "internalType": "uint256",
          "name": "index",
          "type": "uint256"
        }
      ],
      "name": "burn",
      "outputs": [],
      "stateMutability": "nonpayable",
      "type": "function"
    },
    {
      "inputs": [],
      "name": "decimals",
      "outputs": [
        {
          "internalType": "uint8",
          "name": "",
          "type": "uint8"
        }
      ],
      "stateMutability": "view",
      "type": "function"
    },
    {
      "inputs": [
        {
          "internalType": "address",
          "name": "spender",
          "type": "address"
        },
        {
          "internalType": "uint256",
          "name": "subtractedValue",
          "type": "uint256"
        }
      ],
      "name": "decreaseAllowance",
      "outputs": [
        {
          "internalType": "bool",
          "name": "",
          "type": "bool"
        }
      ],
      "stateMutability": "nonpayable",
      "type": "function"
    },
    {
      "inputs": [],
      "name": "getAssetPrice",
      "outputs": [
        {
          "internalType": "uint256",
          "name": "",
          "type": "uint256"
        }
      ],
      "stateMutability": "view",
      "type": "function"
    },
    {
      "inputs": [],
      "name": "getIncentivesController",
      "outputs": [
        {
          "internalType": "contract IAaveIncentivesController",
          "name": "",
          "type": "address"
        }
      ],
      "stateMutability": "view",
      "type": "function"
    },
    {
      "inputs": [
        {
          "internalType": "address",
          "name": "user",
          "type": "address"
        }
      ],
      "name": "getScaledUserBalanceAndSupply",
      "outputs": [
        {
          "internalType": "uint256",
          "name": "",
          "type": "uint256"
        },
        {
          "internalType": "uint256",
          "name": "",
          "type": "uint256"
        }
      ],
      "stateMutability": "view",
      "type": "function"
    },
    {
      "inputs": [
        {
          "internalType": "address",
          "name": "user",
          "type": "address"
        },
        {
          "internalType": "uint256",
          "name": "amount",
          "type": "uint256"
        }
      ],
      "name": "handleRepayment",
      "outputs": [],
      "stateMutability": "nonpayable",
      "type": "function"
    },
    {
      "inputs": [
        {
          "internalType": "address",
          "name": "spender",
          "type": "address"
        },
        {
          "internalType": "uint256",
          "name": "addedValue",
          "type": "uint256"
        }
      ],
      "name": "increaseAllowance",
      "outputs": [
        {
          "internalType": "bool",
          "name": "",
          "type": "bool"
        }
      ],
      "stateMutability": "nonpayable",
      "type": "function"
    },
    {
      "inputs": [
        {
          "internalType": "contract ILendingPool",
          "name": "pool",
          "type": "address"
        },
        {
          "internalType": "address",
          "name": "treasury",
          "type": "address"
        },
        {
          "internalType": "address",
          "name": "underlyingAsset",
          "type": "address"
        },
        {
          "internalType": "contract IAaveIncentivesController",
          "name": "incentivesController",
          "type": "address"
        },
        {
          "internalType": "uint8",
          "name": "aTokenDecimals",
          "type": "uint8"
        },
        {
          "internalType": "string",
          "name": "aTokenName",
          "type": "string"
        },
        {
          "internalType": "string",
          "name": "aTokenSymbol",
          "type": "string"
        },
        {
          "internalType": "bytes",
          "name": "params",
          "type": "bytes"
        }
      ],
      "name": "initialize",
      "outputs": [],
      "stateMutability": "nonpayable",
      "type": "function"
    },
    {
      "inputs": [
        {
          "internalType": "address",
          "name": "user",
          "type": "address"
        },
        {
          "internalType": "uint256",
          "name": "amount",
          "type": "uint256"
        },
        {
          "internalType": "uint256",
          "name": "index",
          "type": "uint256"
        }
      ],
      "name": "mint",
      "outputs": [
        {
          "internalType": "bool",
          "name": "",
          "type": "bool"
        }
      ],
      "stateMutability": "nonpayable",
      "type": "function"
    },
    {
      "inputs": [
        {
          "internalType": "uint256",
          "name": "amount",
          "type": "uint256"
        },
        {
          "internalType": "uint256",
          "name": "index",
          "type": "uint256"
        }
      ],
      "name": "mintToTeam",
      "outputs": [],
      "stateMutability": "nonpayable",
      "type": "function"
    },
    {
      "inputs": [
        {
          "internalType": "uint256",
          "name": "amount",
          "type": "uint256"
        },
        {
          "internalType": "uint256",
          "name": "index",
          "type": "uint256"
        }
      ],
      "name": "mintToTreasury",
      "outputs": [],
      "stateMutability": "nonpayable",
      "type": "function"
    },
    {
      "inputs": [],
      "name": "name",
      "outputs": [
        {
          "internalType": "string",
          "name": "",
          "type": "string"
        }
      ],
      "stateMutability": "view",
      "type": "function"
    },
    {
      "inputs": [
        {
          "internalType": "address",
          "name": "owner",
          "type": "address"
        },
        {
          "internalType": "address",
          "name": "spender",
          "type": "address"
        },
        {
          "internalType": "uint256",
          "name": "value",
          "type": "uint256"
        },
        {
          "internalType": "uint256",
          "name": "deadline",
          "type": "uint256"
        },
        {
          "internalType": "uint8",
          "name": "v",
          "type": "uint8"
        },
        {
          "internalType": "bytes32",
          "name": "r",
          "type": "bytes32"
        },
        {
          "internalType": "bytes32",
          "name": "s",
          "type": "bytes32"
        }
      ],
      "name": "permit",
      "outputs": [],
      "stateMutability": "nonpayable",
      "type": "function"
    },
    {
      "inputs": [
        {
          "internalType": "address",
          "name": "user",
          "type": "address"
        }
      ],
      "name": "scaledBalanceOf",
      "outputs": [
        {
          "internalType": "uint256",
          "name": "",
          "type": "uint256"
        }
      ],
      "stateMutability": "view",
      "type": "function"
    },
    {
      "inputs": [],
      "name": "scaledTotalSupply",
      "outputs": [
        {
          "internalType": "uint256",
          "name": "",
          "type": "uint256"
        }
      ],
      "stateMutability": "view",
      "type": "function"
    },
    {
      "inputs": [],
      "name": "symbol",
      "outputs": [
        {
          "internalType": "string",
          "name": "",
          "type": "string"
        }
      ],
      "stateMutability": "view",
      "type": "function"
    },
    {
      "inputs": [],
      "name": "totalSupply",
      "outputs": [
        {
          "internalType": "uint256",
          "name": "",
          "type": "uint256"
        }
      ],
      "stateMutability": "view",
      "type": "function"
    },
    {
      "inputs": [
        {
          "internalType": "address",
          "name": "recipient",
          "type": "address"
        },
        {
          "internalType": "uint256",
          "name": "amount",
          "type": "uint256"
        }
      ],
      "name": "transfer",
      "outputs": [
        {
          "internalType": "bool",
          "name": "",
          "type": "bool"
        }
      ],
      "stateMutability": "nonpayable",
      "type": "function"
    },
    {
      "inputs": [
        {
          "internalType": "address",
          "name": "sender",
          "type": "address"
        },
        {
          "internalType": "address",
          "name": "recipient",
          "type": "address"
        },
        {
          "internalType": "uint256",
          "name": "amount",
          "type": "uint256"
        }
      ],
      "name": "transferFrom",
      "outputs": [
        {
          "internalType": "bool",
          "name": "",
          "type": "bool"
        }
      ],
      "stateMutability": "nonpayable",
      "type": "function"
    },
    {
      "inputs": [
        {
          "internalType": "address",
          "name": "from",
          "type": "address"
        },
        {
          "internalType": "address",
          "name": "to",
          "type": "address"
        },
        {
          "internalType": "uint256",
          "name": "value",
          "type": "uint256"
        }
      ],
      "name": "transferOnLiquidation",
      "outputs": [],
      "stateMutability": "nonpayable",
      "type": "function"
    },
    {
      "inputs": [
        {
          "internalType": "address",
          "name": "target",
          "type": "address"
        },
        {
          "internalType": "uint256",
          "name": "amount",
          "type": "uint256"
        }
      ],
      "name": "transferUnderlyingTo",
      "outputs": [
        {
          "internalType": "uint256",
          "name": "",
          "type": "uint256"
        }
      ],
      "stateMutability": "nonpayable",
      "type": "function"
    },
    {
      "inputs": [
        {
          "internalType": "uint256",
          "name": "amount",
          "type": "uint256"
        }
      ],
      "name": "withdrawReserves",
      "outputs": [
        {
          "internalType": "uint256",
          "name": "",
          "type": "uint256"
        }
      ],
      "stateMutability": "nonpayable",
      "type": "function"
    }
  ],
  "bytecode": "0x6080604052600080553480156200001557600080fd5b50604080518082018252600b8082526a105513d2d15397d253541360aa1b60208084018281528551808701909652928552840152815191929160009162000060916037919062000094565b5081516200007690603890602085019062000094565b506039805460ff191660ff9290921691909117905550620001409050565b828054600181600116156101000203166002900490600052602060002090601f016020900481019282620000cc576000855562000117565b82601f10620000e757805160ff191683800117855562000117565b8280016001018555821562000117579182015b8281111562000117578251825591602001919060010190620000fa565b506200012592915062000129565b5090565b5b808211156200012557600081556001016200012a565b6130cf80620001506000396000f3fe608060405234801561001057600080fd5b50600436106102065760003560e01c8063781603761161011a578063b16a19de116100ad578063d7020d0a1161007c578063d7020d0a146103fd578063dd62ed3e14610410578063e54f088014610423578063f13836841461042b578063f866c3191461043e57610206565b8063b16a19de146103c7578063b1bf962d146103cf578063b9844d8d146103d7578063d505accf146103ea57610206565b806398aa8c33116100e957806398aa8c3314610386578063a457c2d714610399578063a9059cbb146103ac578063ae167335146103bf57610206565b806378160376146103505780637df5bd3b1461035857806388dd91a11461036b57806395d89b411461037e57610206565b806323b872dd1161019d578063395093511161016c57806339509351146102fa5780634efecaa51461030d57806370a08231146103205780637535d2461461033357806375d264131461034857610206565b806323b872dd146102c257806330adf81f146102d5578063313ce567146102dd5780633644e515146102f257610206565b8063156e29f6116101d9578063156e29f61461027f57806318160ddd14610292578063183fb4131461029a5780631da24f3e146102af57610206565b806306fdde031461020b578063095ea7b3146102295780630afbcdc9146102495780630bd7ad3b1461026a575b600080fd5b610213610451565b6040516102209190612d61565b60405180910390f35b61023c6102373660046128f8565b6104e8565b6040516102209190612ccf565b61025c610257366004612793565b610506565b604051610220929190612e6e565b610272610523565b6040516102209190612cda565b61023c61028d366004612923565b610528565b610272610676565b6102ad6102a8366004612957565b61072d565b005b6102726102bd366004612793565b6109ec565b61023c6102d0366004612803565b6109ff565b610272610abf565b6102e5610ae3565b6040516102209190612e7c565b610272610aec565b61023c6103083660046128f8565b610af2565b61027261031b3660046128f8565b610b40565b61027261032e366004612793565b610bbd565b61033b610c5b565b6040516102209190612c14565b61033b610c6f565b610213610c7e565b6102ad610366366004612b56565b610c9b565b6102ad6103793660046128f8565b610da4565b610213610e05565b610272610394366004612a47565b610e66565b61023c6103a73660046128f8565b611215565b61023c6103ba3660046128f8565b61127d565b61033b6112da565b61033b6112e9565b6102726112f8565b6102726103e5366004612793565b611302565b6102ad6103f8366004612888565b611314565b6102ad61040b366004612843565b6114ac565b61027261041e3660046127cb565b6115ff565b61027261162a565b6102ad610439366004612b56565b61179c565b6102ad61044c366004612803565b61190b565b60378054604080516020601f60026000196101006001881615020190951694909404938401819004810282018101909252828152606093909290918301828280156104dd5780601f106104b2576101008083540402835291602001916104dd565b820191906000526020600020905b8154815290600101906020018083116104c057829003601f168201915b505050505090505b90565b60006104fc6104f56119b3565b84846119b7565b5060015b92915050565b60008061051283611aa3565b61051a611abe565b91509150915091565b600181565b60395460009061010090046001600160a01b03166105446119b3565b6001600160a01b03161460405180604001604052806002815260200161323960f01b815250906105905760405162461bcd60e51b81526004016105879190612d61565b60405180910390fd5b50600061059c85611aa3565b905060006105aa8585611ac4565b6040805180820190915260028152611a9b60f11b6020820152909150816105e45760405162461bcd60e51b81526004016105879190612d61565b506105ef8682611c08565b856001600160a01b031660006001600160a01b0316600080516020612fc1833981519152876040516106219190612cda565b60405180910390a3856001600160a01b03167f4c209b5fc8ad50758f13e2e1088ba56a560dff690a1c6fef26394f4c03821c4f8686604051610664929190612e6e565b60405180910390a25015949350505050565b600080610681611abe565b9050806106925760009150506104e5565b603954603a5460405163d15e005360e01b81526107279261010090046001600160a01b039081169263d15e0053926106d09290911690600401612c14565b60206040518083038186803b1580156106e857600080fd5b505afa1580156106fc573d6000803e3d6000fd5b505050506040513d601f19601f820116820180604052508101906107209190612a5f565b8290611d64565b91505090565b6000610737611e22565b60015490915060ff168061074e575061074e611e27565b8061075a575060005481115b6107955760405162461bcd60e51b815260040180806020018281038252602e815260200180612f93602e913960400191505060405180910390fd5b60015460ff161580156107b4576001805460ff19168117905560008290555b60405146907f8b73c3c69bb8fe3d512ecc4cf759cc79239f7b179b0ffacaa9a75d522b39400f906107e8908b908b90612bcd565b60408051918290038220828201825260018352603160f81b602093840152905161083993927fc89efdaa54c0f20c7adf612882df0950f5a951637e0307cdcb4c672f298b8bc6918691309101612d17565b60408051601f198184030181528282528051602091820120603c55601f8b0181900481028301810190915289825261088c91908b908b9081908401838280828437600092019190915250611e2d92505050565b6108cb87878080601f016020809104026020016040519081016040528093929190818152602001838380828437600092019190915250611e4092505050565b6108d48a611e53565b8d603960016101000a8154816001600160a01b0302191690836001600160a01b031602179055508c603d60006101000a8154816001600160a01b0302191690836001600160a01b031602179055508b603a60006101000a8154816001600160a01b0302191690836001600160a01b031602179055508a603e60006101000a8154816001600160a01b0302191690836001600160a01b031602179055508d6001600160a01b03168c6001600160a01b03167fb19e051f8af41150ccccb3fc2c2d8d15f4a4cf434f32a559ba75fe73d6eea20b8f8e8e8e8e8e8e8e8e6040516109c399989796959493929190612c61565b60405180910390a35080156109dd576001805460ff191690555b50505050505050505050505050565b60006109f782611aa3565b90505b919050565b6000610a0c848484611e69565b610a7c84610a186119b3565b610a7785604051806060016040528060288152602001612f6b602891396001600160a01b038a16600090815260356020526040812090610a566119b3565b6001600160a01b031681526020810191909152604001600020549190611e76565b6119b7565b826001600160a01b0316846001600160a01b0316600080516020612fc1833981519152846040518082815260200191505060405180910390a35060019392505050565b7f6e71edae12b1b97f4d1f60370fef10105fa2faae0126114a169c64845d6126c981565b60395460ff1690565b603c5481565b60006104fc610aff6119b3565b84610a778560356000610b106119b3565b6001600160a01b03908116825260208083019390935260409182016000908120918c168152925290205490611ed0565b60395460009061010090046001600160a01b0316610b5c6119b3565b6001600160a01b03161460405180604001604052806002815260200161323960f01b81525090610b9f5760405162461bcd60e51b81526004016105879190612d61565b50603a54610bb7906001600160a01b03168484611f31565b50919050565b603954603a5460405163d15e005360e01b81526000926109f7926001600160a01b0361010090920482169263d15e005392610bfc921690600401612c14565b60206040518083038186803b158015610c1457600080fd5b505afa158015610c28573d6000803e3d6000fd5b505050506040513d601f19601f82011682018060405250810190610c4c9190612a5f565b610c5584611aa3565b90611d64565b60395461010090046001600160a01b031690565b6000610c79611f83565b905090565b604051806040016040528060018152602001603160f81b81525081565b60395461010090046001600160a01b0316610cb46119b3565b6001600160a01b03161460405180604001604052806002815260200161323960f01b81525090610cf75760405162461bcd60e51b81526004016105879190612d61565b5081610d0257610da0565b603d546001600160a01b0316610d2181610d1c8585611ac4565b611c08565b806001600160a01b031660006001600160a01b0316600080516020612fc183398151915285604051610d539190612cda565b60405180910390a3806001600160a01b03167f4c209b5fc8ad50758f13e2e1088ba56a560dff690a1c6fef26394f4c03821c4f8484604051610d96929190612e6e565b60405180910390a2505b5050565b60395461010090046001600160a01b0316610dbd6119b3565b6001600160a01b03161460405180604001604052806002815260200161323960f01b81525090610e005760405162461bcd60e51b81526004016105879190612d61565b505050565b60388054604080516020601f60026000196101006001881615020190951694909404938401819004810282018101909252828152606093909290918301828280156104dd5780601f106104b2576101008083540402835291602001916104dd565b6000603960019054906101000a90046001600160a01b03166001600160a01b031663fe65acfe6040518163ffffffff1660e01b815260040160206040518083038186803b158015610eb657600080fd5b505afa158015610eca573d6000803e3d6000fd5b505050506040513d601f19601f82011682018060405250810190610eee91906127af565b6001600160a01b031663aecda3786040518163ffffffff1660e01b815260040160206040518083038186803b158015610f2657600080fd5b505afa158015610f3a573d6000803e3d6000fd5b505050506040513d601f19601f82011682018060405250810190610f5e91906127af565b6001600160a01b0316610f6f6119b3565b6001600160a01b03161460405180604001604052806002815260200161333360f01b81525090610fb25760405162461bcd60e51b81526004016105879190612d61565b50603a546040516370a0823160e01b81526000916001600160a01b0316906370a0823190610fe4903090600401612c14565b60206040518083038186803b158015610ffc57600080fd5b505afa158015611010573d6000803e3d6000fd5b505050506040513d601f19601f820116820180604052508101906110349190612a5f565b90506000611040610676565b603954603a54604051929350600092839261010090046001600160a01b03908116926335ea6a7560e01b9261107b9290911690602401612c14565b60408051601f198184030181529181526020820180516001600160e01b03166001600160e01b03199094169390931790925290516110b99190612bdd565b600060405180830381855afa9150503d80600081146110f4576040519150601f19603f3d011682016040523d82523d6000602084013e6110f9565b606091505b50915091508161111b5760405162461bcd60e51b815260040161058790612de4565b6000818060200190518101906111319190612a77565b505099505050505050505050506000816001600160a01b03166318160ddd6040518163ffffffff1660e01b815260040160206040518083038186803b15801561117957600080fd5b505afa15801561118d573d6000803e3d6000fd5b505050506040513d601f19601f820116820180604052508101906111b19190612a5f565b905060006111bf8683611f92565b9050806111cc888b611f92565b10156111ea5760405162461bcd60e51b815260040161058790612d74565b6112086111f56119b3565b603a546001600160a01b0316908b611f31565b5096979650505050505050565b60006104fc6112226119b3565b84610a7785604051806060016040528060258152602001613075602591396035600061124c6119b3565b6001600160a01b03908116825260208083019390935260409182016000908120918d16815292529020549190611e76565b600061129161128a6119b3565b8484611e69565b826001600160a01b03166112a36119b3565b6001600160a01b0316600080516020612fc1833981519152846040518082815260200191505060405180910390a350600192915050565b603d546001600160a01b031690565b603a546001600160a01b031690565b6000610c79611abe565b603b6020526000908152604090205481565b6001600160a01b03871661133a5760405162461bcd60e51b815260040161058790612e47565b8342111561135a5760405162461bcd60e51b815260040161058790612e1b565b6001600160a01b0387166000908152603b6020908152604080832054603c5491519093926113b4917f6e71edae12b1b97f4d1f60370fef10105fa2faae0126114a169c64845d6126c9918d918d918d9189918e9101612ce3565b604051602081830303815290604052805190602001206040516020016113db929190612bf9565b604051602081830303815290604052805190602001209050600181868686604051600081526020016040526040516114169493929190612d43565b6020604051602081039080840390855afa158015611438573d6000803e3d6000fd5b505050602060405103516001600160a01b0316896001600160a01b0316146114725760405162461bcd60e51b815260040161058790612db9565b61147d826001611ed0565b6001600160a01b038a166000908152603b60205260409020556114a18989896119b7565b505050505050505050565b60395461010090046001600160a01b03166114c56119b3565b6001600160a01b03161460405180604001604052806002815260200161323960f01b815250906115085760405162461bcd60e51b81526004016105879190612d61565b5060006115158383611ac4565b60408051808201909152600281526106a760f31b60208201529091508161154f5760405162461bcd60e51b81526004016105879190612d61565b5061155a8582611fd4565b603a54611571906001600160a01b03168585611f31565b60006001600160a01b0316856001600160a01b0316600080516020612fc1833981519152856040516115a39190612cda565b60405180910390a3836001600160a01b0316856001600160a01b03167f5d624aa9c148153ab3446c1b154f660ee7701e549fe9b62dab7171b1c80e6fa285856040516115f0929190612e6e565b60405180910390a35050505050565b6001600160a01b03918216600090815260356020908152604080832093909416825291909152205490565b600080603960019054906101000a90046001600160a01b03166001600160a01b031663fe65acfe6040518163ffffffff1660e01b815260040160206040518083038186803b15801561167b57600080fd5b505afa15801561168f573d6000803e3d6000fd5b505050506040513d60208110156116a557600080fd5b505160408051631f94a27560e31b815290519192506000916001600160a01b0384169163fca513a8916004808301926020929190829003018186803b1580156116ed57600080fd5b505afa158015611701573d6000803e3d6000fd5b505050506040513d602081101561171757600080fd5b5051603a546040805163b3596f0760e01b81526001600160a01b03928316600482015290519293509083169163b3596f0791602480820192602092909190829003018186803b15801561176957600080fd5b505afa15801561177d573d6000803e3d6000fd5b505050506040513d602081101561179357600080fd5b50519250505090565b60395461010090046001600160a01b03166117b56119b3565b6001600160a01b03161460405180604001604052806002815260200161323960f01b815250906117f85760405162461bcd60e51b81526004016105879190612d61565b508161180357610da0565b6000603960019054906101000a90046001600160a01b03166001600160a01b031663fe65acfe6040518163ffffffff1660e01b815260040160206040518083038186803b15801561185357600080fd5b505afa158015611867573d6000803e3d6000fd5b505050506040513d601f19601f8201168201806040525081019061188b91906127af565b6001600160a01b031663aecda3786040518163ffffffff1660e01b815260040160206040518083038186803b1580156118c357600080fd5b505afa1580156118d7573d6000803e3d6000fd5b505050506040513d601f19601f820116820180604052508101906118fb91906127af565b9050610d2181610d1c8585611ac4565b60395461010090046001600160a01b03166119246119b3565b6001600160a01b03161460405180604001604052806002815260200161323960f01b815250906119675760405162461bcd60e51b81526004016105879190612d61565b50611975838383600061207d565b816001600160a01b0316836001600160a01b0316600080516020612fc1833981519152836040516119a69190612cda565b60405180910390a3505050565b3390565b6001600160a01b0383166119fc5760405162461bcd60e51b81526004018080602001828103825260248152602001806130276024913960400191505060405180910390fd5b6001600160a01b038216611a415760405162461bcd60e51b8152600401808060200182810382526022815260200180612f236022913960400191505060405180910390fd5b6001600160a01b03808416600081815260356020908152604080832094871680845294825291829020859055815185815291517f8c5be1e5ebec7d5bd14f71427d1e84f3dd0314c0f7b2291e5b200ac8c7c3b9259281900390910190a3505050565b6001600160a01b031660009081526034602052604090205490565b60365490565b604080518082019091526002815261035360f41b602082015260009082611b695760405162461bcd60e51b81526004018080602001828103825283818151815260200191508051906020019080838360005b83811015611b2e578181015183820152602001611b16565b50505050905090810190601f168015611b5b5780820380516001836020036101000a031916815260200191505b509250505060405180910390fd5b5060408051808201909152600280825261068760f31b60208301528304906b033b2e3c9fd0803ce8000000821904851115611be55760405162461bcd60e51b8152602060048201818152835160248401528351909283926044909101919085019080838360008315611b2e578181015183820152602001611b16565b5082816b033b2e3c9fd0803ce800000086020181611bff57fe5b04949350505050565b6001600160a01b038216611c63576040805162461bcd60e51b815260206004820152601f60248201527f45524332303a206d696e7420746f20746865207a65726f206164647265737300604482015290519081900360640190fd5b611c6f60008383610e00565b603654600090611c7f9083611ed0565b60368190556001600160a01b03841660009081526034602052604081205491925090611cab9084611ed0565b6001600160a01b0385166000908152603460205260408120829055909150611cd1611f83565b6001600160a01b031614611d5e57611ce7611f83565b6001600160a01b03166331873e2e8583856040518463ffffffff1660e01b815260040180846001600160a01b031681526020018381526020018281526020019350505050600060405180830381600087803b158015611d4557600080fd5b505af1158015611d59573d6000803e3d6000fd5b505050505b50505050565b6000821580611d71575081155b15611d7e57506000610500565b816b019d971e4fe8401e740000001981611d9457fe5b0483111560405180604001604052806002815260200161068760f31b81525090611dff5760405162461bcd60e51b8152602060048201818152835160248401528351909283926044909101919085019080838360008315611b2e578181015183820152602001611b16565b50506b033b2e3c9fd0803ce800000091026b019d971e4fe8401e74000000010490565b600190565b303b1590565b8051610da090603790602084019061265f565b8051610da090603890602084019061265f565b6039805460ff191660ff92909216919091179055565b610e00838383600161207d565b60008184841115611ec85760405162461bcd60e51b8152602060048201818152835160248401528351909283926044909101919085019080838360008315611b2e578181015183820152602001611b16565b505050900390565b600082820183811015611f2a576040805162461bcd60e51b815260206004820152601b60248201527f536166654d6174683a206164646974696f6e206f766572666c6f770000000000604482015290519081900360640190fd5b9392505050565b604080516001600160a01b038416602482015260448082018490528251808303909101815260649091019091526020810180516001600160e01b031663a9059cbb60e01b179052610e0090849061220e565b603e546001600160a01b031690565b6000611f2a83836040518060400160405280601e81526020017f536166654d6174683a207375627472616374696f6e206f766572666c6f770000815250611e76565b6001600160a01b0382166120195760405162461bcd60e51b8152600401808060200182810382526021815260200180612fe16021913960400191505060405180910390fd5b61202582600083610e00565b6036546000906120359083611f92565b9050806036819055506000611cab83604051806060016040528060228152602001612f01602291396001600160a01b0387166000908152603460205260409020549190611e76565b603a5460395460405163d15e005360e01b81526001600160a01b039283169261010090920490911690600090829063d15e0053906120bf908690600401612c14565b60206040518083038186803b1580156120d757600080fd5b505afa1580156120eb573d6000803e3d6000fd5b505050506040513d601f19601f8201168201806040525081019061210f9190612a5f565b9050600061212082610c558a611aa3565b9050600061213183610c558a611aa3565b905061214789896121428a87611ac4565b6123c5565b85156121b65760405163d5ed393360e01b81526001600160a01b0385169063d5ed3933906121839088908d908d908d9089908990600401612c28565b600060405180830381600087803b15801561219d57600080fd5b505af11580156121b1573d6000803e3d6000fd5b505050505b876001600160a01b0316896001600160a01b03167f4beccb90f994c31aced7a23b5611020728a23d8ec5cddd1a3e9d97b96fda866689866040516121fb929190612e6e565b60405180910390a3505050505050505050565b612220826001600160a01b0316612623565b612271576040805162461bcd60e51b815260206004820152601f60248201527f5361666545524332303a2063616c6c20746f206e6f6e2d636f6e747261637400604482015290519081900360640190fd5b600080836001600160a01b0316836040518082805190602001908083835b602083106122ae5780518252601f19909201916020918201910161228f565b6001836020036101000a0380198251168184511680821785525050505050509050019150506000604051808303816000865af19150503d8060008114612310576040519150601f19603f3d011682016040523d82523d6000602084013e612315565b606091505b50915091508161236c576040805162461bcd60e51b815260206004820181905260248201527f5361666545524332303a206c6f772d6c6576656c2063616c6c206661696c6564604482015290519081900360640190fd5b805115611d5e5780806020019051602081101561238857600080fd5b5051611d5e5760405162461bcd60e51b815260040180806020018281038252602a81526020018061304b602a913960400191505060405180910390fd5b6001600160a01b03831661240a5760405162461bcd60e51b81526004018080602001828103825260258152602001806130026025913960400191505060405180910390fd5b6001600160a01b03821661244f5760405162461bcd60e51b8152600401808060200182810382526023815260200180612ede6023913960400191505060405180910390fd5b61245a838383610e00565b600061249982604051806060016040528060268152602001612f45602691396001600160a01b0387166000908152603460205260409020549190611e76565b6001600160a01b03808616600090815260346020526040808220849055918616815290812054919250906124cd9084611ed0565b6001600160a01b03851660009081526034602052604081208290559091506124f3611f83565b6001600160a01b03161461261c5760365461250c611f83565b6001600160a01b03166331873e2e8785846040518463ffffffff1660e01b815260040180846001600160a01b031681526020018381526020018281526020019350505050600060405180830381600087803b15801561256a57600080fd5b505af115801561257e573d6000803e3d6000fd5b50505050846001600160a01b0316866001600160a01b03161461261a576125a3611f83565b6001600160a01b03166331873e2e8684846040518463ffffffff1660e01b815260040180846001600160a01b031681526020018381526020018281526020019350505050600060405180830381600087803b15801561260157600080fd5b505af1158015612615573d6000803e3d6000fd5b505050505b505b5050505050565b6000813f7fc5d2460186f7233c927e7db2dcc703c0e500b653ca82273b7bfad8045d85a47081811480159061265757508115155b949350505050565b828054600181600116156101000203166002900490600052602060002090601f01602090048101928261269557600085556126db565b82601f106126ae57805160ff19168380011785556126db565b828001600101855582156126db579182015b828111156126db5782518255916020019190600101906126c0565b506126e79291506126eb565b5090565b5b808211156126e757600081556001016126ec565b80356109fa81612eb6565b80516109fa81612eb6565b60008083601f840112612727578182fd5b50813567ffffffffffffffff81111561273e578182fd5b60208301915083602082850101111561275657600080fd5b9250929050565b80516fffffffffffffffffffffffffffffffff811681146109fa57600080fd5b80356109fa81612ece565b80516109fa81612ece565b6000602082840312156127a4578081fd5b8135611f2a81612eb6565b6000602082840312156127c0578081fd5b8151611f2a81612eb6565b600080604083850312156127dd578081fd5b82356127e881612eb6565b915060208301356127f881612eb6565b809150509250929050565b600080600060608486031215612817578081fd5b833561282281612eb6565b9250602084013561283281612eb6565b929592945050506040919091013590565b60008060008060808587031215612858578081fd5b843561286381612eb6565b9350602085013561287381612eb6565b93969395505050506040820135916060013590565b600080600080600080600060e0888a0312156128a2578283fd5b87356128ad81612eb6565b965060208801356128bd81612eb6565b9550604088013594506060880135935060808801356128db81612ece565b9699959850939692959460a0840135945060c09093013592915050565b6000806040838503121561290a578182fd5b823561291581612eb6565b946020939093013593505050565b600080600060608486031215612937578283fd5b833561294281612eb6565b95602085013595506040909401359392505050565b60008060008060008060008060008060006101008c8e031215612978578485fd5b6129818c612700565b9a5061298f60208d01612700565b995061299d60408d01612700565b98506129ab60608d01612700565b97506129b960808d0161277d565b965067ffffffffffffffff8060a08e013511156129d4578586fd5b6129e48e60a08f01358f01612716565b909750955060c08d01358110156129f9578485fd5b612a098e60c08f01358f01612716565b909550935060e08d0135811015612a1e578283fd5b50612a2f8d60e08e01358e01612716565b81935080925050509295989b509295989b9093969950565b600060208284031215612a58578081fd5b5035919050565b600060208284031215612a70578081fd5b5051919050565b6000806000806000806000806000806000806101808d8f031215612a99578586fd5b8c519b50612aa960208e0161275d565b9a50612ab760408e0161275d565b9950612ac560608e0161275d565b9850612ad360808e0161275d565b9750612ae160a08e0161275d565b965060c08d015164ffffffffff81168114612afa578687fd5b9550612b0860e08e0161270b565b9450612b176101008e0161270b565b9350612b266101208e0161270b565b9250612b356101408e0161270b565b9150612b446101608e01612788565b90509295989b509295989b509295989b565b60008060408385031215612b68578182fd5b50508035926020909101359150565b60008284528282602086013780602084860101526020601f19601f85011685010190509392505050565b60008151808452612bb9816020860160208601612e8a565b601f01601f19169290920160200192915050565b6000828483379101908152919050565b60008251612bef818460208701612e8a565b9190910192915050565b61190160f01b81526002810192909252602282015260420190565b6001600160a01b0391909116815260200190565b6001600160a01b03968716815294861660208601529290941660408401526060830152608082019290925260a081019190915260c00190565b6001600160a01b038a811682528916602082015260ff8816604082015260c060608201819052600090612c97908301888a612b77565b8281036080840152612caa818789612b77565b905082810360a0840152612cbf818587612b77565b9c9b505050505050505050505050565b901515815260200190565b90815260200190565b9586526001600160a01b0394851660208701529290931660408501526060840152608083019190915260a082015260c00190565b9485526020850193909352604084019190915260608301526001600160a01b0316608082015260a00190565b93845260ff9290921660208401526040830152606082015260800190565b600060208252611f2a6020830184612ba1565b60208082526025908201527f5769746864726177616c206578636565647320617661696c61626c6520726573604082015264657276657360d81b606082015260800190565b602080825260119082015270494e56414c49445f5349474e415455524560781b604082015260600190565b6020808252601c908201527f4661696c656420746f2066657463682072657365727665206461746100000000604082015260600190565b60208082526012908201527124a72b20a624a22fa2ac2824a920aa24a7a760711b604082015260600190565b6020808252600d908201526c24a72b20a624a22fa7aba722a960991b604082015260600190565b918252602082015260400190565b60ff91909116815260200190565b60005b83811015612ea5578181015183820152602001612e8d565b83811115611d5e5750506000910152565b6001600160a01b0381168114612ecb57600080fd5b50565b60ff81168114612ecb57600080fdfe45524332303a207472616e7366657220746f20746865207a65726f206164647265737345524332303a206275726e20616d6f756e7420657863656564732062616c616e636545524332303a20617070726f766520746f20746865207a65726f206164647265737345524332303a207472616e7366657220616d6f756e7420657863656564732062616c616e636545524332303a207472616e7366657220616d6f756e74206578636565647320616c6c6f77616e6365436f6e747261637420696e7374616e63652068617320616c7265616479206265656e20696e697469616c697a6564ddf252ad1be2c89b69c2b068fc378daa952ba7f163c4a11628f55a4df523b3ef45524332303a206275726e2066726f6d20746865207a65726f206164647265737345524332303a207472616e736665722066726f6d20746865207a65726f206164647265737345524332303a20617070726f76652066726f6d20746865207a65726f20616464726573735361666545524332303a204552433230206f7065726174696f6e20646964206e6f74207375636365656445524332303a2064656372656173656420616c6c6f77616e63652062656c6f77207a65726fa26469706673582212201ce1161e526199c2bf8fbb7e9d71747afb6049dd766c14f0f4cf1774841598d864736f6c63430007060033",
  "linkReferences": {},
  "deployedLinkReferences": {}
}