{
  "_format": "hh-sol-artifact-1",
  "contractName": "WETHGateway",
  "sourceName": "contracts/misc/WETHGateway.sol",
  "abi": [
    {
      "inputs": [
        {
          "internalType": "address",
          "name": "weth",
          "type": "address"
        }
      ],
      "stateMutability": "nonpayable",
      "type": "constructor"
    },
    {
      "anonymous": false,
      "inputs": [
        {
          "indexed": true,
          "internalType": "address",
          "name": "previousOwner",
          "type": "address"
        },
        {
          "indexed": true,
          "internalType": "address",
          "name": "newOwner",
          "type": "address"
        }
      ],
      "name": "OwnershipTransferred",
      "type": "event"
    },
    {
      "stateMutability": "payable",
      "type": "fallback"
    },
    {
      "inputs": [
        {
          "internalType": "address",
          "name": "lendingPool",
          "type": "address"
        }
      ],
      "name": "authorizeLendingPool",
      "outputs": [],
      "stateMutability": "nonpayable",
      "type": "function"
    },
    {
      "inputs": [
        {
          "internalType": "address",
          "name": "lendingPool",
          "type": "address"
        },
        {
          "internalType": "uint256",
          "name": "amount",
          "type": "uint256"
        },
        {
          "internalType": "uint256",
          "name": "interesRateMode",
          "type": "uint256"
        },
        {
          "internalType": "uint16",
          "name": "referralCode",
          "type": "uint16"
        }
      ],
      "name": "borrowETH",
      "outputs": [],
      "stateMutability": "nonpayable",
      "type": "function"
    },
    {
      "inputs": [
        {
          "internalType": "address",
          "name": "lendingPool",
          "type": "address"
        },
        {
          "internalType": "address",
          "name": "onBehalfOf",
          "type": "address"
        },
        {
          "internalType": "uint16",
          "name": "referralCode",
          "type": "uint16"
        }
      ],
      "name": "depositETH",
      "outputs": [],
      "stateMutability": "payable",
      "type": "function"
    },
    {
      "inputs": [
        {
          "internalType": "address",
          "name": "to",
          "type": "address"
        },
        {
          "internalType": "uint256",
          "name": "amount",
          "type": "uint256"
        }
      ],
      "name": "emergencyEtherTransfer",
      "outputs": [],
      "stateMutability": "nonpayable",
      "type": "function"
    },
    {
      "inputs": [
        {
          "internalType": "address",
          "name": "token",
          "type": "address"
        },
        {
          "internalType": "address",
          "name": "to",
          "type": "address"
        },
        {
          "internalType": "uint256",
          "name": "amount",
          "type": "uint256"
        }
      ],
      "name": "emergencyTokenTransfer",
      "outputs": [],
      "stateMutability": "nonpayable",
      "type": "function"
    },
    {
      "inputs": [],
      "name": "getWETHAddress",
      "outputs": [
        {
          "internalType": "address",
          "name": "",
          "type": "address"
        }
      ],
      "stateMutability": "view",
      "type": "function"
    },
    {
      "inputs": [],
      "name": "owner",
      "outputs": [
        {
          "internalType": "address",
          "name": "",
          "type": "address"
        }
      ],
      "stateMutability": "view",
      "type": "function"
    },
    {
      "inputs": [],
      "name": "renounceOwnership",
      "outputs": [],
      "stateMutability": "nonpayable",
      "type": "function"
    },
    {
      "inputs": [
        {
          "internalType": "address",
          "name": "lendingPool",
          "type": "address"
        },
        {
          "internalType": "uint256",
          "name": "amount",
          "type": "uint256"
        },
        {
          "internalType": "uint256",
          "name": "rateMode",
          "type": "uint256"
        },
        {
          "internalType": "address",
          "name": "onBehalfOf",
          "type": "address"
        }
      ],
      "name": "repayETH",
      "outputs": [],
      "stateMutability": "payable",
      "type": "function"
    },
    {
      "inputs": [
        {
          "internalType": "address",
          "name": "newOwner",
          "type": "address"
        }
      ],
      "name": "transferOwnership",
      "outputs": [],
      "stateMutability": "nonpayable",
      "type": "function"
    },
    {
      "inputs": [
        {
          "internalType": "address",
          "name": "lendingPool",
          "type": "address"
        },
        {
          "internalType": "uint256",
          "name": "amount",
          "type": "uint256"
        },
        {
          "internalType": "address",
          "name": "to",
          "type": "address"
        }
      ],
      "name": "withdrawETH",
      "outputs": [],
      "stateMutability": "nonpayable",
      "type": "function"
    },
    {
      "stateMutability": "payable",
      "type": "receive"
    }
  ],
  "bytecode": "0x60a060405234801561001057600080fd5b506040516116cf3803806116cf83398101604081905261002f9161009c565b6000610039610098565b600080546001600160a01b0319166001600160a01b0383169081178255604051929350917f8be0079c531659141344cd1fd0a4f28419497f9722a3daafe3b4186f6b6457e0908290a35060601b6001600160601b0319166080526100ca565b3390565b6000602082840312156100ad578081fd5b81516001600160a01b03811681146100c3578182fd5b9392505050565b60805160601c6115ad6101226000398060b05280610263528061035052806103e65280610486528061051c52806105c15280610638528061077a528061092e52806109c45280610b265280610d1552506115ad6000f3fe6080604052600436106100a05760003560e01c80638da5cb5b116100645780638da5cb5b1461018b578063a3d5b255146101b6578063affa8817146101d6578063eed88b8d146101eb578063f2fde38b1461020b578063fd1495291461022b576100f8565b806302c5fcf814610110578063474cf53d1461012357806366514c9714610136578063715018a61461015657806380500d201461016b576100f8565b366100f857336001600160a01b037f000000000000000000000000000000000000000000000000000000000000000016146100f65760405162461bcd60e51b81526004016100ed9061144b565b60405180910390fd5b005b60405162461bcd60e51b81526004016100ed906113fc565b6100f661011e36600461110b565b61024b565b6100f6610131366004611019565b610484565b34801561014257600080fd5b506100f6610151366004611154565b610578565b34801561016257600080fd5b506100f66106b1565b34801561017757600080fd5b506100f66101863660046110ca565b610753565b34801561019757600080fd5b506101a0610a3d565b6040516101ad91906112fc565b60405180910390f35b3480156101c257600080fd5b506100f66101d136600461105f565b610a4c565b3480156101e257600080fd5b506101a0610b24565b3480156101f757600080fd5b506100f661020636600461109f565b610b48565b34801561021757600080fd5b506100f6610226366004610ff6565b610bae565b34801561023757600080fd5b506100f6610246366004610ff6565b610ca6565b6000806102f483876001600160a01b03166335ea6a757f00000000000000000000000000000000000000000000000000000000000000006040518263ffffffff1660e01b815260040161029e91906112fc565b6101806040518083038186803b1580156102b757600080fd5b505afa1580156102cb573d6000803e3d6000fd5b505050506040513d601f19601f820116820180604052508101906102ef91906111bb565b610da0565b90925090506000600185600281111561030957fe5b600281111561031457fe5b1461031f5781610321565b825b90508086101561032e5750845b8034101561034e5760405162461bcd60e51b81526004016100ed906114a5565b7f00000000000000000000000000000000000000000000000000000000000000006001600160a01b031663d0e30db0826040518263ffffffff1660e01b81526004016000604051808303818588803b1580156103a957600080fd5b505af11580156103bd573d6000803e3d6000fd5b505060405163573ade8160e01b81526001600160a01b038b16935063573ade81925061041491507f00000000000000000000000000000000000000000000000000000000000000009034908a908a9060040161139d565b602060405180830381600087803b15801561042e57600080fd5b505af1158015610442573d6000803e3d6000fd5b505050506040513d601f19601f8201168201806040525081019061046691906112ab565b508034111561047b5761047b33823403610ea8565b50505050505050565b7f00000000000000000000000000000000000000000000000000000000000000006001600160a01b031663d0e30db0346040518263ffffffff1660e01b81526004016000604051808303818588803b1580156104df57600080fd5b505af11580156104f3573d6000803e3d6000fd5b505060405163e8eda9df60e01b81526001600160a01b038716935063e8eda9df925061054a91507f000000000000000000000000000000000000000000000000000000000000000090349087908790600401611370565b600060405180830381600087803b15801561056457600080fd5b505af115801561047b573d6000803e3d6000fd5b61058133610f3a565b61059d5760405162461bcd60e51b81526004016100ed9061142a565b60405163a415bcad60e01b81526001600160a01b0385169063a415bcad906105f1907f00000000000000000000000000000000000000000000000000000000000000009087908790879033906004016113c8565b600060405180830381600087803b15801561060b57600080fd5b505af115801561061f573d6000803e3d6000fd5b5050604051632e1a7d4d60e01b81526001600160a01b037f0000000000000000000000000000000000000000000000000000000000000000169250632e1a7d4d915061066f9086906004016114ec565b600060405180830381600087803b15801561068957600080fd5b505af115801561069d573d6000803e3d6000fd5b505050506106ab3384610ea8565b50505050565b6106b9610f54565b6000546001600160a01b03908116911614610709576040805162461bcd60e51b81526020600482018190526024820152600080516020611558833981519152604482015290519081900360640190fd5b600080546040516001600160a01b03909116907f8be0079c531659141344cd1fd0a4f28419497f9722a3daafe3b4186f6b6457e0908390a3600080546001600160a01b0319169055565b6040516335ea6a7560e01b81526000906001600160a01b038516906335ea6a75906107a2907f0000000000000000000000000000000000000000000000000000000000000000906004016112fc565b6101806040518083038186803b1580156107bb57600080fd5b505afa1580156107cf573d6000803e3d6000fd5b505050506040513d601f19601f820116820180604052508101906107f391906111bb565b60e0015190506000816001600160a01b03166370a08231336040518263ffffffff1660e01b815260040161082791906112fc565b60206040518083038186803b15801561083f57600080fd5b505afa158015610853573d6000803e3d6000fd5b505050506040513d601f19601f8201168201806040525081019061087791906112ab565b9050836000198114156108875750805b6040516323b872dd60e01b81526001600160a01b038416906323b872dd906108b790339030908690600401611310565b602060405180830381600087803b1580156108d157600080fd5b505af11580156108e5573d6000803e3d6000fd5b505050506040513d601f19601f82011682018060405250810190610909919061119b565b50604051631a4ca37b60e21b81526001600160a01b038716906369328dec9061095a907f0000000000000000000000000000000000000000000000000000000000000000908590309060040161134d565b602060405180830381600087803b15801561097457600080fd5b505af1158015610988573d6000803e3d6000fd5b505050506040513d601f19601f820116820180604052508101906109ac91906112ab565b50604051632e1a7d4d60e01b81526001600160a01b037f00000000000000000000000000000000000000000000000000000000000000001690632e1a7d4d906109f99084906004016114ec565b600060405180830381600087803b158015610a1357600080fd5b505af1158015610a27573d6000803e3d6000fd5b50505050610a358482610ea8565b505050505050565b6000546001600160a01b031690565b610a54610f54565b6000546001600160a01b03908116911614610aa4576040805162461bcd60e51b81526020600482018190526024820152600080516020611558833981519152604482015290519081900360640190fd5b60405163a9059cbb60e01b81526001600160a01b0384169063a9059cbb90610ad29085908590600401611334565b602060405180830381600087803b158015610aec57600080fd5b505af1158015610b00573d6000803e3d6000fd5b505050506040513d601f19601f820116820180604052508101906106ab919061119b565b7f000000000000000000000000000000000000000000000000000000000000000090565b610b50610f54565b6000546001600160a01b03908116911614610ba0576040805162461bcd60e51b81526020600482018190526024820152600080516020611558833981519152604482015290519081900360640190fd5b610baa8282610ea8565b5050565b610bb6610f54565b6000546001600160a01b03908116911614610c06576040805162461bcd60e51b81526020600482018190526024820152600080516020611558833981519152604482015290519081900360640190fd5b6001600160a01b038116610c4b5760405162461bcd60e51b81526004018080602001828103825260268152602001806115326026913960400191505060405180910390fd5b600080546040516001600160a01b03808516939216917f8be0079c531659141344cd1fd0a4f28419497f9722a3daafe3b4186f6b6457e091a3600080546001600160a01b0319166001600160a01b0392909216919091179055565b610cae610f54565b6000546001600160a01b03908116911614610cfe576040805162461bcd60e51b81526020600482018190526024820152600080516020611558833981519152604482015290519081900360640190fd5b60405163095ea7b360e01b81526001600160a01b037f0000000000000000000000000000000000000000000000000000000000000000169063095ea7b390610d4e90849060001990600401611334565b602060405180830381600087803b158015610d6857600080fd5b505af1158015610d7c573d6000803e3d6000fd5b505050506040513d601f19601f82011682018060405250810190610baa919061119b565b6000808261010001516001600160a01b03166370a08231856040518263ffffffff1660e01b815260040180826001600160a01b0316815260200191505060206040518083038186803b158015610df557600080fd5b505afa158015610e09573d6000803e3d6000fd5b505050506040513d6020811015610e1f57600080fd5b5051610120840151604080516370a0823160e01b81526001600160a01b038881166004830152915191909216916370a08231916024808301926020929190829003018186803b158015610e7157600080fd5b505afa158015610e85573d6000803e3d6000fd5b505050506040513d6020811015610e9b57600080fd5b5051909590945092505050565b604080516000808252602082019092526001600160a01b038416908390604051610ed291906112c3565b60006040518083038185875af1925050503d8060008114610f0f576040519150601f19603f3d011682016040523d82523d6000602084013e610f14565b606091505b5050905080610f355760405162461bcd60e51b81526004016100ed90611478565b505050565b6000813b80158015610f4b57503233145b9150505b919050565b3390565b8051610f4f81611519565b600060208284031215610f74578081fd5b6040516020810181811067ffffffffffffffff82111715610f9157fe5b6040529151825250919050565b80516fffffffffffffffffffffffffffffffff81168114610f4f57600080fd5b803561ffff81168114610f4f57600080fd5b805164ffffffffff81168114610f4f57600080fd5b805160ff81168114610f4f57600080fd5b600060208284031215611007578081fd5b813561101281611519565b9392505050565b60008060006060848603121561102d578182fd5b833561103881611519565b9250602084013561104881611519565b915061105660408501610fbe565b90509250925092565b600080600060608486031215611073578283fd5b833561107e81611519565b9250602084013561108e81611519565b929592945050506040919091013590565b600080604083850312156110b1578182fd5b82356110bc81611519565b946020939093013593505050565b6000806000606084860312156110de578283fd5b83356110e981611519565b925060208401359150604084013561110081611519565b809150509250925092565b60008060008060808587031215611120578081fd5b843561112b81611519565b93506020850135925060408501359150606085013561114981611519565b939692955090935050565b60008060008060808587031215611169578384fd5b843561117481611519565b9350602085013592506040850135915061119060608601610fbe565b905092959194509250565b6000602082840312156111ac578081fd5b81518015158114611012578182fd5b60006101808083850312156111ce578182fd5b6111d7816114f5565b90506111e38484610f63565b81526111f160208401610f9e565b602082015261120260408401610f9e565b604082015261121360608401610f9e565b606082015261122460808401610f9e565b608082015261123560a08401610f9e565b60a082015261124660c08401610fd0565b60c082015261125760e08401610f58565b60e082015261010061126a818501610f58565b9082015261012061127c848201610f58565b9082015261014061128e848201610f58565b908201526101606112a0848201610fe5565b908201529392505050565b6000602082840312156112bc578081fd5b5051919050565b60008251815b818110156112e357602081860181015185830152016112c9565b818111156112f15782828501525b509190910192915050565b6001600160a01b0391909116815260200190565b6001600160a01b039384168152919092166020820152604081019190915260600190565b6001600160a01b03929092168252602082015260400190565b6001600160a01b0393841681526020810192909252909116604082015260600190565b6001600160a01b03948516815260208101939093529216604082015261ffff909116606082015260800190565b6001600160a01b03948516815260208101939093526040830191909152909116606082015260800190565b6001600160a01b0395861681526020810194909452604084019290925261ffff166060830152909116608082015260a00190565b60208082526014908201527311985b1b189858dac81b9bdd08185b1b1bddd95960621b604082015260600190565b6020808252600790820152664e6f7420454f4160c81b604082015260600190565b602080825260139082015272149958d95a5d99481b9bdd08185b1b1bddd959606a1b604082015260600190565b60208082526013908201527211551217d514905394d1915497d19052531151606a1b604082015260600190565b60208082526027908201527f6d73672e76616c7565206973206c657373207468616e2072657061796d656e7460408201526608185b5bdd5b9d60ca1b606082015260800190565b90815260200190565b60405181810167ffffffffffffffff8111828210171561151157fe5b604052919050565b6001600160a01b038116811461152e57600080fd5b5056fe4f776e61626c653a206e6577206f776e657220697320746865207a65726f20616464726573734f776e61626c653a2063616c6c6572206973206e6f7420746865206f776e6572a2646970667358221220c76e81dd05fe79b1c2e74cfb5c7eff889b2560adec7118bc1e902cd8ccd1b29964736f6c63430007060033",
  "linkReferences": {},
  "deployedLinkReferences": {}
}