{
  "_format": "hh-sol-artifact-1",
  "contractName": "LendingPool",
  "sourceName": "contracts/protocol/lendingpool/LendingPool.sol",
  "abi": [
    {
      "anonymous": false,
      "inputs": [
        {
          "indexed": true,
          "internalType": "address",
          "name": "reserve",
          "type": "address"
        },
        {
          "indexed": false,
          "internalType": "address",
          "name": "user",
          "type": "address"
        },
        {
          "indexed": true,
          "internalType": "address",
          "name": "onBehalfOf",
          "type": "address"
        },
        {
          "indexed": false,
          "internalType": "uint256",
          "name": "amount",
          "type": "uint256"
        },
        {
          "indexed": false,
          "internalType": "uint256",
          "name": "borrowRateMode",
          "type": "uint256"
        },
        {
          "indexed": false,
          "internalType": "uint256",
          "name": "borrowRate",
          "type": "uint256"
        },
        {
          "indexed": true,
          "internalType": "uint16",
          "name": "referral",
          "type": "uint16"
        }
      ],
      "name": "Borrow",
      "type": "event"
    },
    {
      "anonymous": false,
      "inputs": [
        {
          "indexed": true,
          "internalType": "address",
          "name": "reserve",
          "type": "address"
        },
        {
          "indexed": false,
          "internalType": "address",
          "name": "user",
          "type": "address"
        },
        {
          "indexed": true,
          "internalType": "address",
          "name": "onBehalfOf",
          "type": "address"
        },
        {
          "indexed": false,
          "internalType": "uint256",
          "name": "amount",
          "type": "uint256"
        },
        {
          "indexed": true,
          "internalType": "uint16",
          "name": "referral",
          "type": "uint16"
        }
      ],
      "name": "Deposit",
      "type": "event"
    },
    {
      "anonymous": false,
      "inputs": [
        {
          "indexed": true,
          "internalType": "address",
          "name": "target",
          "type": "address"
        },
        {
          "indexed": true,
          "internalType": "address",
          "name": "initiator",
          "type": "address"
        },
        {
          "indexed": true,
          "internalType": "address",
          "name": "asset",
          "type": "address"
        },
        {
          "indexed": false,
          "internalType": "uint256",
          "name": "amount",
          "type": "uint256"
        },
        {
          "indexed": false,
          "internalType": "uint256",
          "name": "premium",
          "type": "uint256"
        },
        {
          "indexed": false,
          "internalType": "uint16",
          "name": "referralCode",
          "type": "uint16"
        }
      ],
      "name": "FlashLoan",
      "type": "event"
    },
    {
      "anonymous": false,
      "inputs": [
        {
          "indexed": true,
          "internalType": "address",
          "name": "collateralAsset",
          "type": "address"
        },
        {
          "indexed": true,
          "internalType": "address",
          "name": "debtAsset",
          "type": "address"
        },
        {
          "indexed": true,
          "internalType": "address",
          "name": "user",
          "type": "address"
        },
        {
          "indexed": false,
          "internalType": "uint256",
          "name": "debtToCover",
          "type": "uint256"
        },
        {
          "indexed": false,
          "internalType": "uint256",
          "name": "liquidatedCollateralAmount",
          "type": "uint256"
        },
        {
          "indexed": false,
          "internalType": "address",
          "name": "liquidator",
          "type": "address"
        },
        {
          "indexed": false,
          "internalType": "bool",
          "name": "receiveAToken",
          "type": "bool"
        }
      ],
      "name": "LiquidationCall",
      "type": "event"
    },
    {
      "anonymous": false,
      "inputs": [],
      "name": "Paused",
      "type": "event"
    },
    {
      "anonymous": false,
      "inputs": [
        {
          "indexed": true,
          "internalType": "address",
          "name": "reserve",
          "type": "address"
        },
        {
          "indexed": true,
          "internalType": "address",
          "name": "user",
          "type": "address"
        }
      ],
      "name": "RebalanceStableBorrowRate",
      "type": "event"
    },
    {
      "anonymous": false,
      "inputs": [
        {
          "indexed": true,
          "internalType": "address",
          "name": "reserve",
          "type": "address"
        },
        {
          "indexed": true,
          "internalType": "address",
          "name": "user",
          "type": "address"
        },
        {
          "indexed": true,
          "internalType": "address",
          "name": "repayer",
          "type": "address"
        },
        {
          "indexed": false,
          "internalType": "uint256",
          "name": "amount",
          "type": "uint256"
        }
      ],
      "name": "Repay",
      "type": "event"
    },
    {
      "anonymous": false,
      "inputs": [
        {
          "indexed": true,
          "internalType": "address",
          "name": "reserve",
          "type": "address"
        },
        {
          "indexed": false,
          "internalType": "uint256",
          "name": "liquidityRate",
          "type": "uint256"
        },
        {
          "indexed": false,
          "internalType": "uint256",
          "name": "stableBorrowRate",
          "type": "uint256"
        },
        {
          "indexed": false,
          "internalType": "uint256",
          "name": "variableBorrowRate",
          "type": "uint256"
        },
        {
          "indexed": false,
          "internalType": "uint256",
          "name": "liquidityIndex",
          "type": "uint256"
        },
        {
          "indexed": false,
          "internalType": "uint256",
          "name": "variableBorrowIndex",
          "type": "uint256"
        }
      ],
      "name": "ReserveDataUpdated",
      "type": "event"
    },
    {
      "anonymous": false,
      "inputs": [
        {
          "indexed": true,
          "internalType": "address",
          "name": "reserve",
          "type": "address"
        },
        {
          "indexed": true,
          "internalType": "address",
          "name": "user",
          "type": "address"
        }
      ],
      "name": "ReserveUsedAsCollateralDisabled",
      "type": "event"
    },
    {
      "anonymous": false,
      "inputs": [
        {
          "indexed": true,
          "internalType": "address",
          "name": "reserve",
          "type": "address"
        },
        {
          "indexed": true,
          "internalType": "address",
          "name": "user",
          "type": "address"
        }
      ],
      "name": "ReserveUsedAsCollateralEnabled",
      "type": "event"
    },
    {
      "anonymous": false,
      "inputs": [
        {
          "indexed": true,
          "internalType": "address",
          "name": "reserve",
          "type": "address"
        },
        {
          "indexed": true,
          "internalType": "address",
          "name": "user",
          "type": "address"
        },
        {
          "indexed": false,
          "internalType": "uint256",
          "name": "rateMode",
          "type": "uint256"
        }
      ],
      "name": "Swap",
      "type": "event"
    },
    {
      "anonymous": false,
      "inputs": [],
      "name": "Unpaused",
      "type": "event"
    },
    {
      "anonymous": false,
      "inputs": [
        {
          "indexed": true,
          "internalType": "address",
          "name": "_address",
          "type": "address"
        },
        {
          "indexed": false,
          "internalType": "bool",
          "name": "value",
          "type": "bool"
        }
      ],
      "name": "WhitelistUpdated",
      "type": "event"
    },
    {
      "anonymous": false,
      "inputs": [
        {
          "indexed": true,
          "internalType": "address",
          "name": "reserve",
          "type": "address"
        },
        {
          "indexed": true,
          "internalType": "address",
          "name": "user",
          "type": "address"
        },
        {
          "indexed": true,
          "internalType": "address",
          "name": "to",
          "type": "address"
        },
        {
          "indexed": false,
          "internalType": "uint256",
          "name": "amount",
          "type": "uint256"
        }
      ],
      "name": "Withdraw",
      "type": "event"
    },
    {
      "inputs": [],
      "name": "FLASHLOAN_PREMIUM_TOTAL",
      "outputs": [
        {
          "internalType": "uint256",
          "name": "",
          "type": "uint256"
        }
      ],
      "stateMutability": "view",
      "type": "function"
    },
    {
      "inputs": [],
      "name": "LENDINGPOOL_REVISION",
      "outputs": [
        {
          "internalType": "uint256",
          "name": "",
          "type": "uint256"
        }
      ],
      "stateMutability": "view",
      "type": "function"
    },
    {
      "inputs": [],
      "name": "MAX_NUMBER_RESERVES",
      "outputs": [
        {
          "internalType": "uint256",
          "name": "",
          "type": "uint256"
        }
      ],
      "stateMutability": "view",
      "type": "function"
    },
    {
      "inputs": [],
      "name": "MAX_STABLE_RATE_BORROW_SIZE_PERCENT",
      "outputs": [
        {
          "internalType": "uint256",
          "name": "",
          "type": "uint256"
        }
      ],
      "stateMutability": "view",
      "type": "function"
    },
    {
      "inputs": [
        {
          "internalType": "address",
          "name": "asset",
          "type": "address"
        },
        {
          "internalType": "uint256",
          "name": "amount",
          "type": "uint256"
        },
        {
          "internalType": "uint256",
          "name": "interestRateMode",
          "type": "uint256"
        },
        {
          "internalType": "uint16",
          "name": "referralCode",
          "type": "uint16"
        },
        {
          "internalType": "address",
          "name": "onBehalfOf",
          "type": "address"
        }
      ],
      "name": "borrow",
      "outputs": [],
      "stateMutability": "nonpayable",
      "type": "function"
    },
    {
      "inputs": [
        {
          "internalType": "address",
          "name": "asset",
          "type": "address"
        },
        {
          "internalType": "uint256",
          "name": "amount",
          "type": "uint256"
        },
        {
          "internalType": "address",
          "name": "onBehalfOf",
          "type": "address"
        },
        {
          "internalType": "uint16",
          "name": "referralCode",
          "type": "uint16"
        }
      ],
      "name": "deposit",
      "outputs": [],
      "stateMutability": "nonpayable",
      "type": "function"
    },
    {
      "inputs": [
        {
          "internalType": "address",
          "name": "asset",
          "type": "address"
        },
        {
          "internalType": "address",
          "name": "from",
          "type": "address"
        },
        {
          "internalType": "address",
          "name": "to",
          "type": "address"
        },
        {
          "internalType": "uint256",
          "name": "amount",
          "type": "uint256"
        },
        {
          "internalType": "uint256",
          "name": "balanceFromBefore",
          "type": "uint256"
        },
        {
          "internalType": "uint256",
          "name": "balanceToBefore",
          "type": "uint256"
        }
      ],
      "name": "finalizeTransfer",
      "outputs": [],
      "stateMutability": "nonpayable",
      "type": "function"
    },
    {
      "inputs": [],
      "name": "getAddressesProvider",
      "outputs": [
        {
          "internalType": "contract ILendingPoolAddressesProvider",
          "name": "",
          "type": "address"
        }
      ],
      "stateMutability": "view",
      "type": "function"
    },
    {
      "inputs": [
        {
          "internalType": "address",
          "name": "asset",
          "type": "address"
        }
      ],
      "name": "getConfiguration",
      "outputs": [
        {
          "components": [
            {
              "internalType": "uint256",
              "name": "data",
              "type": "uint256"
            }
          ],
          "internalType": "struct DataTypes.ReserveConfigurationMap",
          "name": "",
          "type": "tuple"
        }
      ],
      "stateMutability": "view",
      "type": "function"
    },
    {
      "inputs": [
        {
          "internalType": "address",
          "name": "asset",
          "type": "address"
        }
      ],
      "name": "getReserveData",
      "outputs": [
        {
          "components": [
            {
              "components": [
                {
                  "internalType": "uint256",
                  "name": "data",
                  "type": "uint256"
                }
              ],
              "internalType": "struct DataTypes.ReserveConfigurationMap",
              "name": "configuration",
              "type": "tuple"
            },
            {
              "internalType": "uint128",
              "name": "liquidityIndex",
              "type": "uint128"
            },
            {
              "internalType": "uint128",
              "name": "variableBorrowIndex",
              "type": "uint128"
            },
            {
              "internalType": "uint128",
              "name": "currentLiquidityRate",
              "type": "uint128"
            },
            {
              "internalType": "uint128",
              "name": "currentVariableBorrowRate",
              "type": "uint128"
            },
            {
              "internalType": "uint128",
              "name": "currentStableBorrowRate",
              "type": "uint128"
            },
            {
              "internalType": "uint40",
              "name": "lastUpdateTimestamp",
              "type": "uint40"
            },
            {
              "internalType": "address",
              "name": "aTokenAddress",
              "type": "address"
            },
            {
              "internalType": "address",
              "name": "stableDebtTokenAddress",
              "type": "address"
            },
            {
              "internalType": "address",
              "name": "variableDebtTokenAddress",
              "type": "address"
            },
            {
              "internalType": "address",
              "name": "interestRateStrategyAddress",
              "type": "address"
            },
            {
              "internalType": "uint8",
              "name": "id",
              "type": "uint8"
            }
          ],
          "internalType": "struct DataTypes.ReserveData",
          "name": "",
          "type": "tuple"
        }
      ],
      "stateMutability": "view",
      "type": "function"
    },
    {
      "inputs": [
        {
          "internalType": "address",
          "name": "asset",
          "type": "address"
        }
      ],
      "name": "getReserveNormalizedIncome",
      "outputs": [
        {
          "internalType": "uint256",
          "name": "",
          "type": "uint256"
        }
      ],
      "stateMutability": "view",
      "type": "function"
    },
    {
      "inputs": [
        {
          "internalType": "address",
          "name": "asset",
          "type": "address"
        }
      ],
      "name": "getReserveNormalizedVariableDebt",
      "outputs": [
        {
          "internalType": "uint256",
          "name": "",
          "type": "uint256"
        }
      ],
      "stateMutability": "view",
      "type": "function"
    },
    {
      "inputs": [],
      "name": "getReservesList",
      "outputs": [
        {
          "internalType": "address[]",
          "name": "",
          "type": "address[]"
        }
      ],
      "stateMutability": "view",
      "type": "function"
    },
    {
      "inputs": [
        {
          "internalType": "address",
          "name": "user",
          "type": "address"
        }
      ],
      "name": "getUserAccountData",
      "outputs": [
        {
          "internalType": "uint256",
          "name": "totalCollateralETH",
          "type": "uint256"
        },
        {
          "internalType": "uint256",
          "name": "totalDebtETH",
          "type": "uint256"
        },
        {
          "internalType": "uint256",
          "name": "availableBorrowsETH",
          "type": "uint256"
        },
        {
          "internalType": "uint256",
          "name": "currentLiquidationThreshold",
          "type": "uint256"
        },
        {
          "internalType": "uint256",
          "name": "ltv",
          "type": "uint256"
        },
        {
          "internalType": "uint256",
          "name": "healthFactor",
          "type": "uint256"
        }
      ],
      "stateMutability": "view",
      "type": "function"
    },
    {
      "inputs": [
        {
          "internalType": "address",
          "name": "user",
          "type": "address"
        }
      ],
      "name": "getUserConfiguration",
      "outputs": [
        {
          "components": [
            {
              "internalType": "uint256",
              "name": "data",
              "type": "uint256"
            }
          ],
          "internalType": "struct DataTypes.UserConfigurationMap",
          "name": "",
          "type": "tuple"
        }
      ],
      "stateMutability": "view",
      "type": "function"
    },
    {
      "inputs": [
        {
          "internalType": "address",
          "name": "asset",
          "type": "address"
        },
        {
          "internalType": "address",
          "name": "aTokenAddress",
          "type": "address"
        },
        {
          "internalType": "address",
          "name": "stableDebtAddress",
          "type": "address"
        },
        {
          "internalType": "address",
          "name": "variableDebtAddress",
          "type": "address"
        },
        {
          "internalType": "address",
          "name": "interestRateStrategyAddress",
          "type": "address"
        }
      ],
      "name": "initReserve",
      "outputs": [],
      "stateMutability": "nonpayable",
      "type": "function"
    },
    {
      "inputs": [
        {
          "internalType": "contract ILendingPoolAddressesProvider",
          "name": "provider",
          "type": "address"
        }
      ],
      "name": "initialize",
      "outputs": [],
      "stateMutability": "nonpayable",
      "type": "function"
    },
    {
      "inputs": [
        {
          "internalType": "address",
          "name": "",
          "type": "address"
        }
      ],
      "name": "isWhitelisted",
      "outputs": [
        {
          "internalType": "bool",
          "name": "",
          "type": "bool"
        }
      ],
      "stateMutability": "view",
      "type": "function"
    },
    {
      "inputs": [
        {
          "internalType": "address",
          "name": "collateralAsset",
          "type": "address"
        },
        {
          "internalType": "address",
          "name": "debtAsset",
          "type": "address"
        },
        {
          "internalType": "address",
          "name": "user",
          "type": "address"
        },
        {
          "internalType": "uint256",
          "name": "debtToCover",
          "type": "uint256"
        },
        {
          "internalType": "bool",
          "name": "receiveAToken",
          "type": "bool"
        }
      ],
      "name": "liquidationCall",
      "outputs": [],
      "stateMutability": "nonpayable",
      "type": "function"
    },
    {
      "inputs": [],
      "name": "paused",
      "outputs": [
        {
          "internalType": "bool",
          "name": "",
          "type": "bool"
        }
      ],
      "stateMutability": "view",
      "type": "function"
    },
    {
      "inputs": [
        {
          "internalType": "address",
          "name": "asset",
          "type": "address"
        },
        {
          "internalType": "uint256",
          "name": "amount",
          "type": "uint256"
        },
        {
          "internalType": "uint256",
          "name": "rateMode",
          "type": "uint256"
        },
        {
          "internalType": "address",
          "name": "onBehalfOf",
          "type": "address"
        }
      ],
      "name": "repay",
      "outputs": [
        {
          "internalType": "uint256",
          "name": "",
          "type": "uint256"
        }
      ],
      "stateMutability": "nonpayable",
      "type": "function"
    },
    {
      "inputs": [
        {
          "internalType": "address",
          "name": "asset",
          "type": "address"
        },
        {
          "internalType": "uint256",
          "name": "configuration",
          "type": "uint256"
        }
      ],
      "name": "setConfiguration",
      "outputs": [],
      "stateMutability": "nonpayable",
      "type": "function"
    },
    {
      "inputs": [
        {
          "internalType": "bool",
          "name": "val",
          "type": "bool"
        }
      ],
      "name": "setPause",
      "outputs": [],
      "stateMutability": "nonpayable",
      "type": "function"
    },
    {
      "inputs": [
        {
          "internalType": "address",
          "name": "asset",
          "type": "address"
        },
        {
          "internalType": "address",
          "name": "rateStrategyAddress",
          "type": "address"
        }
      ],
      "name": "setReserveInterestRateStrategyAddress",
      "outputs": [],
      "stateMutability": "nonpayable",
      "type": "function"
    },
    {
      "inputs": [
        {
          "internalType": "address",
          "name": "asset",
          "type": "address"
        },
        {
          "internalType": "bool",
          "name": "useAsCollateral",
          "type": "bool"
        }
      ],
      "name": "setUserUseReserveAsCollateral",
      "outputs": [],
      "stateMutability": "nonpayable",
      "type": "function"
    },
    {
      "inputs": [
        {
          "internalType": "address",
          "name": "_address",
          "type": "address"
        },
        {
          "internalType": "bool",
          "name": "value",
          "type": "bool"
        }
      ],
      "name": "whitelist",
      "outputs": [],
      "stateMutability": "nonpayable",
      "type": "function"
    },
    {
      "inputs": [
        {
          "internalType": "address",
          "name": "asset",
          "type": "address"
        },
        {
          "internalType": "uint256",
          "name": "amount",
          "type": "uint256"
        },
        {
          "internalType": "address",
          "name": "to",
          "type": "address"
        }
      ],
      "name": "withdraw",
      "outputs": [
        {
          "internalType": "uint256",
          "name": "",
          "type": "uint256"
        }
      ],
      "stateMutability": "nonpayable",
      "type": "function"
    }
  ],
  "bytecode": "0x60806040526000805534801561001457600080fd5b50614890806100246000396000f3fe608060405234801561001057600080fd5b50600436106101a85760003560e01c8063a415bcad116100f9578063d1946dbc11610097578063e8eda9df11610071578063e8eda9df14610389578063f59c37081461039c578063f8119d51146103af578063fe65acfe146103b7576101a8565b8063d1946dbc14610359578063d5ed39331461036e578063e82fec2f14610381576101a8565b8063bf92857c116100d3578063bf92857c146102fb578063c44b11f714610320578063c4d66de814610333578063d15e005314610346576101a8565b8063a415bcad146102c2578063b8d29276146102d5578063bedb86fb146102e8576101a8565b80634417a583116101665780635c975abb116101405780635c975abb1461028c57806369328dec146102945780637a708e92146102a75780638afaff02146102ba576101a8565b80634417a58314610246578063573ade81146102665780635a3b74b914610279576101a8565b8062a718a9146101ad578063074b2e43146101c25780631d2118f9146101e057806335ea6a75146101f3578063386497fd146102135780633af32abf14610226575b600080fd5b6101c06101bb366004613ff4565b6103cc565b005b6101ca6105a0565b6040516101d79190614761565b60405180910390f35b6101c06101ee366004613f4c565b6105a6565b610206610201366004613f14565b6105df565b6040516101d791906145ab565b6101ca610221366004613f14565b6106c1565b610239610234366004613f14565b6106e8565b6040516101d79190614563565b610259610254366004613f14565b6106fd565b6040516101d791906145a1565b6101ca61027436600461419a565b610730565b6101c06102873660046140b1565b610a5c565b610239610c21565b6101ca6102a2366004614109565b610c2a565b6101c06102b5366004613f84565b610f54565b6101ca611036565b6101c06102d03660046141e3565b61103b565b6101c06102e33660046140de565b611122565b6101c06102f6366004614221565b611146565b61030e610309366004613f14565b6111c1565b6040516101d79695949392919061476a565b61025961032e366004613f14565b6112bd565b6101c0610341366004613f14565b6112f0565b6101ca610354366004613f14565b6113b7565b6103616113d8565b6040516101d79190614516565b6101c061037c36600461404d565b61147e565b6101ca6116c7565b6101c061039736600461414a565b6116cd565b6101c06103aa3660046140b1565b6118fa565b6101ca611a2e565b6103bf611a34565b6040516101d79190614361565b6103d4611a43565b6034546040805163712d917160e01b815290516000926001600160a01b03169163712d9171916004808301926020929190829003018186803b15801561041957600080fd5b505afa15801561042d573d6000803e3d6000fd5b505050506040513d601f19601f820116820180604052508101906104519190613f30565b9050600080826001600160a01b031688888888886040516024016104799594939291906143bf565b60408051601f198184030181529181526020820180516001600160e01b031662a718a960e01b179052516104ad9190614345565b600060405180830381855af49150503d80600081146104e8576040519150601f19603f3d011682016040523d82523d6000602084013e6104ed565b606091505b50915091508160405180604001604052806002815260200161323360f01b815250906105355760405162461bcd60e51b815260040161052c919061456e565b60405180910390fd5b506000808280602001905181019061054d9190614271565b9150915081600014816040516020016105669190614345565b604051602081830303815290604052906105935760405162461bcd60e51b815260040161052c919061456e565b5050505050505050505050565b603b5490565b6105ae611a81565b6001600160a01b03918216600090815260356020526040902060070180546001600160a01b03191691909216179055565b6105e7613d3b565b506001600160a01b0381811660009081526035602090815260409182902082516101a08101845281546101808201908152815260018201546001600160801b0380821694830194909452600160801b908190048416948201949094526002820154808416606083015284900483166080820152600382015492831660a08201529290910464ffffffffff1660c08301526004810154831660e0830152600581015483166101008301526006810154831661012083015260070154918216610140820152600160a01b90910460ff166101608201525b919050565b6001600160a01b03811660009081526035602052604081206106e290611b40565b92915050565b603d6020526000908152604090205460ff1681565b610705613da6565b506001600160a01b031660009081526036602090815260409182902082519182019092529054815290565b600061073a611a43565b6001600160a01b0385166000908152603560205260408120908061075e8584611bbd565b91509150600086600281111561077057fe5b60405163fa0c214960e01b815290915073__$de8c0cf1a7d7c36c802af9a64fb9d86036$__9063fa0c2149906107b49087908c9086908c908a908a9060040161471c565b60006040518083038186803b1580156107cc57600080fd5b505af41580156107e0573d6000803e3d6000fd5b5060009250600191506107f09050565b8260028111156107fc57fe5b146108075782610809565b835b9050808910156108165750875b61081f85611cc0565b600182600281111561082d57fe5b141561089e576005850154604051632770a7eb60e21b81526001600160a01b0390911690639dc29fac90610867908a9085906004016143a6565b600060405180830381600087803b15801561088157600080fd5b505af1158015610895573d6000803e3d6000fd5b5050505061091c565b60068501546001860154604051637a94c56560e11b81526001600160a01b039092169163f5298aca916108e9918b918691600160801b9091046001600160801b031690600401614480565b600060405180830381600087803b15801561090357600080fd5b505af1158015610917573d6000803e3d6000fd5b505050505b60048501546001600160a01b0316610938868c83856000611d81565b61094c8261094687876121f1565b9061224b565b6109845760078601546001600160a01b0389166000908152603660205260408120610984929091600160a01b90910460ff169061228d565b6109996001600160a01b038c1633838561232b565b6040516388dd91a160e01b81526001600160a01b038216906388dd91a1906109c790339086906004016143a6565b600060405180830381600087803b1580156109e157600080fd5b505af11580156109f5573d6000803e3d6000fd5b50505050336001600160a01b0316886001600160a01b03168c6001600160a01b03167f4cdde6e09bb755c9a5589ebaec640bbfedff1362d4b255ebf8339782b9942faa85604051610a469190614761565b60405180910390a4509998505050505050505050565b610a64611a43565b6001600160a01b03808316600090815260356020818152604080842033855260368352938190206038546034548351631f94a27560e31b81529351969773__$de8c0cf1a7d7c36c802af9a64fb9d86036$__97635fa297e5978a978d978d9792969295603795939493169263fca513a892600480840193919291829003018186803b158015610af257600080fd5b505afa158015610b06573d6000803e3d6000fd5b505050506040513d601f19601f82011682018060405250810190610b2a9190613f30565b6040518963ffffffff1660e01b8152600401610b4d9897969594939291906146cc565b60006040518083038186803b158015610b6557600080fd5b505af4158015610b79573d6000803e3d6000fd5b505050506007810154336000908152603660205260409020610ba591600160a01b900460ff168461238b565b8115610be55760405133906001600160a01b038516907e058a56ea94653cdf4f152d227ace22d4c00ad99e2a43f58cb7d9e3feb295f290600090a3610c1c565b60405133906001600160a01b038516907f44c58d81365b66dd4b1a7f36c25aa97b8c71c361ee4937adc1a00000227db5dd90600090a35b505050565b60395460ff1690565b6000610c34611a43565b6001600160a01b0380851660009081526035602052604080822060048082015492516370a0823160e01b8152919492909216929183916370a0823191610c7c91339101614361565b60206040518083038186803b158015610c9457600080fd5b505afa158015610ca8573d6000803e3d6000fd5b505050506040513d601f19601f82011682018060405250810190610ccc9190614259565b905085600019811415610cdc5750805b73__$de8c0cf1a7d7c36c802af9a64fb9d86036$__63d09db04a898385603560366000336001600160a01b03166001600160a01b031681526020019081526020016000206037603854603460009054906101000a90046001600160a01b03166001600160a01b031663fca513a86040518163ffffffff1660e01b815260040160206040518083038186803b158015610d7357600080fd5b505afa158015610d87573d6000803e3d6000fd5b505050506040513d601f19601f82011682018060405250810190610dab9190613f30565b6040518963ffffffff1660e01b8152600401610dce9897969594939291906144aa565b60006040518083038186803b158015610de657600080fd5b505af4158015610dfa573d6000803e3d6000fd5b50505050610e0784611cc0565b610e15848985600085611d81565b81811415610e7f576007840154336000908152603660205260408120610e48929091600160a01b90910460ff169061238b565b60405133906001600160a01b038a16907f44c58d81365b66dd4b1a7f36c25aa97b8c71c361ee4937adc1a00000227db5dd90600090a35b6001840154604051636b81068560e11b81526001600160a01b0385169163d7020d0a91610ec09133918b9187916001600160801b0390911690600401614375565b600060405180830381600087803b158015610eda57600080fd5b505af1158015610eee573d6000803e3d6000fd5b50505050856001600160a01b0316336001600160a01b0316896001600160a01b03167f3115d1449a7b732c986cba18244e897a450f61e1bb8d589cd2e69e6c8924f9f784604051610f3f9190614761565b60405180910390a493505050505b9392505050565b610f5c611a81565b610f658561242f565b6040518060400160405280600281526020016106e760f31b81525090610f9e5760405162461bcd60e51b815260040161052c919061456e565b506001600160a01b038516600090815260356020526040908190209051630acce25f60e21b815273__$22cd43a9dda9ce44e9b92ba393b88fb9ac$__91632b33897c91610ff69190889088908890889060040161469e565b60006040518083038186803b15801561100e57600080fd5b505af4158015611022573d6000803e3d6000fd5b5050505061102f85612468565b5050505050565b600281565b611043611a43565b336000908152603d602052604090205460ff1680611070575061106533612571565b801561107057503233145b60405180604001604052806002815260200161383160f01b815250906110a95760405162461bcd60e51b815260040161052c919061456e565b506001600160a01b038086166000818152603560209081526040918290208251610100810184529384523391840191909152848416918301919091526060820187905260808201869052600481015490921660a082015261ffff841660c0820152600160e082015261111a90612576565b505050505050565b61112a611a81565b6001600160a01b03909116600090815260356020526040902055565b61114e611a81565b6039805460ff1916821515179081905560ff1615611194576040517f9e87fac88ff661f02d44f95383c817fece4bce600a3dab7a54406878b965e75290600090a16111be565b6040517fa45f47fdea8a1efdd9029a5691c7f759c32b7c698632b563573e155625d1693390600090a15b50565b60008060008060008061129a876035603660008b6001600160a01b03166001600160a01b031681526020019081526020016000206040518060200160405290816000820154815250506037603854603460009054906101000a90046001600160a01b03166001600160a01b031663fca513a86040518163ffffffff1660e01b815260040160206040518083038186803b15801561125d57600080fd5b505afa158015611271573d6000803e3d6000fd5b505050506040513d601f19601f820116820180604052508101906112959190613f30565b612a77565b939950919750909450925090506112b2868684612f38565b935091939550919395565b6112c5613da6565b506001600160a01b031660009081526035602090815260409182902082519182019092529054815290565b60006112fa612f6c565b60015490915060ff16806113115750611311612f71565b8061131d575060005481115b6113585760405162461bcd60e51b815260040180806020018281038252602e815260200180614803602e913960400191505060405180910390fd5b60015460ff16158015611377576001805460ff19168117905560008290555b603480546001600160a01b0319166001600160a01b0385161790556109c4603a556009603b556080603c558015610c1c576001805460ff19169055505050565b6001600160a01b03811660009081526035602052604081206106e290612f77565b6060600060385467ffffffffffffffff811180156113f557600080fd5b5060405190808252806020026020018201604052801561141f578160200160208202803683370190505b50905060005b6038548110156114785760008181526037602052604090205482516001600160a01b039091169083908390811061145857fe5b6001600160a01b0390921660209283029190910190910152600101611425565b50905090565b611486611a43565b6001600160a01b038681166000908152603560209081526040918290206004015482518084019093526002835261363360f01b9183019190915290911633146114e25760405162461bcd60e51b815260040161052c919061456e565b5061159e85603560366000896001600160a01b03166001600160a01b031681526020019081526020016000206037603854603460009054906101000a90046001600160a01b03166001600160a01b031663fca513a86040518163ffffffff1660e01b815260040160206040518083038186803b15801561156157600080fd5b505afa158015611575573d6000803e3d6000fd5b505050506040513d601f19601f820116820180604052508101906115999190613f30565b612fd6565b6001600160a01b03868116600090815260356020526040902060070154600160a01b900460ff1690858116908716146116be576115db838561224b565b611647576001600160a01b038616600090815260366020526040812090611605908290849061238b565b866001600160a01b0316886001600160a01b03167f44c58d81365b66dd4b1a7f36c25aa97b8c71c361ee4937adc1a00000227db5dd60405160405180910390a3505b8115801561165457508315155b156116be576001600160a01b038516600090815260366020526040902061167d8183600161238b565b856001600160a01b0316886001600160a01b03167e058a56ea94653cdf4f152d227ace22d4c00ad99e2a43f58cb7d9e3feb295f260405160405180910390a3505b50505050505050565b603a5490565b6116d5611a43565b6001600160a01b038416600090815260356020526040908190209051630eca322b60e01b815273__$de8c0cf1a7d7c36c802af9a64fb9d86036$__90630eca322b90611727908490889060040161470e565b60006040518083038186803b15801561173f57600080fd5b505af4158015611753573d6000803e3d6000fd5b5050505060048101546001600160a01b031661176e82611cc0565b61177c828783886000611d81565b6117916001600160a01b03871633838861232b565b6001820154604051630ab714fb60e11b81526000916001600160a01b0384169163156e29f6916117d39189918b916001600160801b0390911690600401614480565b602060405180830381600087803b1580156117ed57600080fd5b505af1158015611801573d6000803e3d6000fd5b505050506040513d601f19601f82011682018060405250810190611825919061423d565b9050801561189f5760078301546001600160a01b038616600090815260366020526040902061185f91600160a01b900460ff16600161238b565b846001600160a01b0316876001600160a01b03167e058a56ea94653cdf4f152d227ace22d4c00ad99e2a43f58cb7d9e3feb295f260405160405180910390a35b8361ffff16856001600160a01b0316886001600160a01b03167fde6857219544bb5b7746f48ed30be6386fefc61b2f864cacf559893bf50fd951338a6040516118e99291906143a6565b60405180910390a450505050505050565b603460009054906101000a90046001600160a01b03166001600160a01b031663aecda3786040518163ffffffff1660e01b815260040160206040518083038186803b15801561194857600080fd5b505afa15801561195c573d6000803e3d6000fd5b505050506040513d601f19601f820116820180604052508101906119809190613f30565b6001600160a01b0316336001600160a01b03161460405180604001604052806002815260200161333360f01b815250906119cd5760405162461bcd60e51b815260040161052c919061456e565b506001600160a01b0382166000818152603d602052604090819020805460ff1916841515179055517ff93f9a76c1bf3444d22400a00cb9fe990e6abe9dbb333fda48859cfee864543d90611a22908490614563565b60405180910390a25050565b603c5490565b6034546001600160a01b031690565b6039546040805180820190915260028152610d8d60f21b60208201529060ff16156111be5760405162461bcd60e51b815260040161052c919061456e565b603454604080516385c858b160e01b8152905133926001600160a01b0316916385c858b1916004808301926020929190829003018186803b158015611ac557600080fd5b505afa158015611ad9573d6000803e3d6000fd5b505050506040513d601f19601f82011682018060405250810190611afd9190613f30565b6001600160a01b03161460405180604001604052806002815260200161323760f01b815250906111be5760405162461bcd60e51b815260040161052c919061456e565b600381015460009064ffffffffff600160801b9091048116904216811415611b7e5750506001810154600160801b90046001600160801b03166106bc565b60018301546002840154600091611bb5916001600160801b03600160801b92839004811692611baf9204168561304c565b90613059565b949350505050565b6005810154604080516370a0823160e01b81526001600160a01b0385811660048301529151600093849316916370a08231916024808301926020929190829003018186803b158015611c0e57600080fd5b505afa158015611c22573d6000803e3d6000fd5b505050506040513d6020811015611c3857600080fd5b50516006840154604080516370a0823160e01b81526001600160a01b038881166004830152915191909216916370a08231916024808301926020929190829003018186803b158015611c8957600080fd5b505afa158015611c9d573d6000803e3d6000fd5b505050506040513d6020811015611cb357600080fd5b5051909590945092505050565b60068101546040805163b1bf962d60e01b815290516000926001600160a01b03169163b1bf962d916004808301926020929190829003018186803b158015611d0757600080fd5b505afa158015611d1b573d6000803e3d6000fd5b505050506040513d6020811015611d3157600080fd5b505160018301546003840154919250600160801b8082046001600160801b03908116939216910464ffffffffff16600080611d6f878786888761311a565b915091506116be8787878585886132d3565b611d89613db9565b60058601546001600160a01b031680825260408051637b98f4df60e11b8152815163f731e9be92600480840193919291829003018186803b158015611dcd57600080fd5b505afa158015611de1573d6000803e3d6000fd5b505050506040513d6040811015611df757600080fd5b50805160209182015160c084015260408084019190915260018801546006890154825163b1bf962d60e01b81529251611e9b94600160801b9093046001600160801b0316936001600160a01b039092169263b1bf962d9260048082019391829003018186803b158015611e6957600080fd5b505afa158015611e7d573d6000803e3d6000fd5b505050506040513d6020811015611e9357600080fd5b505190613059565b60e082018190526007870154604083015160c08401516001600160a01b03909216926329db497d9289928992899289929190611ed68f61356f565b6040518963ffffffff1660e01b815260040180896001600160a01b03168152602001886001600160a01b031681526020018781526020018681526020018581526020018481526020018381526020018281526020019850505050505050505060606040518083038186803b158015611f4d57600080fd5b505afa158015611f61573d6000803e3d6000fd5b505050506040513d6060811015611f7757600080fd5b50805160208083015160409384015160a086015260808501526060840182905282518084019093526002835261353360f01b908301526001600160801b03101561203f5760405162461bcd60e51b81526004018080602001828103825283818151815260200191508051906020019080838360005b83811015612004578181015183820152602001611fec565b50505050905090810190601f1680156120315780820380516001836020036101000a031916815260200191505b509250505060405180910390fd5b506080810151604080518082019091526002815261353560f01b6020820152906001600160801b0310156120b45760405162461bcd60e51b8152602060048201818152835160248401528351909283926044909101919085019080838360008315612004578181015183820152602001611fec565b5060a08101516040805180820190915260028152610d4d60f21b6020820152906001600160801b0310156121295760405162461bcd60e51b8152602060048201818152835160248401528351909283926044909101919085019080838360008315612004578181015183820152602001611fec565b5060608181015160028801805460808086015160038c0180546001600160801b03199081166001600160801b038085169190911790925560a0808a015191909516828816178216600160801b82841681029190911790965560018e01546040805198895260208901949094528784019190915280821697870197909752939095049092169183019190915291516001600160a01b038816927f804c9b842b2748a22bb64b345453a3de7ca54a6ca45ce00d415894979e22897a928290030190a2505050505050565b600082820183811015610f4d576040805162461bcd60e51b815260206004820152601b60248201527f536166654d6174683a206164646974696f6e206f766572666c6f770000000000604482015290519081900360640190fd5b6000610f4d83836040518060400160405280601e81526020017f536166654d6174683a207375627472616374696f6e206f766572666c6f77000081525061357a565b604080518082019091526002815261373760f01b6020820152608083106122f55760405162461bcd60e51b8152602060048201818152835160248401528351909283926044909101919085019080838360008315612004578181015183820152602001611fec565b508160020281612306576000612309565b60015b60ff16901b826002026001901b19846000015416178360000181905550505050565b604080516001600160a01b0380861660248301528416604482015260648082018490528251808303909101815260849091019091526020810180516001600160e01b03166323b872dd60e01b1790526123859085906135d4565b50505050565b604080518082019091526002815261373760f01b6020820152608083106123f35760405162461bcd60e51b8152602060048201818152835160248401528351909283926044909101919085019080838360008315612004578181015183820152602001611fec565b50816002026001018161240757600061240a565b60015b60ff16901b826002026001016001901b19846000015416178360000181905550505050565b6000813f7fc5d2460186f7233c927e7db2dcc703c0e500b653ca82273b7bfad8045d85a470818114801590611bb5575050151592915050565b603854603c54604080518082019091526002815261363560f01b60208201529082106124a75760405162461bcd60e51b815260040161052c919061456e565b506001600160a01b038216600090815260356020526040812060070154600160a01b900460ff1615158061251057506000805260376020527fa0a618d80eda9243166be83cb7421d97e9dab6ddddd3c70ac7a6b4440256e8e7546001600160a01b038481169116145b905080610c1c57506001600160a01b03919091166000818152603560209081526040808320600701805460ff60a01b1916600160a01b60ff8816021790558483526037909152902080546001600160a01b0319169091179055600101603855565b3b1590565b80516001600160a01b0390811660009081526035602090815260408083208186015185168452603683528184206034548351631f94a27560e31b81529351929691959491169263fca513a89260048083019392829003018186803b1580156125dd57600080fd5b505afa1580156125f1573d6000803e3d6000fd5b505050506040513d601f19601f820116820180604052508101906126159190613f30565b905060006126be6126258561378b565b600a0a6126b88760600151856001600160a01b031663b62cad698a600001516040518263ffffffff1660e01b81526004016126609190614361565b602060405180830381600087803b15801561267a57600080fd5b505af115801561268e573d6000803e3d6000fd5b505050506040513d601f19601f820116820180604052508101906126b29190614259565b90613795565b906137ee565b905073__$de8c0cf1a7d7c36c802af9a64fb9d86036$__63721a92f986600001518688604001518960600151868b60800151603a5460358c60376038548e6040518d63ffffffff1660e01b81526004016127239c9b9a9998979695949392919061441c565b60006040518083038186803b15801561273b57600080fd5b505af415801561274f573d6000803e3d6000fd5b5050505061275c84611cc0565b60008060018760800151600281111561277157fe5b600281111561277c57fe5b1415612831576003860154600587015460208901516040808b015160608c0151915163b3f1c93d60e01b81526001600160801b0390951696506001600160a01b039093169363b3f1c93d936127d89392909188906004016143f3565b602060405180830381600087803b1580156127f257600080fd5b505af1158015612806573d6000803e3d6000fd5b505050506040513d601f19601f8201168201806040525081019061282a919061423d565b90506128e0565b600686015460208801516040808a015160608b015160018b0154925163b3f1c93d60e01b81526001600160a01b039095169463b3f1c93d9461288b9490939291600160801b9091046001600160801b031690600401614375565b602060405180830381600087803b1580156128a557600080fd5b505af11580156128b9573d6000803e3d6000fd5b505050506040513d601f19601f820116820180604052508101906128dd919061423d565b90505b8015612902576007860154612902908690600160a01b900460ff16600161228d565b61293187600001518860a0015160008a60e00151612921576000612927565b8a606001515b8a93929190611d81565b8660e00151156129c9578660a001516001600160a01b0316634efecaa5886020015189606001516040518363ffffffff1660e01b81526004016129759291906143a6565b602060405180830381600087803b15801561298f57600080fd5b505af11580156129a3573d6000803e3d6000fd5b505050506040513d601f19601f820116820180604052508101906129c79190614259565b505b8660c0015161ffff1687604001516001600160a01b031688600001516001600160a01b03167fc6a898309e823ee50bac64e45ca8adba6690e99e7841c45d754e2a38e9019d9b8a602001518b606001518c6080015160016002811115612a2b57fe5b8e608001516002811115612a3b57fe5b6002811115612a4657fe5b14612a655760028d0154600160801b90046001600160801b0316612a67565b885b6040516118e994939291906144f0565b6000806000806000612a87613e07565b612a908a613830565b15612aae576000806000806000199550955095509550955050612f2a565b600060e08201525b878160e001511015612e895760e0810151612ad2908b90613835565b612adb57612e79565b60e0810151600090815260208a81526040808320546001600160a01b03166101e085018190528352908d90529020612b12816138b4565b506080860181905260c08601929092525060a0840191909152600a0a60208301526101e082015160405163b3596f0760e01b81526001600160a01b038a169163b3596f0791612b649190600401614361565b60206040518083038186803b158015612b7c57600080fd5b505afa158015612b90573d6000803e3d6000fd5b505050506040513d601f19601f82011682018060405250810190612bb49190614259565b825260c082015115801590612bd4575060e0820151612bd4908c906138df565b15612cf2578060040160009054906101000a90046001600160a01b03166001600160a01b03166370a082318e6040518263ffffffff1660e01b8152600401612c1c9190614361565b60206040518083038186803b158015612c3457600080fd5b505afa158015612c48573d6000803e3d6000fd5b505050506040513d601f19601f82011682018060405250810190612c6c9190614259565b6040830181905260208301518351600092612c8b92916126b891613795565b610120840151909150612c9e90826121f1565b61012084015260a0830151612cc490612cb8908390613795565b610160850151906121f1565b61016084015260c0830151612cea90612cde908390613795565b610180850151906121f1565b610180840152505b60e0820151612d02908c90613965565b15612e77578060050160009054906101000a90046001600160a01b03166001600160a01b03166370a082318e6040518263ffffffff1660e01b8152600401612d4a9190614361565b60206040518083038186803b158015612d6257600080fd5b505afa158015612d76573d6000803e3d6000fd5b505050506040513d601f19601f82011682018060405250810190612d9a9190614259565b826060018181525050612e448160060160009054906101000a90046001600160a01b03166001600160a01b03166370a082318f6040518263ffffffff1660e01b8152600401612de99190614361565b60206040518083038186803b158015612e0157600080fd5b505afa158015612e15573d6000803e3d6000fd5b505050506040513d601f19601f82011682018060405250810190612e399190614259565b6060840151906121f1565b6060830181905260208301518351612e7092612e6492916126b891613795565b610140840151906121f1565b6101408301525b505b60e0810180516001019052612ab6565b600081610120015111612e9d576000612eb2565b610120810151610160820151612eb2916137ee565b610160820152610120810151612ec9576000612ede565b610120810151610180820151612ede916137ee565b6101808201819052610120820151610140830151612efb926139e4565b610100820181905261012082015161014083015161016084015161018090940151919850965091945090925090505b965096509650965096915050565b600080612f458584613a08565b905083811015612f59576000915050610f4d565b612f63818561224b565b95945050505050565b600290565b303b1590565b600381015460009064ffffffffff600160801b9091048116904216811415612fae57505060018101546001600160801b03166106bc565b60018301546002840154600091611bb5916001600160801b0391821691611baf911685613aa5565b604080516020810190915284548152600090612ff89088908890878787612a77565b945050505050670de0b6b3a7640000811015604051806040016040528060018152602001601b60f91b815250906130425760405162461bcd60e51b815260040161052c919061456e565b5050505050505050565b6000610f4d838342613ae3565b6000821580613066575081155b15613073575060006106e2565b816b019d971e4fe8401e74000000198161308957fe5b0483111560405180604001604052806002815260200161068760f31b815250906130f45760405162461bcd60e51b8152602060048201818152835160248401528351909283926044909101919085019080838360008315612004578181015183820152602001611fec565b506b033b2e3c9fd0803ce80000006002815b04838502018161311257fe5b049392505050565b600285015460009081906001600160801b0316858582156132a45760006131418488613aa5565b905061314d818a613059565b604080518082019091526002815261353160f01b60208201529093506001600160801b038411156131bf5760405162461bcd60e51b8152602060048201818152835160248401528351909283926044909101919085019080838360008315612004578181015183820152602001611fec565b5060018b0180546001600160801b0319166001600160801b03851617905589156132a25760028b015460009061320590600160801b90046001600160801b03168961304c565b9050613211818a613059565b6040805180820190915260028152611a9960f11b60208201529093506001600160801b038411156132835760405162461bcd60e51b8152602060048201818152835160248401528351909283926044909101919085019080838360008315612004578181015183820152602001611fec565b505060018b0180546001600160801b03808516600160801b0291161790555b505b600399909901805464ffffffffff60801b1916600160801b4264ffffffffff1602179055989650505050505050565b6132db613ea1565b6132e48761356f565b61012082018190526132f6575061111a565b8660050160009054906101000a90046001600160a01b03166001600160a01b031663797743386040518163ffffffff1660e01b815260040160806040518083038186803b15801561334657600080fd5b505afa15801561335a573d6000803e3d6000fd5b505050506040513d608081101561337057600080fd5b508051602080830151604084015160609094015164ffffffffff1661014086015260a0850193909352918352908201526133aa8686613059565b60808201526133b98684613059565b606082015260a08101516101408201516133db919064ffffffffff8516613ae3565b60c0820181905260208201516133f091613059565b60408201819052608082015182516060840151613415939261094692909183916121f1565b60e0820181905261012082015161342c9190613a08565b6101008201819052156116be5760408051602081019091528754815260009061345490613bb9565b9050600061347082846101000151613a0890919063ffffffff16565b61010084015190915081810390818301111561348b57600080fd5b6004808b015460408051637df5bd3b60e01b8152928301859052602483018a9052516001600160a01b0390911691637df5bd3b91604480830192600092919082900301818387803b1580156134df57600080fd5b505af11580156134f3573d6000803e3d6000fd5b5050505060048a81015460408051633c4e0da160e21b8152928301849052602483018a9052516001600160a01b039091169163f138368491604480830192600092919082900301818387803b15801561354b57600080fd5b505af115801561355f573d6000803e3d6000fd5b5050505050505050505050505050565b5460401c61ffff1690565b600081848411156135cc5760405162461bcd60e51b8152602060048201818152835160248401528351909283926044909101919085019080838360008315612004578181015183820152602001611fec565b505050900390565b6135e6826001600160a01b031661242f565b613637576040805162461bcd60e51b815260206004820152601f60248201527f5361666545524332303a2063616c6c20746f206e6f6e2d636f6e747261637400604482015290519081900360640190fd5b600080836001600160a01b0316836040518082805190602001908083835b602083106136745780518252601f199092019160209182019101613655565b6001836020036101000a0380198251168184511680821785525050505050509050019150506000604051808303816000865af19150503d80600081146136d6576040519150601f19603f3d011682016040523d82523d6000602084013e6136db565b606091505b509150915081613732576040805162461bcd60e51b815260206004820181905260248201527f5361666545524332303a206c6f772d6c6576656c2063616c6c206661696c6564604482015290519081900360640190fd5b8051156123855780806020019051602081101561374e57600080fd5b50516123855760405162461bcd60e51b815260040180806020018281038252602a815260200180614831602a913960400191505060405180910390fd5b5460301c60ff1690565b6000826137a4575060006106e2565b828202828482816137b157fe5b0414610f4d5760405162461bcd60e51b81526004018080602001828103825260218152602001806147e26021913960400191505060405180910390fd5b6000610f4d83836040518060400160405280601a81526020017f536166654d6174683a206469766973696f6e206279207a65726f000000000000815250613bc7565b511590565b60006080821060405180604001604052806002815260200161373760f01b815250906138a25760405162461bcd60e51b8152602060048201818152835160248401528351909283926044909101919085019080838360008315612004578181015183820152602001611fec565b50509051600360029092021c16151590565b5461ffff80821692601083901c821692602081901c831692603082901c60ff169260409290921c1690565b60006080821060405180604001604052806002815260200161373760f01b8152509061394c5760405162461bcd60e51b8152602060048201818152835160248401528351909283926044909101919085019080838360008315612004578181015183820152602001611fec565b5050815160016002830281019190911c16151592915050565b60006080821060405180604001604052806002815260200161373760f01b815250906139d25760405162461bcd60e51b8152602060048201818152835160248401528351909283926044909101919085019080838360008315612004578181015183820152602001611fec565b50509051600160029092021c16151590565b6000826139f45750600019610f4d565b611bb583613a028685613a08565b90613c2c565b6000821580613a15575081155b15613a22575060006106e2565b816113881981613a2e57fe5b0483111560405180604001604052806002815260200161068760f31b81525090613a995760405162461bcd60e51b8152602060048201818152835160248401528351909283926044909101919085019080838360008315612004578181015183820152602001611fec565b50612710600281613106565b600080613ab94264ffffffffff851661224b565b9050611bb5613ac6613d2b565b6301e13380613ad58785613795565b81613adc57fe5b04906121f1565b600080613af78364ffffffffff861661224b565b905080613b0e57613b06613d2b565b915050610f4d565b6000198101600060028311613b24576000613b29565b600283035b90506301e1338087046000613b3e8280613059565b90506000613b4c8284613059565b905060006002613b60846126b28a8a613795565b81613b6757fe5b04905060006006613b7e846126b289818d8d613795565b81613b8557fe5b049050613ba981613ba38481613b9b8a8e613795565b613ba3613d2b565b906121f1565b9c9b505050505050505050505050565b805160501c613fff16919050565b60008183613c165760405162461bcd60e51b8152602060048201818152835160248401528351909283926044909101919085019080838360008315612004578181015183820152602001611fec565b506000838581613c2257fe5b0495945050505050565b604080518082019091526002815261035360f41b602082015260009082613c945760405162461bcd60e51b8152602060048201818152835160248401528351909283926044909101919085019080838360008315612004578181015183820152602001611fec565b5060408051808201909152600280825261068760f31b6020830152830490670de0b6b3a7640000821904851115613d0c5760405162461bcd60e51b8152602060048201818152835160248401528351909283926044909101919085019080838360008315612004578181015183820152602001611fec565b508281670de0b6b3a764000086020181613d2257fe5b04949350505050565b6b033b2e3c9fd0803ce800000090565b604051806101800160405280613d4f613da6565b815260006020820181905260408201819052606082018190526080820181905260a0820181905260c0820181905260e082018190526101008201819052610120820181905261014082018190526101609091015290565b6040518060200160405280600081525090565b60405180610100016040528060006001600160a01b03168152602001600081526020016000815260200160008152602001600081526020016000815260200160008152602001600081525090565b604051806102400160405280600081526020016000815260200160008152602001600081526020016000815260200160008152602001600081526020016000815260200160008152602001600081526020016000815260200160008152602001600081526020016000815260200160001515815260200160006001600160a01b031681526020016000151581526020016000151581525090565b60405180610160016040528060008152602001600081526020016000815260200160008152602001600081526020016000815260200160008152602001600081526020016000815260200160008152602001600064ffffffffff1681525090565b803561ffff811681146106bc57600080fd5b600060208284031215613f25578081fd5b8135610f4d816147be565b600060208284031215613f41578081fd5b8151610f4d816147be565b60008060408385031215613f5e578081fd5b8235613f69816147be565b91506020830135613f79816147be565b809150509250929050565b600080600080600060a08688031215613f9b578081fd5b8535613fa6816147be565b94506020860135613fb6816147be565b93506040860135613fc6816147be565b92506060860135613fd6816147be565b91506080860135613fe6816147be565b809150509295509295909350565b600080600080600060a0868803121561400b578081fd5b8535614016816147be565b94506020860135614026816147be565b93506040860135614036816147be565b9250606086013591506080860135613fe6816147d3565b60008060008060008060c08789031215614065578081fd5b8635614070816147be565b95506020870135614080816147be565b94506040870135614090816147be565b959894975094956060810135955060808101359460a0909101359350915050565b600080604083850312156140c3578182fd5b82356140ce816147be565b91506020830135613f79816147d3565b600080604083850312156140f0578182fd5b82356140fb816147be565b946020939093013593505050565b60008060006060848603121561411d578283fd5b8335614128816147be565b925060208401359150604084013561413f816147be565b809150509250925092565b6000806000806080858703121561415f578384fd5b843561416a816147be565b9350602085013592506040850135614181816147be565b915061418f60608601613f02565b905092959194509250565b600080600080608085870312156141af578182fd5b84356141ba816147be565b9350602085013592506040850135915060608501356141d8816147be565b939692955090935050565b600080600080600060a086880312156141fa578283fd5b8535614205816147be565b94506020860135935060408601359250613fd660608701613f02565b600060208284031215614232578081fd5b8135610f4d816147d3565b60006020828403121561424e578081fd5b8151610f4d816147d3565b60006020828403121561426a578081fd5b5051919050565b60008060408385031215614283578182fd5b82519150602083015167ffffffffffffffff808211156142a1578283fd5b818501915085601f8301126142b4578283fd5b8151818111156142c057fe5b604051601f8201601f1916810160200183811182821017156142de57fe5b6040528181528382016020018810156142f5578485fd5b614306826020830160208701614792565b809450505050509250929050565b6001600160a01b03169052565b519052565b6001600160801b03169052565b64ffffffffff169052565b60ff169052565b60008251614357818460208701614792565b9190910192915050565b6001600160a01b0391909116815260200190565b6001600160a01b03948516815292909316602083015260408201526001600160801b03909116606082015260800190565b6001600160a01b03929092168252602082015260400190565b6001600160a01b03958616815293851660208501529190931660408301526060820192909252901515608082015260a00190565b6001600160a01b0394851681529290931660208301526040820152606081019190915260800190565b6001600160a01b039c8d168152602081019b909b52988b1660408b015260608a0197909752608089019590955260a088019390935260c087019190915260e08601526101008501526101208401526101408301529091166101608201526101800190565b6001600160a01b0393909316835260208301919091526001600160801b0316604082015260600190565b6001600160a01b039889168152602081019790975260408701959095526060860193909352608085019190915260a084015260c083015290911660e08201526101000190565b6001600160a01b0394909416845260208401929092526040830152606082015260800190565b6020808252825182820181905260009190848201906040850190845b818110156145575783516001600160a01b031683529284019291840191600101614532565b50909695505050505050565b901515815260200190565b600060208252825180602084015261458d816040850160208701614792565b601f01601f19169190910160400192915050565b9051815260200190565b6000610180820190506145bf828451614321565b60208301516145d16020840182614326565b5060408301516145e46040840182614326565b5060608301516145f76060840182614326565b50608083015161460a6080840182614326565b5060a083015161461d60a0840182614326565b5060c083015161463060c0840182614333565b5060e083015161464360e0840182614314565b506101008084015161465782850182614314565b50506101208084015161466c82850182614314565b50506101408084015161468182850182614314565b5050610160808401516146968285018261433e565b505092915050565b9485526001600160a01b03938416602086015291831660408501528216606084015216608082015260a00190565b9788526001600160a01b03968716602089015294151560408801526060870193909352608086019190915260a085015260c08401521660e08201526101000190565b918252602082015260400190565b8681526020810186905260c081016003861061473457fe5b60408201959095526001600160a01b03939093166060840152608083019190915260a09091015292915050565b90815260200190565b958652602086019490945260408501929092526060840152608083015260a082015260c00190565b60005b838110156147ad578181015183820152602001614795565b838111156123855750506000910152565b6001600160a01b03811681146111be57600080fd5b80151581146111be57600080fdfe536166654d6174683a206d756c7469706c69636174696f6e206f766572666c6f77436f6e747261637420696e7374616e63652068617320616c7265616479206265656e20696e697469616c697a65645361666545524332303a204552433230206f7065726174696f6e20646964206e6f742073756363656564a2646970667358221220db774eea3d00546e56ebdb499c1cc19e814427fef99016197bae5c373387699c64736f6c63430007060033",
  "linkReferences": {
    "contracts/protocol/libraries/logic/ReserveLogic.sol": {
      "ReserveLogic": [
        {
          "length": 20,
          "start": 4075
        }
      ]
    },
    "contracts/protocol/libraries/logic/ValidationLogic.sol": {
      "ValidationLogic": [
        {
          "length": 20,
          "start": 1958
        },
        {
          "length": 20,
          "start": 2759
        },
        {
          "length": 20,
          "start": 3330
        },
        {
          "length": 20,
          "start": 5921
        },
        {
          "length": 20,
          "start": 9958
        }
      ]
    }
  },
  "deployedLinkReferences": {
    "contracts/protocol/libraries/logic/ReserveLogic.sol": {
      "ReserveLogic": [
        {
          "length": 20,
          "start": 4039
        }
      ]
    },
    "contracts/protocol/libraries/logic/ValidationLogic.sol": {
      "ValidationLogic": [
        {
          "length": 20,
          "start": 1922
        },
        {
          "length": 20,
          "start": 2723
        },
        {
          "length": 20,
          "start": 3294
        },
        {
          "length": 20,
          "start": 5885
        },
        {
          "length": 20,
          "start": 9922
        }
      ]
    }
  }
}